:020000021000EC
:10F0000000000120B9790200E1790200E3790200F1
:10F01000E5790200E7790200E979020000000000CA
:10F02000000000000000000000000000EB7902007A
:10F03000ED79020000000000EF790200F179020092
:10F04000E5190200F379020091410200F379020010
:10F05000F3790200F37902007D380200AD2402004A
:10F06000F3790200DD220200F3790200F379020055
:10F07000F3790200F3790200F3790200F3790200D8
:10F08000F3790200B5100200F3790200F37902006F
:10F09000F5100200F3790200A5830200F379020063
:10F0A000F3790200F3790200F3790200F3790200A8
:10F0B000F3790200F3790200000000000000000074
:10F0C000F3790200F3790200F3790200F379020088
:10F0D000B12C0200F3790200F37902000000000075
:10F0E0000000000000000000000000000000000020
:10F0F0000000000000000000000000000000000010
:10F1000000000000000000000000000000000000FF
:10F1100000000000000000000000000000000000EF
:10F4000010B5054C237833B9044B13B10448AFF35E
:10F4100000800123237010BD1C2300200000000089
:10F42000F89902000C4B43B10C480D4910B5AFF3ED
:10F4300000800C48036823B910BD0A48036833B93B
:10F440007047094B002BF7D0BDE810401847064B1A
:10F45000002BF5D0184700BF00000000F89902000B
:10F46000202300201823002000000000154B002B53
:10F4700008BF134B9D46A3F5803A00218B460F46EB
:10F480001348144A121A00F063F80F4B002B00D0F7
:10F4900098470E4B002B00D0984700200021040015
:10F4A0000D000D48002802D00C48AFF3008000F09A
:10F4B0002BF82000290005F091FB00F011F800BFA7
:10F4C0000000080000000120000000000000000013
:10F4D0001C2300204C2E0020000000000000000033
:10F4E00008B5074B044613B10021AFF30080054B6C
:10F4F0001868836A03B19847204600F031F800BFCE
:10F5000000000000C496020070B50D4E0D4CA41B07
:10F51000A4100025A54209D10B4E0C4C0AF0C6F8E8
:10F52000A41BA4100025A54205D170BD56F82530B6
:10F5300098470135EEE756F8253098470135F2E750
:10F54000102300201023002010230020142300206B
:10F5500002440346934200D1704703F8011BF9E7C8
:10F56000FEE700BF80B582B000AF0346FB710C4BD5
:10F570001B78002B06D00B4B1B78FA799A4201D1ED
:10F58000002308E006F05AFE054B01221A70054AD6
:10F59000FB791370002318460837BD4680BD00BFB5
:10F5A000382300203923002080B483B000AF00232B
:10F5B000FB71FB7918460C37BD465DF8047B70473C
:10F5C00080B588B000AF786039600123FB740023F8
:10F5D000FB613B68BB610A237B617A68FB6913446A
:10F5E000BA691946002006F0DBFDF860FA69FB688D
:10F5F0001344FB61BA69FB68D31ABB61FB68002B3B
:10F6000005D17B69013B7B617B69002B03D0BB6922
:10F61000002BE2D100E000BFFB7C18462037BD463E
:10F6200080BD80B485B000AF786039603B68002B46
:10F6300002DA0023FB7307E07B681A683B681A4410
:10F640007B681A600123FB73FB7B18461437BD46A9
:10F650005DF8047B7047000080B586B000AFF860AD
:10F66000B9607A6000233B610123FB75FB68002BC6
:10F6700011D03B69BA68D018FB681B680A4A4FF47E
:10F68000807109F073FB386139697868FFF7C9FF49
:10F690000346FB7502E07B6800221A60FB7D18467A
:10F6A0001837BD4680BD00BFC8960200F0B5D1B086
:10F6B00006AF044607F11000016007F10C010A6073
:10F6C00007F10802136007F1170322461A7000239E
:10F6D000C7F8243107F1180300221A60012387F8C4
:10F6E0002331FFF761FF0346002B01D0002363E1C4
:10F6F00007F118031B6807F11C02D11807F1180263
:10F7000007F110031868FFF7A7FF034683F0010312
:10F71000DBB2002B01D000234EE1D7F84031062B9D
:10F7200000F2238101A252F823F000BF49F7010043
:10F7300087F70100B5F70100F1F701003BF8010080
:10F7400093F80100F9F8010007F10C03186809F0BB
:10F7500049FB0346C7F82431D7F8242107F11803E1
:10F760001B681344FF2B00F2028107F118031B688A
:10F7700007F11C02D018D7F8242107F10C031968EF
:10F7800009F0E8FAF3E007F118031B6807F11C021F
:10F79000D01807F118031B68C3F5807107F108033F
:10F7A0001B681B6807F10C02126809F0DFFAC7F842
:10F7B0002401DDE007F118031B6807F11C02D018D3
:10F7C00007F118031B68C3F5807107F108031B6874
:10F7D0001C6807F108031B6804331B6807F10C025F
:10F7E00000932346126809F0C1FAC7F82401BFE06C
:10F7F00007F118031B6807F11C02D01807F1180362
:10F800001B68C3F5807407F108031B681D6807F1C6
:10F8100008031B6804331B6807F1080212680832EA
:10F82000116807F10C02019100932B4612682146E2
:10F8300009F09CFAC7F824019AE007F118031B6845
:10F8400007F11C02D41807F118031B68C3F5807573
:10F8500007F108031B681E6807F108031B680433DF
:10F860001B6807F1080212680832116807F10802E4
:10F8700012680C32106807F10C020290019100939B
:10F88000334612682946204609F070FAC7F8240169
:10F890006EE007F118031B6807F11C02D51807F189
:10F8A00018031B68C3F5807607F108031B681B6803
:10F8B0007B6007F108031B6804331B6807F108022B
:10F8C00012680832116807F1080212680C321068D9
:10F8D00007F1080212681032146807F10C02039451
:10F8E0000290019100937B6812683146284609F026
:10F8F0003DFAC7F824013BE007F118031B6807F144
:10F900001C02D61807F118031B68C3F5807E07F1A7
:10F9100008031B681B687B6007F108031B6804333E
:10F920001B6807F1080212680832116807F1080223
:10F9300012680C32106807F108021268103214685D
:10F9400007F1080212681432156807F10C020495D9
:10F9500003940290019100937B68126871463046CF
:10F9600009F004FAC7F8240102E000BF00E000BF7C
:10F9700007F11803D7F824111846FFF752FE034683
:10F9800087F8233107F118031B68C7F81C3197F873
:10F990002331002B0FD0D7F81C31B3F5807F0AD864
:10F9A00007F118031A6807F11C0311461846FFF700
:10F9B00007FE034600E00023184607F59677BD468C
:10F9C000F0BD00BF80B485B000AF03463960FB7165
:10F9D0000223FB6018E0FA79FB689B0042FA03F30C
:10F9E000DBB203F00F03FB72FB68C3F101033A685B
:10F9F0001A44FB7A092B03D9FB7A3733DBB202E0D6
:10FA0000FB7A3033DBB21370FB685A1EFA60002BAE
:10FA1000E1D100BF1437BD465DF8047B704790B557
:10FA2000D1B000AF044607F108000160391D0A603B
:10FA30003A46136007F10F0322461A7007F11003CC
:10FA400000221A603B461B68C7F82C31D7F85421B6
:10FA5000D7F85C311344C7F8243107F108031B6859
:10FA6000002B01D00A2300E00023C7F82031FFF764
:10FA70009BFD0346002B02D03B461B682DE13B4615
:10FA80001B68002B37D107F110031B6807F1140224
:10FA9000D11807F1100207F108031868FFF7DCFD21
:10FAA000034683F00103DBB2002B02D03B461B6808
:10FAB00013E13B1D186809F095F9C7F81C01D7F848
:10FAC0001C31C22B28BFC223C7F81C3107F1100319
:10FAD0001B6807F11402D0183B1DD7F81C211968C8
:10FAE00009F038F907F110031A68D7F81C311A44E5
:10FAF00007F110031A6007F110031B68C7F81831EB
:10FB0000D7F81821D7F8203113443133C7F814310E
:10FB100007F11402D7F818311344C7F83C3107F144
:10FB20001402D7F814311344C7F838310023C7F84A
:10FB300028310DE0D7F83C3120221A70D7F83C313B
:10FB40000133C7F83C31D7F828310133C7F82831E1
:10FB5000D7F82821D7F820319A42EBD30023C7F8F1
:10FB600030316FE0D7F82C21D7F824319A421CD3DA
:10FB7000D7F83C315A1CC7F83C2120221A70D7F81C
:10FB80003C315A1CC7F83C2120221A70D7F83C316E
:10FB90005A1CC7F83C2120221A70D7F838315A1C59
:10FBA000C7F8382120221A7047E0D7F82C21D7F85F
:10FBB00054319A4208D2D7F85021D7F82C31134447
:10FBC0001B7887F837310AE0D7F82C21D7F8543161
:10FBD000D31AD7F8582113441B7887F8373197F890
:10FBE0003731D7F83C111846FFF7ECFED7F83C3117
:10FBF0000233C7F83C31D7F83C315A1CC7F83C21D6
:10FC000020221A70D7F83841631CC7F8383109F040
:10FC100081F8024697F83731013313441B7803F01B
:10FC20009703002B02D097F8373100E02E23237082
:10FC3000D7F82C310133C7F82C31D7F830310133E4
:10FC4000C7F83031D7F830310F2B8BD9D7F838318E
:10FC50005A1CC7F838210D221A70D7F838315A1CAF
:10FC6000C7F838210A221A70D7F83C315A1CC7F855
:10FC70003C2120221A7007F110031A68D7F82031AE
:10FC8000134403F1430207F110031A6007F1100354
:10FC90001A6807F1140311461846FFF791FC034652
:10FCA00083F00103DBB2002B02D0D7F82C3114E033
:10FCB000FFF77AFC0346002B02D0D7F82C310CE07A
:10FCC00007F1100300221A60D7F82C21D7F824314D
:10FCD0009A42FFF410AFD7F82C31184607F5A277F7
:10FCE000BD4690BD80B400AF024B1846BD465DF8DE
:10FCF000047B7047ADF6010080B400AF024B18469C
:10FD0000BD465DF8047B70471FFA010090B585B0D1
:10FD100000AF78600020FFF725FCF860FB68002B3F
:10FD20000AD1FFF7DFFF0446FFF7E6FF03467A68D4
:10FD30001946204600F00EF8FB6818461437BD46F9
:10FD400090BD80B500AF0120FFF70CFC03461846BC
:10FD500080BD000080B584B000AFF860B9607A6003
:10FD6000084BFF229A60074B00221A60054B0022C5
:10FD70005A60B968F86800F007F800BF1037BD4650
:10FD800080BD00BF3C23002080B483B000AF78600A
:10FD90003960074A7B68C2F81034054A3B68C2F8EC
:10FDA000143400BF0C37BD465DF8047B704700BFBC
:10FDB0003C23002080B588B000AF786039607B6854
:10FDC00001337B600123BB610123FB770023FB73BD
:10FDD00007F10F03184601F0EFFA294B1A683B6848
:10FDE0001A60274B9A68264B5968254B1B68CB1A1B
:10FDF000134401337B617A68BB6913443B613A6900
:10FE00007B699A422DD97B69002B27D03B7A01224E
:10FE100062F301033B723B7A6FF382033B723B7ADE
:10FE2000052262F3C5033B723B896FF389133B8163
:10FE3000144B1B68C3F31502BB6862F39F23BB60BE
:10FE40000F4B1B685A1C0E490A600D4A92681340FA
:10FE5000BA680B4902339B000B445A600023FB77BE
:10FE600005E0074B1A687B681344054A1360FB7B67
:10FE7000184601F0ACFAFB7F18462037BD4680BD1E
:10FE80003C2300208C21002080B586B000AF0346C3
:10FE90003960FB7100237B611D4B9B683B6107F15F
:10FEA0000C0319467869FFF785FF0346002B2BD01A
:10FEB0003B7A012262F301033B723B7A6FF38203C8
:10FEC0003B72FB7903F00703DAB23B7A62F3C503B6
:10FED0003B727B69DBB203F00F03DAB23B8962F35A
:10FEE00089133B813B68C3F31502BB6862F39F2310
:10FEF000BB60FB685A1CFA603A691340BA6804494F
:10FF000002339B000B445A6000BF1837BD4680BDCA
:10FF10003C23002080B588B000AF0346B9607A600A
:10FF2000FB730123FB61224B9B68BB6107F1140348
:10FF30001946F869FFF73EFF0346002B34D03B7C9F
:10FF4000012262F301033B743B7C6FF382033B7439
:10FF5000FB7B03F00703DAB23B7C62F3C5033B741F
:10FF6000FB69DBB203F00F03DAB23B8A62F3891359
:10FF70003B82BB68C3F315023B6962F39F233B617D
:10FF80007B695A1C7A61BA6913403A69084902339D
:10FF90009B000B445A607A69BB691340044A0233E0
:10FFA0009B0013447A685A6000BF2037BD4680BD6D
:10FFB0003C23002080B400AF064B5A68054B1B68F9
:10FFC0009A420CBF01230023DBB21846BD465DF800
:10FFD000047B70473C23002090B59DB004AFFFF731
:10FFE000E9FF0346002B01D000232CE1984B5B680E
:10FFF000FB65974B9B683B64FB6DBB65FB6D5A1CB7
:020000022000DC
:10000000FA653A6C1340924A02339B0013445B68D2
:10001000BB611AE07B8BC3F389139BB21A463B8BFF
:10002000C3F389139BB213441A46FB6D1344FB655B
:10003000FB6DBB65FB6D5A1CFA653A6C1340844A34
:1000400002339B0013445B68BB613B7E03F00303F8
:10005000DBB2002BDED000237B653B7E03F0040384
:10006000DBB2002B01D000237B65002387F85330DF
:100070003B7E03F00303DBB2022B40F0A180FB6D5B
:100080005A1CFA653A6C1340714A02339B001344C0
:100090005B68FB637B8BC3F389139BB2BB633B8BB6
:1000A000C3F389139BB2FB64FB6DDA433B6C1340D3
:1000B00001339B007B63BA6B7B6B9A4243D97B6BAA
:1000C000002B08D0FA6D3B6C134002339B00604A52
:1000D0001344043300E05F4B3B637B6B002B02D087
:1000E0007B6BDBB201E0BB6BDBB287F82F307B6B45
:1000F000002B01D0574B00E00023BB627B6B002B31
:1001000006D0BB6BDAB27B6BDBB2D31ADBB200E09A
:10011000002387F827304E4BD3F814443B7EC3F3BB
:10012000C203DBB2184697F82F3097F827200392C6
:10013000BA6A029201933B6B0093FB6CFA6B796D88
:10014000A047F8641BE0424BD3F814443B7EC3F352
:10015000C203DBB21846FA6D3B6C134002339B00BE
:100160003B4A134404330022039200220292BA6BEA
:1001700001920093FB6CFA6B796DA047F864FA6CFE
:10018000BB6B9A4209D1BB6B03339B08FA6D1344D6
:10019000FB65012387F8533048E0FB6C9BB2C3F347
:1001A00009039AB23B8B62F38F133B83BA6D3B6CAE
:1001B0001340BA69264902339B000B445A6035E06C
:1001C0003B46BB64BB69C3F395233B623B8BC3F3E4
:1001D0008313DBB2FB6100237B6411E0FB6D5A1CCF
:1001E000FA653A6C13401A4A02339B0013445A686A
:1001F000BB6C1A60BB6C0433BB647B6C01337B64E7
:100200007A6CFB699A42E9D3114BD3F810443B7ED8
:10021000C3F3C203DBB218463A46FB6900931346A8
:100220003A6A796DA047034687F8533097F8533000
:10023000002B02D0064AFB6D5360FFF7BBFE03465E
:1002400083F00103DBB218466437BD4690BD00BFA2
:100250003C2300204823002080B588B000AF7860A0
:100260000023FB774BE02A4B1A68FB7FDB0013442B
:10027000BB61BB691B781A46012393407B61254B08
:100280001A687B691340002B36D07B69DA43214B17
:100290001B6813401F4A1360BB691B78184603F0A4
:1002A000DBFA0346FB74BB691B781A4601239340B3
:1002B0001A46194B1B681340FA7CB96909788A40C1
:1002C000934219D1FB7CBA695278012A0CBF0122F2
:1002D0000022D2B293420CBF01230023DBB2FB60A9
:1002E000BB695B68002B07D0BB695B68BA69127891
:1002F000F968C9B210469847FB7F0133FB77074B7B
:100300001B78FA7F9A42AED300BF2037BD4680BD2E
:100310005427002084270020802700205827002011
:1003200080B584B000AF78600B46FB7001227B681B
:1003300002FA03F3FB601E4B184600F09FFFB86003
:10034000BB68002B30D11B4B1A68FB681340002B95
:1003500022D1786803F080FA0346002B06D0164BB2
:100360001A68FB681343144A136006E0FB68DA431B
:10037000114B1B681340104A13600E4B1A68FB6840
:1003800013430C4A13600A480C4B1B6800221946A1
:1003900000F040FFB86008E0FB68DA43054B1B68DB
:1003A0001340044A136000E000BF1037BD4680BD13
:1003B0006027002084270020802700205C27002061
:1003C00080B588B000AFF8600B467A60FB727B683E
:1003D000042B01D8072349E003F00EF9034683F00C
:1003E0000103DBB2002B07D003F0C6F8F861FB690C
:1003F000002B01D0FB6939E01E4AFB6813601E4ADE
:10040000FB7A13701D4A7B6813601D4B00221A6033
:100410001C4B00221A601EE0FB7ADB00FA681344D2
:10042000BB6103233B7500237B750023BB75002351
:10043000FB75BB699B787B75BB691B78184607F118
:100440001403114A194603F045F9F861FB69002BC2
:1004500001D0FB690AE0FB7A5A1EFA72002BDBD14D
:100460000A4A00210A4800F0A1FE03461846203738
:10047000BD4680BD54270020582700205C2700205F
:100480008027002084270020210302005902020057
:10049000DC96020080B582B000AF00237B600CE0E8
:1004A0000B4B1A687B68DB0013441B78012118464C
:1004B00003F06AF97B6801337B60064B1B781A46B0
:1004C0007B689A42ECD8002318460837BD4680BDA9
:1004D000542700205827002080B586B000AF7860F0
:1004E0000023BB8100233B617B687B6107F10C0328
:1004F0001A46002144F2010000F018F800BF183736
:10050000BD4680BD80B400AFBFF34F8F0549054B9A
:10051000DB6803F4E062044B1343CB60BFF34F8FFF
:1005200000BFFDE700ED00E00400FA0580B584B0EF
:1005300000AFF860B9607A600C490120FFF7A4FCB5
:10054000FFF7FFFB00BFFFF747FD0346002BFAD183
:10055000074B1B6803F00103002B00D0FFDEFFF701
:10056000D1FF00BF1037BD4680BD00BFE09602003E
:10057000F0ED00E080B483B000AF0346FB710949A1
:1005800097F907305B09FA7902F01F02012000FA9F
:1005900002F241F8232000BF0C37BD465DF8047B12
:1005A000704700BF00E100E080B483B000AF0346B5
:1005B000FB71094997F907305B09FA7902F01F02CC
:1005C000012000FA02F2203341F8232000BF0C374B
:1005D000BD465DF8047B704700E100E080B483B065
:1005E00000AF0346FB71094997F907305B09FA79B7
:1005F00002F01F02012000FA02F2403341F82320EA
:1006000000BF0C37BD465DF8047B704700E100E099
:1006100080B483B000AF0346FB71094997F90730F6
:100620005B09FA7902F01F02012000FA02F260333E
:1006300041F8232000BF0C37BD465DF8047B7047AE
:1006400000E100E080B483B000AF03463960FB7185
:1006500097F90730002B0BDA0D49FB7903F00F03F4
:10066000043B3A68D2B25201D2B20B441A7609E086
:10067000084997F907303A68D2B25201D2B20B4416
:1006800083F8002300BF0C37BD465DF8047B70473C
:1006900000ED00E000E100E080B483B000AF7860DE
:1006A0007B6803F00303002B0CBF01230023DBB2A4
:1006B00018460C37BD465DF8047B704780B485B0A2
:1006C00000AF7860254BFB607B68002B40D0244B4B
:1006D0001A68F9687B6800BF00BF00BF00BF00BF99
:1006E00000BF00BF00BF8A422FD000BF00BF00BFC5
:1006F00000BF00BF00BF00BF00BF00BF00BF00BF02
:1007000000BF00BF00BF00BF00BF00BF00BF00BFF1
:1007100000BF00BF00BF00BF00BF00BF00BF00BFE1
:1007200000BF00BF00BF00BF00BF00BF00BF00BFD1
:1007300000BF00BF00BF00BF00BF00BF00BF00BFC1
:1007400000BF00BF00BF00BF00BF013BC3D17B6043
:1007500000BF1437BD465DF8047B70470024F400E9
:10076000A021002080B582B000AF7860054A7B6888
:10077000C2F8083507211120FFF764FF00BF0837D2
:10078000BD4680BD0010014080B500AF0D4B4FF459
:100790008032C3F844230B4B4FF48032C3F8042358
:1007A0001120FFF735FF1120FFF7E4FE054B012272
:1007B0001A602F20FFF782FF034B01221A7000BF3F
:1007C00080BD00BF00100140A827002080B500AF09
:1007D0001120FFF7E9FE0F4B4FF48032C3F8482396
:1007E0000C4B4FF48032C3F808230A4B01225A60A5
:1007F0002F20FFF763FF074B01229A60064B002270
:100800001A602F20FFF75AFF044B00221A7000BF16
:1008100080BD00BF0010014094270020A8270020C1
:1008200080B400AF034BD3F804351846BD465DF8DD
:10083000047B70470010014080B483B000AF786043
:1008400039607A683B68D31A23F07F4318460C3727
:10085000BD465DF8047B704780B483B000AF78601C
:10086000044A7B68C2F8403500BF0C37BD465DF8CE
:10087000047B70470010014080B487B000AF7860FF
:10088000294B1B68002B03D1274A7B68136045E086
:100890007B681A68244B1B681B689A4210D8224B4D
:1008A0001B68214A126811687A6812688A1A1A60ED
:1008B0001D4B1A687B68DA611B4A7B6813602DE068
:1008C0007B681B68FB60184B1B687B61164B1B68C1
:1008D0003B6109E03B691B68FA68D31AFB603B691E
:1008E0007B613B69DB693B613B69002B04D03B6961
:1008F0001A68FB689A42EDD33B69002B05D03B692F
:100900001A68FB68D21A3B691A607B68FA681A6039
:100910007B683A69DA617B697A68DA6100BF1C3703
:10092000BD465DF8047B70479027002080B487B0F7
:1009300000AF7860234B1B687B617B693B6108E0FB
:100940003A697B689A4208D03B697B613B69DB6905
:100950003B613B69002BF3D100E000BF3B69002BFA
:1009600029D07A693B699A4211D1164B1B68DB6921
:10097000144A1360134B1B68002B08D1124B012241
:100980009A60124B00221A60114B01221A703B69C7
:100990001B68FB603B69DA697B69DA617B69DB694B
:1009A0003B613B69002B07D03B691A68FB681A441E
:1009B0003B691A6000E000BF1C37BD465DF8047B50
:1009C000704700BF902700200010014094270020AE
:1009D000A927002080B500AF1120FFF7FFFD00BF61
:1009E00080BD80B500AF1420FFF7F8FD00BF80BDCB
:1009F00080B584B000AF78600F4B1B68002B11D01E
:100A00000D4B1B687A6850697A689269114698475D
:100A1000F860FB68BB60BB68002B09D0B868FFF7C3
:100A20005BFD05E07B685B697A68926910469847D0
:100A300000BF1037BD4680BDA427002080B584B01C
:100A400000AF2B4B1B68002B4ED000237B60FFF7C1
:100A5000E7FE0246274B1B6819461046FFF7ECFEDF
:100A6000B860234B1B68FB601DE0FB681A68BB681D
:100A70009A421CD8FB681B68BA68D31ABB60FB6833
:100A80001B687A6813447B60FB683B60FB68DB692A
:100A9000FB603B681B7C002B05D03B6800221A746E
:100AA0003868FFF7A5FFFB68002BDED100E000BF30
:100AB000114B1A78114B1B789A420CD10F4B1B78B3
:100AC0000133DAB20D4B1A700C4B1B78022B02D19A
:100AD0000A4B00221A70094B1B781946084A7B689A
:100AE00042F82130FFF77DFF00BF1037BD4680BDC3
:100AF0009027002094270020A0270020A127002075
:100B00009827002080B483B000AF7860194B1A7822
:100B1000194B1B789A4223D0164B1B780133DAB25B
:100B2000144B1A70134B1B78022B02D1114B00226D
:100B30001A70104B1B781A46104B53F822207B6812
:100B40001A607B681A680E4B1B6813440C4A1360CA
:100B50000B4B1B6823F07F43094A1360012303E01A
:100B60007B6800221A60002318460C37BD465DF8EA
:100B7000047B7047A0270020A12700209827002091
:100B80009427002080B584B000AF244B1B78FB7302
:100B9000234B1B68BB602FE0204B5968FA7B134640
:100BA0005B001344DB000B447B60FB7B0133FB7376
:100BB0001A4B9B78FA7B9A4201D10023FB737B6826
:100BC0001B78022B02D0032B10D014E07B685B68EB
:100BD0001846FFF7ABFE0FE0114B1B683B603B680C
:100BE00000221A743B68DB690D4A13600C4B1B68CA
:100BF000002BF1D100E000BF084B5B78FA7B9A42F2
:100C0000CAD1074B1A68BB689A4214BF012300235C
:100C1000DBB218461037BD4680BD00BF88270020D4
:100C20009027002080B489B000AFF860B9607A6086
:100C30000023FB6138E0214B1B68BB61BB691A686C
:100C4000FB689A4206D9BB691A68FB68D21ABB696D
:100C50001A602DE0BB691B68FA68D31AFB60BB6998
:100C60001B68FA691344FB61BB6900221A60134BCD
:100C70001B687B61BB69DB69104A1360BB69DB6879
:100C8000002B11D0BA68FB69134423F07F42BB6983
:100C90005A60BB69DA68BB699A607B681A68BB698D
:100CA000DA617B687A691A60044B1B68002BC2D139
:100CB00000BF2437BD465DF8047B704790270020B5
:100CC00080B586B000AF7860504B1B683B6185E013
:100CD0007B68002B05D07B687B617B69DB697B606F
:100CE0003CE04B4B5A684A4B1B7819460B465B005D
:100CF0000B44DB001344FB60454B1B780133DAB235
:100D0000434B1A70424B1A78414B9B789A4202D15E
:100D10003F4B00221A70FB685B687B61FB681B78A5
:100D2000012B5BD17B691B7C002B00D056E0FB685C
:100D30009A687B695A60FB68DA687B699A60FB682D
:100D40001A697B69DA60FB685A697B699A61314B81
:100D50001B78002B02D07B6900225A607B695A689D
:100D60002D4B1B68D31A23F07F432C4A93420ED895
:100D70007B695A68284B1B6819461046FFF75CFDD3
:100D800002467B699B681A447B691A6017E0224B14
:100D90001A687B695B6819461046FFF74DFDB8601D
:100DA0007B699A68BB689A4206D97B699A68BB6876
:100DB000D21A7B691A6002E07B6900221A607B69A3
:100DC00000225A607B6900229A607B6901221A74B2
:100DD0007B690022DA617869FFF74EFD7B68002BA2
:100DE0007FF476AF0A4B1A78094B5B789A427FF40E
:100DF0006FAF064B1A683B699A4214BF0123002368
:100E0000DBB218461837BD4680BD00BF90270020D2
:100E100088270020A927002094270020FEFF7F00BC
:100E200090B589B000AF7860274B1B68002B44D089
:100E3000254B1B681B68FB61FFF7F2FCB861234B75
:100E40001B687B617969B869FFF7F6FC03460333D9
:100E50003B611F4B1B7883F00103DBB2002B01D0F9
:100E6000FFF792FC3A69FB69934238BF13467A69EF
:100E700013447B617B6923F07F437B617869FFF7D3
:100E8000EBFCFFF7CDFCF860B969F868FFF7D4FC1C
:100E90000346DC1CB9697869FFF7CEFC03469C4227
:100EA0000DD9FFF7BDFC03461846FFF7D5FC2F20F0
:100EB000FFF704FCFFF78EFD01E0FFF787FC00BFA2
:100EC0002437BD4690BD00BF902700209427002006
:100ED000A827002080B586B000AF00237B60184BA8
:100EE0001B683B61174B1B68FB603B461846FFF7CE
:100EF00009FE0346FB72FFF745FE0346FB75FB7ACE
:100F0000002B07D03B683A1D39691846FFF78AFE67
:100F10000123FB757B681846FFF7D2FE0346002BC2
:100F200001D00123FB75FB7D002B02D0F868FFF791
:100F300077FF054B00221A7000BF1837BD4680BDF1
:100F40009427002090270020A927002080B483B098
:100F500000AF0346FB71044AFB79537000BF0C37A6
:100F6000BD465DF8047B70478827002080B485B0BB
:100F700000AF7860134B5B780133FB73114B9B78A8
:100F8000FA7B9A4201D10023FB730E4B1B78FA7B4C
:100F90009A4201D100230EE07B68FA7B1A70094B5C
:100FA0005A68084B5B7819460B465B000B44DB0024
:100FB0001344BB60BB6818461437BD465DF8047B1C
:100FC000704700BF8827002080B588B000AFF86068
:100FD000B9607A603B600023FB610023BB7507F1B9
:100FE0001603184600F0E8F907F117031846FFF753
:100FF000BDFFB861BB69002B02D10423FB6117E080
:10100000BB6901221A70BB69FA685A60FFF708FCD5
:101010000246BB699A60BB69BA68DA60BB697A68E4
:101020001A61BB693A685A61FB7D1846FFF78EFF6B
:10103000BB7D184600F0CBF9FB69002B01D1FFF70F
:10104000D0FCFB6918462037BD4680BD80B586B010
:1010500000AF78600B46FB7000237B610023BB73FD
:1010600007F10E03184600F0A7F907F10F03184621
:10107000FFF77CFF38613B69002B02D104237B61C1
:1010800009E03B69FA781A703B697A685A60FB7B21
:101090001846FFF75BFFBB7B184600F098F97B69A9
:1010A000002B01D1FFF79DFC7B6918461837BD4620
:1010B00080BD000080B500AF0D4B0022C3F8402179
:1010C0000B4B0022C3F84421094B0022C3F84821EE
:1010D000074B0022C3F84C21054B0022C3F8002126
:1010E000034B0022C3F80421FFF7A8FC00BF80BD1A
:1010F0000010014080B500AFFFF7ECFE00BF80BDDF
:1011000080B584B000AFF8607A603B600B46FB723C
:101110007868FFF7C1FA034683F00103DBB2002BC6
:1011200001D0072331E07B68002B01D107232CE09D
:10113000FFF74CFB174A3B681360174B00221A70ED
:10114000154B00225A70144AFB7A9370124A7B683E
:101150005360124B00221A60114B00221A70114B7F
:1011600000221A701420FFF753FA07211420FFF70A
:1011700069FA1420FFF7FEF9F868FFF7F3FAFFF7B2
:101180004FFB0246084B1A60002318461037BD4635
:1011900080BD00BFA42700208827002090270020C2
:1011A000A0270020A12700209427002080B487B02A
:1011B00000AFF8600B467A60FB72154B5B68002B42
:1011C00001D108231DE07B68002B01D1072318E023
:1011D000FB68002B01D1072313E0FB681B681B7C15
:1011E000002B01D008230CE0FB681B687B617B6946
:1011F00000221A747B69FA7A5A747B697A685A6198
:10120000002318461C37BD465DF8047B704700BFBD
:101210008827002080B586B000AFF860B9607A609A
:10122000FB687B61144B5B68002B01D108231EE037
:10123000FB68002B01D1082319E0BB68042B01D8FF
:10124000072314E07B695B69002B01D108230EE0C2
:101250007B695B7C012B01D1BB6800E000233B6113
:101260007B683A69B9687869FFF7AEFE03461846AD
:101270001837BD4680BD00BF8827002080B584B0E8
:1012800000AF78607B68FB600D4B5B68002B01D181
:10129000082310E07B68002B03D0FB685B69002B00
:1012A00001D1082307E0FB6800221A740221F868C4
:1012B000FFF7CCFE034618461037BD4680BD00BF81
:1012C0008827002080B483B000AFEFF310833B6029
:1012D0003B687B6072B67B6818460C37BD465DF88C
:1012E000047B704780B400AF62B600BFBD465DF8B6
:1012F000047B704780B584B000AF7860FFF7E2FFF1
:10130000F860164B9B68002B1BD1144B01229A608E
:10131000134BD3F88020134B1340104A1360104B2B
:10132000104AC3F880200E4BD3F884300B4A536028
:101330000B4B4FF0FF32C3F884207B6800221A70F9
:1013400002E07B6801221A70FB68002B01D1FFF7D5
:10135000C9FF002318461037BD4680BDC42D0020AC
:1013600000E100E0FC06FFBC80B584B000AF03469E
:10137000FB710F4B9B68002B15D0FB79002B12D112
:10138000FFF7A0FFF8600B4A094B1B681360094A7E
:10139000074B5B685360064B00229A60FB68002B8A
:1013A00001D1FFF79FFF002318461037BD4680BDCF
:1013B000C42D002000E100E080B582B000AF78606D
:1013C0007868FFF797FF00BF0837BD4680BD80B53E
:1013D00082B000AF0346FB71FB791846FFF7C4FFEC
:1013E00000BF0837BD4680BD80B483B000AF7860D1
:1013F0007B68002B01D1032304E0054B5A6E7B6808
:101400001A60002318460C37BD465DF8047B704710
:10141000AC27002080B483B000AF78604FF0A043C9
:1014200018460C37BD465DF8047B704780B584B024
:1014300000AF7860084611461A460346FB700B461B
:10144000BB7013467B703B1D1846FFF7E3FFF86047
:101450007A68F978BB785B0019437B789B00194365
:101460003B7E1B0219433B7F1B041943FB6802F5BB
:10147000E07243F8221000BF1037BD4680BD80B532
:1014800084B002AF7860002301930023009300230F
:10149000012201217868FFF7C9FF00BF0837BD4668
:1014A00080BD80B584B000AF78603B1D1846FFF763
:1014B000B1FFF8607B68012202FA03F31946F8686D
:1014C00000F095F800BF1037BD4680BD80B584B0F0
:1014D00000AF78603B1D1846FFF79CFFF8607B6803
:1014E000012202FA03F31946F86800F08FF800BFF2
:1014F0001037BD4680BD80B584B000AF78603B1D1D
:101500001846FFF787FFF860FB68D3F80435BB6027
:10151000BB68DA437B68012101FA03F31A40FB68D8
:10152000C3F808257B6801229A40BB681A40FB6813
:10153000C3F80C2500BF1037BD4680BD80B582B012
:1015400000AF786039603B68002B03D17868FFF703
:10155000BDFF02E07868FFF7A4FF00BF0837BD4673
:1015600080BD80B584B000AF78603B1D1846FFF7A2
:1015700051FFF860F86800F020F802467B6822FA14
:1015800003F303F0010318461037BD4680BD80B554
:1015900084B000AF78603B1D1846FFF73BFFF86052
:1015A000F86800F017F802467B6822FA03F303F0AC
:1015B000010318461037BD4680BD80B483B000AF2C
:1015C00078607B68D3F8103518460C37BD465DF857
:1015D000047B704780B483B000AF78607B68D3F839
:1015E000043518460C37BD465DF8047B704780B45F
:1015F00083B000AF786039607B683A68C3F808252B
:1016000000BF0C37BD465DF8047B704780B483B0E3
:1016100000AF786039607B683A68C3F80C2500BF7A
:101620000C37BD465DF8047B7047000080B584B080
:1016300000AF78600E4A7B6813441B781846FFF7AA
:10164000A6FF0346002B14BF01230023FB73FB7B83
:10165000002B14BF01230023DBB283F00103DBB2B4
:1016600003F00103DBB218461037BD4680BD00BF52
:10167000F896020080B582B000AF7860054A7B68BA
:1016800013441B7800211846FFF758FF00BF0837A6
:10169000BD4680BDF896020080B582B000AF78608C
:1016A000054A7B6813441B7801211846FFF746FF63
:1016B00000BF0837BD4680BDF896020080B582B0F5
:1016C00000AF00237B6005E07868FFF7E5FF7B68EB
:1016D00001337B607B68032BF6D900BF0837BD461A
:1016E00080BD80B582B000AF00237B6005E07868E4
:1016F000FFF7C0FF7B6801337B607B68032BF6D963
:1017000000BF0837BD4680BD80B582B000AF7860AD
:10171000054A7B6813441B781846FFF7ECFE00BFB0
:101720000837BD4680BD00BFF896020080B582B084
:1017300000AF00237B6009E0094A7B6813441B78F3
:101740001846FFF79CFE7B6801337B607B68032BA8
:10175000F2D9FFF7B3FF00BF0837BD4680BD00BF19
:10176000F896020080B584B000AF78600E4A7B68BE
:1017700013441B781846FFF7F4FE0346002B14BFF2
:1017800001230023FB73FB7B002B14BF01230023E9
:10179000DBB283F00103DBB203F00103DBB21846D6
:1017A0001037BD4680BD00BFFC96020080B485B0F6
:1017B00000AF78604FF0FF33BB600023FB600DE0AB
:1017C0000B4AFB6813441B781A467B689A4202D185
:1017D000FB68BB6005E0FB680133FB60FB68032B23
:1017E000EED9BB6818461437BD465DF8047B7047D8
:1017F000FC96020080B483B000AF7860044A7B6836
:1018000013441B7818460C37BD465DF8047B7047BF
:10181000FC96020080B483B000AF78604FF0804245
:101820007B68C2F8083300BF0C37BD465DF8047B07
:10183000704780B485B000AF0346FB80FB8803F19E
:10184000804300221A60FB8803F180431B68FB6021
:10185000FB6800BF1437BD465DF8047B704780B459
:1018600083B000AF0346FB80FB8803F180431B6815
:10187000002B14BF01230023DBB218460C37BD46F2
:101880005DF8047B704780B483B000AF0346FB7102
:101890004FF08042FB7903F00303C2F8183500BF14
:1018A0000C37BD465DF8047B7047000080B483B000
:1018B00000AF0346FB710C4A97F907305B0952F8F9
:1018C0002320FB7903F01F0322FA03F303F0010343
:1018D000002B14BF01230023DBB218460C37BD4692
:1018E0005DF8047B704700BF00E100E080B500AF09
:1018F0000020FFF7DBFF034683F00103DBB2002B80
:1019000003D00721002001F03DFA00BF80BD000098
:1019100080B582B000AF00237B60144B1B78002B96
:1019200002D085237B601BE0104B00229A600F4B96
:1019300000225A600D4B00221A610C4B0022DA6023
:10194000FFF7D4FF06F0B8FC034683F00103DBB2D7
:10195000002B02D00120FFF796FF044B01221A70E2
:101960007B6818460837BD4680BD00BF142800209C
:1019700080B485B000AF78607B681B68FB60FB6853
:10198000002B03D0FB681A687B681A60FB68184656
:101990001437BD465DF8047B7047000080B584B005
:1019A00000AF0346FB71FB79002B02D10B4BFB60B0
:1019B00001E00B4BFB60F868FFF7DAFFB860BB682B
:1019C000002B05D0BB685B68FA7910469847F2E7B0
:1019D00000BF00BF1037BD4680BD00BF1C280020DF
:1019E0002428002080B500AF4FF48070FFF737FF48
:1019F0000346002B0CD04FF48070FFF71AFF012034
:101A0000FFF708FF0D4B01225A700020FFF7C6FFB9
:101A10004FF48270FFF723FF0346002B0CD04FF4E6
:101A20008270FFF706FF0220FFF7F4FE034B01224E
:101A30009A700120FFF7B2FF00BF80BD142800207C
:101A400080B582B000AF78607B68002B02D10020A7
:101A5000FFF7A4FF00BF0837BD4680BD80B582B048
:101A600000AF0023FB71FB1D1846FFF7A5FC0C4BD4
:101A70001B7883F00103DBB2002B01D0FFF748FF96
:101A8000074BDB680133064AD360054B01229A708D
:101A9000FB791846FFF79BFC00BF0837BD4680BDA9
:101AA0001428002080B483B000AF0346FB71064ABF
:101AB000FB79012101FA03F3C2F8043500BF0C37AA
:101AC000BD465DF8047B704700F0014080B483B0F0
:101AD00000AF0346FB71064AFB79012101FA03F3CB
:101AE000C2F8083500BF0C37BD465DF8047B70476F
:101AF00000F0014080B485B000AF0346B9607A6061
:101B0000FB730949FB7BA233BA6841F83320064ACC
:101B1000FB7BA233DB0013447A685A6000BF1437A2
:101B2000BD465DF8047B704700F0014080B483B08F
:101B300000AF0346FB71FB79012202FA03F318465A
:101B40000C37BD465DF8047B7047000080B582B05D
:101B500000AF0346FB71FB791846FFF7E7FF02462B
:101B6000054B1340002B14BF01230023DBB21846A2
:101B70000837BD4680BD00BFFF3F0F0080B483B073
:101B800000AF78607A68064B1340002B0CBF01232E
:101B90000023DBB218460C37BD465DF8047B704766
:101BA00000C0F0FF80B582B000AF0346FB71FB7947
:101BB0001846FFF7BBFF03461846FFF7DFFF034653
:101BC00018460837BD4680BD80B582B000AF0346D9
:101BD000FB71FB791846FFF7A9FF0246054B1B680E
:101BE0001340002B14BF01230023DBB21846083733
:101BF000BD4680BD2C28002080B582B000AF0346D2
:101C0000FB71FB791846FFF791FF0246044B1B68F6
:101C10001343034A136000BF0837BD4680BD00BFB1
:101C20002C28002080B483B000AF094B1B78002B18
:101C300005D1074B01221A7000237B6001E0852348
:101C40007B607B6818460C37BD465DF8047B7047A7
:101C50002828002080B586B000AF786000237B6123
:101C60000023FB6004237B61224BFB600023FB7499
:101C700035E00023FB7207F10B031846FFF79CFBCE
:101C8000FB7C1846FFF752FF0246FB681340002B0F
:101C900012D0FB7C1846FFF797FF034683F0010341
:101CA000DBB2002B08D0FB7C1846FFF7A5FF7B6852
:101CB000FA7C1A7000237B61FB7A1846FFF787FBDA
:101CC0007B69002B0FD0FB7C1846FFF72FFF0346E4
:101CD000DB43FA681340FB60FB7C0133FB74FB6859
:101CE000002BC6D100E000BF7B6918461837BD46FF
:101CF00080BD00BFFF3F0F0080B586B000AF034638
:101D0000B9607A60FB73BB68002B01D10E2327E01A
:101D10007B68002B01D10E2322E000237B61FB7B3B
:101D20001846FFF713FF034683F00103DBB2002BD5
:101D300002D007237B6112E0FB7B1846FFF744FFCC
:101D4000034683F00103DBB2002B02D008237B6142
:101D500005E0FB7B7A68B9681846FFF7CBFE7B6924
:101D600018461837BD4680BD80B584B000AF034625
:101D7000FB710023FB60FB791846FFF713FF034656
:101D800083F00103DBB2002B02D00723FB6017E0D6
:101D9000FB791846FFF7DAFE0346002B0CD0FB79DF
:101DA0001846FFF711FF034683F00103DBB2002B57
:101DB00002D00823FB6003E0FB791846FFF772FEB0
:101DC000FB6818461037BD4680BD80B584B000AFB3
:101DD0000346FB710023FB60FB791846FFF7E2FE28
:101DE000034683F00103DBB2002B02D00723FB6024
:101DF00019E0FB791846FFF7A9FE0346002B0CD02B
:101E0000FB791846FFF7E0FE034683F00103DBB2DF
:101E1000002B02D00823FB6005E0FB791846FFF792
:101E200055FE0023FB60FB6818461037BD4680BD99
:101E300080B483B000AF78600B46FB70FB787A68A3
:101E4000134401221A6000BF0C37BD465DF8047BC5
:101E5000704780B485B000AF78600B467B807B888C
:101E60007A68134400221A607B887A6813441B68DE
:101E7000FB60FB6800BF1437BD465DF8047B70470C
:101E800080B483B000AF78600B467B807B887A6833
:101E900013441B68002B14BF01230023DBB2184638
:101EA0000C37BD465DF8047B704780B483B000AF4B
:101EB000786039607B68D3F800223B681A437B68FE
:101EC000C3F8002200BF0C37BD465DF8047B7047A5
:101ED00080B483B000AF786039607B68D3F80022AB
:101EE0003B68DB431A407B68C3F8002200BF0C3715
:101EF000BD465DF8047B704780B483B000AF786066
:101F000039607B683A68C3F8042300BF0C37BD46CC
:101F10005DF8047B704780B483B000AF78603960AF
:101F20007B683A68C3F8082300BF0C37BD465DF8EC
:101F3000047B704780B483B000AF786039607B6801
:101F4000D3F804233B681340002B14BF0123002364
:101F5000DBB218460C37BD465DF8047B704780B491
:101F600083B000AF78600B46FB707B68D3F8043514
:101F700023F00302FB7803F003031A437B68C3F8E2
:101F8000042500BF0C37BD465DF8047B704780B464
:101F900083B000AF78600B46FB707B68D3F80835E0
:101FA00023F00302FB7803F003031A437B68C3F8B2
:101FB000082500BF0C37BD465DF8047B704780B430
:101FC00083B000AF78600B46FB707B68D3F81035A8
:101FD00023F00F02FB7803F00F031A437B68C3F86A
:101FE000102500BF0C37BD465DF8047B704780B4F8
:101FF00085B000AFF8600B467A60FB72FA7AFB6836
:1020000002F5A872796843F8221000BF1437BD4664
:102010005DF8047B704780B483B000AF78607B6864
:102020009BB250339BB29B009BB218460C37BD4607
:102030005DF8047B704780B483B000AF78604FF4E4
:1020400080327B6802FA03F318460C37BD465DF810
:10205000047B704780B485B000AF78607B681B0B51
:10206000FB7397F90F3018461437BD465DF8047BB3
:102070007047000090B589B000AFF860B9607A6031
:10208000FB681B791A4613465B0013449B002F4ADA
:102090001344BB61BB691B7A002B03D008237B610F
:1020A0007B694EE07B68002B03D107237B617B6952
:1020B00047E0BB697A681A60BB685A68BB695A60B6
:1020C0000023FB770DE0FB681C68FB7F1846FFF7D9
:1020D000A2FF034619462046FFF7BBFEFB7F0133F4
:1020E000FB77FB685B79FA7F9A42ECD3FB681B684D
:1020F0001846FFF7AFFF03461A46BB68DB78194660
:10210000104600F03FFEFB681A68BB685B78194612
:102110001046FFF724FFFB681A68BB689B781946D6
:102120001046FFF734FFFB681A68BB681B78194636
:102130001046FFF744FFBB6901221A7200237B613E
:102140007B6918462437BD4690BD00BF302800206B
:1021500080B582B000AF78607B681B6800211846AC
:10216000FFF766FE7B681B791946064A0B465B0043
:102170000B449B001344083302221A7000BF083737
:10218000BD4680BD3028002080B582B000AF7860A9
:102190007B681B6810211846FFF74AFE7B681B7995
:1021A0001946064A0B465B000B449B001344083358
:1021B00001221A7000BF0837BD4680BD30280020BC
:1021C00080B586B000AFF8607A601A460B46FB72A5
:1021D0001346BB72FB7A1846FFF72DFF7861BB7A76
:1021E000002B06D0FB681B6879691846FFF784FE50
:1021F00005E0FB681B6879691846FFF78CFEFB68F1
:102200001B68F97A7A681846FFF7F1FE00BF1837A5
:10221000BD4680BD80B584B000AFF8607A601A46D4
:102220000B46FB7213463B81FB681868FB7A4FF440
:1022300080729A40FB7A012101FA03F31343194695
:10224000FFF746FEFB681B683A8911461846FFF700
:102250002CFE3B7EF97A7A68F868FFF7B1FF00BF81
:102260001037BD4680BD80B586B000AFF860B9605C
:102270001346FB710023FB7528E0FB7D1846FFF732
:10228000CAFE0346BB82FB7D1846FFF7D4FE3861C9
:10229000BB8A1946F868FFF7F3FD0346002B12D0FE
:1022A0003969F868FFF746FE0346002B0BD0BB8A5E
:1022B0001946F868FFF7CDFDBB681B68BA6851681E
:1022C000BA8A10469847FB7D0133FB75FA7DFB798E
:1022D0009A42D2D300BF1837BD4680BD80B500AF4B
:1022E000042203490348FFF7BEFF00BF80BD00BFC3
:1022F000302800200090004080B483B000AF034637
:10230000FB71FB7903F1804303F5E04301221A607E
:1023100000BF0C37BD465DF8047B704780B483B0C6
:1023200000AF0346FB71FB7903F1804303F5E04303
:1023300018460C37BD465DF8047B704780B483B007
:1023400000AF0346FB80FB8803F1804303F5E043C5
:102350001B68002B14BF01230023DBB218460C3787
:10236000BD465DF8047B704780B485B000AF03467E
:10237000FB80FB8803F1804303F5E04300221A60F1
:10238000FB8803F1804303F5E0431B68FB60FB68B7
:1023900000BF1437BD465DF8047B704780B483B03E
:1023A00000AF0346FB710B46BB7113467B710A49B4
:1023B000FB797A7951331B010B4404331A600649C7
:1023C000FB79BA7951331B010B441A6000BF0C37FB
:1023D000BD465DF8047B70470070004080B483B058
:1023E00000AF7860044A7B68C2F8043300BF0C3742
:1023F000BD465DF8047B70470070004080B483B038
:1024000000AF7860044A7B68C2F8083300BF0C371D
:10241000BD465DF8047B70470070004080B400AF9B
:10242000044B0122C3F8002500BFBD465DF8047BC4
:10243000704700BF0070004080B483B000AF786088
:102440003960074A7B68C2F82C36054A3B68C2F8F7
:10245000303600BF0C37BD465DF8047B704700BFC7
:102460000070004080B483B000AF0346FB71054AA2
:10247000FB79C2F8F03500BF0C37BD465DF8047B30
:10248000704700BF0070004080B483B000AF0346C7
:10249000FB71054AFB79C2F8F43500BF0C37BD4625
:1024A0005DF8047B704700BF0070004080B58CB0C1
:1024B00000AF4FF48270FFF741FF0346002B45D079
:1024C0004FF48270FFF750FF874B93F82E3083F064
:1024D0000103DBB2002B04D1834B93F82F30002B88
:1024E00034D000233B76804B5B68FB617E4B1B89BD
:1024F0009BB23B847C4BDB68002B03D17A4B0022E0
:102500001A7419E0784B1A8B774B5A83764BDB6839
:10251000754A5360744B1A8B734B1A81724B0022AD
:10252000DA60714B93F82E3083F00103DBB2002B9D
:1025300002D00020FFF7E0FE6B4B1B6807F118028A
:1025400010469847684B002283F82F20664B93F87B
:102550002E30002B62D04FF48070FFF7EFFE034661
:10256000002B5BD04FF48070FFF7FEFE5E4B5A8B62
:102570005D4B93F82D309BB29A421CD95A4B5A8B23
:10258000594B93F82D309BB2D31A9AB2564B5A83BB
:10259000554B5A68544B1B899BB21946524B5B8B67
:1025A000CB1A5B001A44504B93F82D301946104655
:1025B000FFF742FF2BE04C4B5A8B4B4B93F82D30DF
:1025C0009BB29A4214D1484BDB68002B10D0464B8B
:1025D000012283F82F20444B00225A83424BDA68B1
:1025E000414B93F82D3019461046FFF725FF0EE0BA
:1025F0003D4B5A8B3C4B93F82D309BB29A4206D1FF
:10260000394B012283F82F20374B00225A834FF495
:102610008270FFF7A9FE0420FFF76EFE4FF488706A
:10262000FFF78CFE0346002B0ED04FF48870FFF7A7
:102630009BFE2D4B00221A7402233B732A4B1B680E
:1026400007F10C02104698474FF48A70FFF776FEA8
:102650000346002B07D04FF48A70FFF785FE224B0C
:1026600000221A743CE0204B5B69FB6235E0FB6A98
:10267000B3FA83F3BB624FF00042BB6A22FA03F362
:10268000DB43FA6A1340FB62BB6A9BB246339BB2E0
:102690009B00FB84FB8C1846FFF750FE0346002B83
:1026A0001BD0FB8C1846FFF75FFE01233B70FB8CB1
:1026B000A3F58C73DB08DBB23B71FB8CA3F58C7349
:1026C00003F00403002B0CBF01230023DBB27B715A
:1026D000054B1B683A4610469847FB6A002BC6D14B
:1026E00000BF3037BD4680BD3C28002080B584B097
:1026F00000AF786039602D4B93F82C30002B03D05D
:102700000823FB60FB684DE03B68002B03D10723E7
:10271000FB60FB6846E07B68002B01D1244B7B60AB
:10272000224A3B6813607B681B781846FFF79AFEC5
:102730007B685B781846FFF7A7FE7B68DA781B4B4F
:1027400083F82E20194B012283F82C20174B0022EE
:102750001A74164B002283F82D20144B00225A6164
:10276000124B002283F82F206FF00040FFF746FE47
:102770004FF48270FFF7F8FD7B689B7819460720BD
:1027800000F000FB0220FFF729FE084B93F82E30E3
:10279000002B02D00120FFF721FEFFF73FFE0023B0
:1027A000FB60FB6818461037BD4680BD3C28002002
:1027B0000097020080B584B000AF03463960FB711A
:1027C0001F4B1B7CDBB2002B03D01123FB60FB688B
:1027D00031E0FB791A4A0C335B0013441B79002B60
:1027E00007D1174B93F82D300133DAB2144B83F82D
:1027F0002D20FB793A68D179114A0C335B001344E0
:102800000A461A71FB793A68117A0D4A0C335B005B
:1028100013440A465A71FB793968184600F02EF9BC
:102820003B68D9793B681A7AFB791846FFF7B6FD01
:102830000023FB60FB6818461037BD4680BD00BF13
:102840003C28002080B500AF064B93F82E30002BBB
:1028500001D0002300E004231846FFF75FFD034684
:10286000184680BD3C28002080B584B000AF786059
:102870000B467B801220FFF7C1FD3B4B1B7CDBB27C
:10288000022B06D11220FFF7A9FD1123FB60FB6884
:1028900066E0354B1B7CDBB2012B33D1324BDB685E
:1028A000002B06D00220FFF799FD1123FB60FB6887
:1028B00056E02D4A7B68D3602B4A7B8813832A4BD2
:1028C00093F82E3083F00103DBB2002B13D000BF4E
:1028D0004FF48070FFF732FD034683F00103DBB253
:1028E000002BF5D14FF48070FFF73EFD7B88194631
:1028F0007868FFF7A1FD0220FFF770FD0023FB6061
:10290000FB682DE00220FFF769FD174B01221A74C6
:10291000154A7B685360144A7B881381124B00224E
:10292000DA60114B93F82E30002B0AD00E4A7B88C8
:1029300053830D4B93F82D3019467868FFF77CFDD3
:102940000BE07B8819467868FFF776FD4FF48070BE
:10295000FFF70AFD0020FFF7CFFC0023FB60FB68B8
:1029600018461037BD4680BD3C28002080B582B097
:1029700000AF0E4B1B7CDBB2002B03D011237B601E
:102980007B680FE0094B02221A744FF48870FFF73E
:10299000EBFC1020FFF722FD0C20FFF7ADFC00231D
:1029A0007B607B6818460837BD4680BD3C28002008
:1029B00080B400AF064B1B7CDBB2002B14BF01239D
:1029C0000023DBB21846BD465DF8047B704700BFAC
:1029D0003C28002080B582B000AFFFF7E9FF034636
:1029E000002B24D04FF48A70FFF7BEFC0820FFF7BD
:1029F00083FC114B1B7CDBB2022B03D10E4B00225C
:102A00001A740EE042F210737B6002E07B68013BB7
:102A10007B60094B1B7CDBB2002B02D07B68002B58
:102A2000F4D1054B00225A60034B0022DA6000BF4C
:102A30000837BD4680BD00BF3C28002080B483B06D
:102A400000AF0346FB710B46BB7113467B710A490D
:102A5000FB797A7951331B010B4404331A60064920
:102A6000FB79BA7951331B010B441A6000BF0C3754
:102A7000BD465DF8047B70470070004080B582B0B1
:102A800000AF03463960FB711D48FB793A68127844
:102A900002F003013A685278120102F03002114349
:102AA0003A689278120202F4E06211433A68D278EE
:102AB000120302F4805211433A681279120402F4AC
:102AC000E02211433A685279120502F48012114350
:102AD0003A689279120602F080720A431B0103449D
:102AE00003F5A3631A603B68D9793B681A7AFB79CE
:102AF0001846FFF7A3FF00BF0837BD4680BD00BFE3
:102B00000070004080B483B000AF786039607B68AB
:102B10003A68C3F8082300BF0C37BD465DF8047B54
:102B2000704780B483B000AF786039607B68D3F8B9
:102B300004233B68134018460C37BD465DF8047B00
:102B4000704780B483B000AF78600B467B807B8891
:102B50007A6813441B6818460C37BD465DF8047B41
:102B6000704780B485B000AF78600B467B807B886F
:102B70007A68134400221A607B887A6813441B68C1
:102B8000FB60FB6800BF1437BD465DF8047B7047EF
:102B900080B483B000AF786039607B683A68C3F86E
:102BA000482300BF0C37BD465DF8047B704700002A
:102BB00080B588B000AFF860B9607A604FF48033B8
:102BC000BB614FF4A073FB820023FB612CE0B96969
:102BD000F868FFF7A6FF0346002B1CD0FB8A1946B6
:102BE000F868FFF7AEFF0346002B14D0B969F86808
:102BF000FFF7CEFFB969F868FFF784FFFB8A194633
:102C0000F868FFF7AEFF294ABB6852F82330FA692B
:102C1000D2B210469847BB695B00BB61FB8A0433A4
:102C2000FB82FB690133FB61FA697B689A42CED370
:102C30004FF48073FB820121F868FFF772FF0346AF
:102C4000002B12D0FB8A1946F868FFF77AFF03467B
:102C5000002B0AD0FB8A1946F868FFF782FF134A57
:102C6000BB6852F82330042098474FF48273FB82EC
:102C70000221F868FFF755FF0346002B12D0FB8AAC
:102C80001946F868FFF75DFF0346002B0AD0FB8A60
:102C90001946F868FFF765FF044ABB6852F823300D
:102CA0000520984700BF2037BD4680BD6C28002016
:102CB00080B500AF042200210248FFF779FF00BF72
:102CC00080BD00BF0040024080B483B000AF034627
:102CD000FB71094997F907305B09FA7902F01F0285
:102CE000012000FA02F241F8232000BF0C37BD4654
:102CF0005DF8047B704700BF00E100E080B483B062
:102D000000AF0346FB71094997F907305B09FA796F
:102D100002F01F02012000FA02F2603341F8232082
:102D200000BF0C37BD465DF8047B704700E100E052
:102D300080B483B000AF03463960FB7197F9073068
:102D4000002B0BDA0D49FB7903F00F03043B3A68C3
:102D5000D2B25201D2B20B441A7609E0084997F96F
:102D600007303A68D2B25201D2B20B4483F8002342
:102D700000BF0C37BD465DF8047B704700ED00E0F6
:102D800000E100E080B582B000AF03460A46FB7167
:102D90001346BB71BA7997F9073011461846FFF709
:102DA000C7FF97F907301846FFF7A8FF97F90730D4
:102DB0001846FFF789FF00BF0837BD4680BD80B5C4
:102DC00082B000AF0346FB80FB88184600F024F871
:102DD00003461B68012B0CBF01230023DBB21846FE
:102DE0000837BD4680BD80B584B000AF0346FB8088
:102DF000FB88184600F010F803461A4600231360BB
:102E0000FB88184600F008F803461B68FB60FB6867
:102E100000BF1037BD4680BD80B483B000AF03460D
:102E2000FB80FB8803F1804303F5C04318460C3751
:102E3000BD465DF8047B704780B483B000AF786016
:102E4000044A7B68C2F8043300BF0C37BD465DF806
:102E5000047B70470060004080B483B000AF7860AE
:102E6000054BD3F804237B68134018460C37BD4646
:102E70005DF8047B704700BF0060004080B483B001
:102E800000AF78600949094A7B6803F5A27352F8DC
:102E9000233043F001027B6803F5A27341F823203D
:102EA00000BF0C37BD465DF8047B704700600040F2
:102EB00080B485B000AFF860B9601346FB71164965
:102EC000154AFB6803F5A27352F8233023F4473305
:102ED00023F44073FA6802F5A27241F822300E48DA
:102EE0000D4AFB6803F5A27352F82320BB681B024E
:102EF00003F4F851FB791B0403F440330B431A43EA
:102F0000FB6803F5A27340F8232000BF1437BD46C9
:102F10005DF8047B704700BF0060004080B483B060
:102F200000AF7860074A7B6803F5A27352F823303C
:102F30001B0A03F01F0318460C37BD465DF8047BDF
:102F4000704700BF0060004080B483B000AF78607D
:102F5000074A7B6803F5A27352F823301B0C03F079
:102F60000303DBB218460C37BD465DF8047B70479F
:102F70000060004080B485B000AFF860B9601146D1
:102F80001A460B46FB711346BB711849174AFB687A
:102F900003F5A27352F8233023F4981323F4F85363
:102FA000FA6802F5A27241F8223010480F4AFB6815
:102FB00003F5A27352F82320BB681B0203F4F851F7
:102FC000FB791B0403F440331943BB791B0503F45D
:102FD00080130B431A43FB6803F5A27340F82320C8
:102FE00000BF1437BD465DF8047B704700600040A9
:102FF00080B483B000AF78604FF0A04318460C3720
:10300000BD465DF8047B704780B584B000AF786042
:10301000084611461A460346FB700B46BB70134622
:103020007B703B1D1846FFF7E3FFF8607A68F9787C
:10303000BB785B0019437B789B0019433B7E1B02E6
:1030400019433B7F1B041943FB6802F5E07243F808
:10305000221000BF1037BD4680BD80B584B002AFDE
:1030600078600023019300230093002301220121B3
:103070007868FFF7C9FF00BF0837BD4680BD80B53F
:1030800084B002AF78600B46FB70FA78002301939E
:10309000002300931346002200217868FFF7B4FF55
:1030A00000BF0837BD4680BD80B584B000AF7860F2
:1030B0003B1D1846FFF79CFFF8607A68FB6802F535
:1030C000E07253F8223023F00203BB607A68FB6899
:1030D00002F5E072B96843F8221000BF1037BD4610
:1030E00080BD80B584B000AF78600B46FB703B1D9F
:1030F0001846FFF77DFFF8607A687968FB6801F58C
:10310000E07153F8213023F44031FB6802F5E0729E
:1031100043F822107A687968FB6801F5E07153F88A
:103120002130F97809041943FB6802F5E07243F88D
:10313000221000BF1037BD4680BD80B584B000AFFF
:1031400078603B1D1846FFF753FFF8607B6801224B
:1031500002FA03F31946F86800F053F800BF10377D
:10316000BD4680BD80B584B000AF78603B1D184679
:10317000FFF73EFFF8607B68012202FA03F319466D
:10318000F86800F04DF800BF1037BD4680BD80B52F
:1031900084B000AF78603B1D1846FFF729FFF86048
:1031A000F86800F021F802467B6822FA03F303F086
:1031B000010318461037BD4680BD80B584B000AF0E
:1031C00078603B1D1846FFF713FFF8607A68FB68CC
:1031D00002F5E07253F822301B0C03F00303DBB25C
:1031E00018461037BD4680BD80B483B000AF78600C
:1031F0007B68D3F8103518460C37BD465DF8047B64
:10320000704780B483B000AF786039607B683A68FB
:10321000C3F8082500BF0C37BD465DF8047B704736
:1032200080B483B000AF786039607B683A68C3F8D7
:103230000C2500BF0C37BD465DF8047B704780B598
:1032400086B000AFF860B9607A604FF0A0433B6190
:10325000FB687B6112E07B699B0007F11802134455
:1032600053F8083C1846FFF7BFFF02467B681A6018
:103270007B6804337B607B6901337B61FA68BB68E0
:103280001A447B699A42E6D800BF1837BD4680BD14
:1032900080B485B000AF786039603B68FB607B68C4
:1032A000DB08BB607B6803F007037B6001227B685F
:1032B00002FA03F3F968BA680A4412781340184610
:1032C0001437BD465DF8047B704780B485B000AF0D
:1032D000786039603B68FB607B68DB08BB607B68BB
:1032E00003F007037B60FA68BB681344F968BA68A7
:1032F0000A44127851B201207A6800FA02F252B2FE
:103300000A4352B2D2B21A7000BF1437BD465DF8FC
:10331000047B704780B483B000AF7860084A7B6854
:103320001344303393F90030B3F1FF3F14BF01234E
:103330000023DBB218460C37BD465DF8047B7047AE
:103340007028002080B483B000AF78600D4A7B689D
:103350001344303393F90030002B09DB094A7B68B2
:103360001344303393F90030072B01DC012300E0D4
:10337000002303F00103DBB218460C37BD465DF8AD
:10338000047B70477028002080B483B000AF786061
:10339000084A7B681344303393F90030072BCCBFC5
:1033A00001230023DBB218460C37BD465DF8047BD1
:1033B000704700BF7028002080B483B000AF7860F1
:1033C000074A7B681344303393F90030DB43DBB2A8
:1033D000DB09DBB218460C37BD465DF8047B70474D
:1033E0007028002080B485B000AFF860B9607A60C2
:1033F000FB70BB6859B2104AFB68134430330A466D
:103400001A700D49BB687A6841F82320FB7883F075
:103410000103DBB2002B08D0BB68083BFA6851B24D
:10342000054A13440A4683F8502000BF1437BD46AE
:103430005DF8047B704700BF7028002080B483B023
:1034400000AF7860054A7B6813443033FE221A705F
:1034500000BF0C37BD465DF8047B70477028002024
:1034600080B483B000AF7860054A7B681344303382
:10347000FF221A7000BF0C37BD465DF8047B704711
:103480007028002080B483B000AF7860054A7B6864
:103490001344303393F9003018460C37BD465DF8BD
:1034A000047B70477028002080B483B000AF786040
:1034B000044A7B6852F8233018460C37BD465DF845
:1034C000047B70477028002080B588B000AFF8609A
:1034D000B9601346FB71FF23FB77FB79002B01D00A
:1034E000002300E008237B61FB79002B01D0082337
:1034F00000E00C233B617B69BB6112E00E4ABB69B3
:1035000052F82330B3F1FF3F08D1FB79BA68B969AB
:10351000F868FFF767FFBB69FB7706E0BB6901331B
:10352000BB61BA693B699A42E8D397F91F301846E4
:103530002037BD4680BD00BF7028002080B483B016
:1035400000AF0346FB71FB790A4A4FF0FF3142F8A6
:103550002310FB79072B06D9FB79083B054A134456
:10356000FF2283F8502000BF0C37BD465DF8047B76
:10357000704700BF7028002080B582B000AF1D4B9F
:1035800093F85430002B03D008233B603B682CE0B9
:103590000023FB7106E0FB791846FFF761FFFB791A
:1035A0000133FB71FB791F2BF5D90023FB7106E07A
:1035B000FB791846FFF7C2FFFB790133FB71FB79FA
:1035C0000B2BF5D907210620FFF7DCFB4FF4BE706B
:1035D000FFF709FC4FF00040FFF72EFC054B0122DE
:1035E00083F8542000233B603B6818460837BD46EB
:1035F00080BD00BF7028002080B400AF064B93F858
:103600005430002B14BF01230023DBB21846BD4603
:103610005DF8047B704700BF7028002080B584B03F
:1036200000AF786039600023FB607868FFF772FEB6
:103630000346002B02D00823FB6030E03B689B78F8
:10364000002B18D0012200217868FFF73DFF0346C8
:10365000FB7297F90B30B3F1FF3F09D097F90B00DC
:103660003B681A783B685B787968FFF783FC05E074
:103670000423FB6002E07868FFF7E0FEFB68002BA4
:103680000DD13B685B78012B03D17868FFF755FDBE
:1036900002E07868FFF766FD7868FFF7DEFCFB68FC
:1036A00018461037BD4680BD80B582B000AF786047
:1036B0007868FFF742FD00BF0837BD4680BD80B582
:1036C00082B000AF78607868FFF74CFD00BF083724
:1036D000BD4680BD80B586B000AFF860B9607A6045
:1036E00000237B61F868FFF767FE0346002B02D0DA
:1036F00008237B6140E0BB68DB781A467968F8688C
:10370000FFF7E2FE0346FB7497F91330B3F1FF3F76
:1037100030D0BB689B78002B03D0F868FFF7C4FC5F
:1037200005E0BB685B781946F868FFF7A8FCBB6842
:10373000DB78002B08D097F91300BB681B781A467A
:10374000F968FFF7B5FB17E097F91330083B97F9D5
:103750001320083A0B490A4492F95010BA681278BB
:10376000920152B20A4351B2064A13440A4683F800
:10377000502001E004237B617B6918461837BD4661
:1037800080BD00BF7028002080B586B000AF786093
:103790000B46FB707868FFF7F7FD0346002B27D038
:1037A0007868FFF76FFE0346083B2A4A134493F9F3
:1037B0005030BB75BB7D9B097B757B7D032B0AD18C
:1037C0007868FFF7E4FC0346002B01D0032300E0F8
:1037D0000223FB7506E07B7D012B01D1022300E073
:1037E0000323FB75FB7D19467868FFF77AFC2DE013
:1037F0007868FFF7A7FD0346002B27D07868FFF70E
:1038000041FE03463B613B699BB240339BB29B0048
:10381000FB813B691846FFF731FBFB891846FFF730
:10382000E2FAFB78002B11D07868FFF72BFE0346F5
:103830001846FFF739FEB860BB68002B06D001229E
:103840003B6902FA03F31846FFF7F6FA00BF183790
:10385000BD4680BD7028002080B582B000AF786082
:103860007868FFF794FC0346002B14BF0123002364
:10387000DBB218460837BD4680BD000080B594B065
:1038800000AF0023FB640023FB604FF48073A7F8B4
:10389000463001233B640023BB6421E0B7F8463087
:1038A0001846FFF78CFA0346002B0ED0386CFFF752
:1038B000D3FA0346002B08D0B7F846301846FFF776
:1038C00092FAFA6C3B6C1343FB643B6C5B003B6409
:1038D000B7F846300433A7F84630BB6C0133BB64FD
:1038E000BB6C072BDAD94FF4BE70FFF768FA0346BA
:1038F000002B0ED04FF4BE70FFF775FAFB6C43F04F
:103900000043FB6407F10C031A4601210020FFF776
:1039100096FCFB6CDBB2002B29D001233B64002317
:10392000BB6421E03A6CFB6C1340002B16D0B86CE2
:10393000FFF7F4FA7863B86CFFF706FB034687F8E5
:103940003330B86CFFF7B0FDF862FB6A002B05D08E
:1039500097F83320FB6A1146786B98473B6C5B0005
:103960003B64BB6C0133BB64BB6C072BDAD9FB6CCB
:10397000002B80F2F180002387F83B300023BB60EE
:103980000023FB630BE0FB6B9B0007F15002134429
:103990004FF0FF3243F84C2CFB6B0133FB63FB6BA6
:1039A000002BF0D0002387F83B300023BB6474E089
:1039B0006B4ABB6C1344503393F9003087F82B30BB
:1039C00097F82B3023F0C0037B62654ABB6C13442D
:1039D000503393F90030B3F1FF3F5BD03B1D1946E4
:1039E000786AFFF755FC0346002B53D097F82B302D
:1039F0009B0987F82330786AFFF744FD0346184691
:103A0000FFF752FDF861FB69002B03D197F82330D3
:103A1000032B3FD197F82330032B05D107F108037F
:103A20001946786AFFF751FC786AFFF7C6FB034630
:103A3000FB7607F10C031946786AFFF729FC7861D9
:103A40007B69002B02D0FB7E022B05D07B69002B0B
:103A500020D1FB7E032B1DD197F82330032B10D1EF
:103A6000FB7E022B01D1032300E00223FB74FB7CCD
:103A70001946786AFFF735FB97F83B30013387F832
:103A80003B30FB69002B05D097F82320FB691146DA
:103A9000786A9847BB6C0133BB64BB6C032B87D936
:103AA00097F83B30002B52D0012387F83A303B4641
:103AB0001A4601210020FFF7C2FB0023FB6316E03A
:103AC000FB6B9B0007F15002134453F8502CFB6B27
:103AD0009B0007F150010B4453F8443C9A4203D039
:103AE000002387F83A3005E0FB6B0133FB63FB6B87
:103AF000002BE5D097F83A30002B03D0002387F84D
:103B00003B3024E00023FB631EE0FB6B9B0007F1CE
:103B10005002134453F8502CFB6B9B0007F15001EB
:103B20000B4443F8442CFB6B9B0007F150021344F9
:103B300053F8482CFB6B9B0007F150010B4443F8F2
:103B40004C2CFB6B0133FB63FB6B002BDDD097F838
:103B50003B30002B7FF426AF00BF5037BD4680BD01
:103B60007028002080B485B000AF78600B467B8061
:103B70007B887A68134400221A607B887A68134431
:103B80001B68FB60FB6800BF1437BD465DF8047B13
:103B9000704780B483B000AF78600B467B807B8831
:103BA0007A6813441B68002B14BF01230023DBB287
:103BB00018460C37BD465DF8047B704780B483B06F
:103BC00000AF786039607B68D3F804233B6813400A
:103BD000002B14BF01230023DBB218460C37BD466F
:103BE0005DF8047B704780B483B000AF78603960C3
:103BF0007B683A68C3F8082300BF0C37BD465DF800
:103C0000047B704780B485B000AF78607B68D3F8E0
:103C10008034FB607B68FA68C3F88024FB68184630
:103C20001437BD465DF8047B704780B483B000AFA5
:103C300078607B68D3F81835DBB218460C37BD4680
:103C40005DF8047B704780B483B000AF78600B46AA
:103C5000FB70FA787B68C3F81C2500BF0C37BD46A3
:103C60005DF8047B704780B483B000AF78600B468A
:103C7000FB70FB787A68134401221A6000BF0C378E
:103C8000BD465DF8047B704780B485B000AF7860B6
:103C90000B467B807B887A68134400221A607B88FD
:103CA0007A6813441B68FB60FB6800BF1437BD468D
:103CB0005DF8047B704780B483B000AF78600B463A
:103CC0007B807B887A6813441B68002B14BF012318
:103CD0000023DBB218460C37BD465DF8047B704705
:103CE00080B483B000AF786039607B68D3F800227D
:103CF0003B68DB431A407B68C3F8002200BF0C37E7
:103D0000BD465DF8047B704780B485B000AF786035
:103D10007B68D3F88034FB607B68FA68C3F8802442
:103D2000FB6818461437BD465DF8047B704780B4C5
:103D300083B000AF78607B68D3F84C3518460C37F9
:103D4000BD465DF8047B704780B483B000AF7860F7
:103D50007B68D3F83C3518460C37BD465DF8047BCC
:103D6000704780B584B000AF786039604FF48E71D1
:103D70007868FFF7F7FE3B689B683A68928A92B2D0
:103D800013441B78FB733B689B8A9BB201339AB246
:103D90003B689A82FB7B19467868FFF754FF00BFA7
:103DA0001037BD4680BD90B583B000AF78603960F4
:103DB0003B68DB7D002B08D14FF484717868FFF7F6
:103DC000D1FE7868FFF731FF16E04FF48471786810
:103DD000FFF7C8FE3B68DB683A68527ED2B29C1897
:103DE0007868FFF722FF034623703B685B7EDBB2F7
:103DF0000133DAB23B685A760C37BD4690BD80B5C8
:103E000088B000AFF8600B467A60FB7201233B7408
:103E1000FB7A3B767B687B61FB685B68FA681168BC
:103E200007F110021046984700BF2037BD4680BDFD
:103E300080B586B000AF78600B46FB7000233B7204
:103E4000FB783B747B689B68FB607B6800229A75FB
:103E50007B685B687A68116807F10802104698472A
:103E600000BF1837BD4680BD80B588B000AF786010
:103E700039604FF400717868FFF7A0FE0346002B0D
:103E800038D04FF492717868FFF783FE0346002B19
:103E900030D04FF492717868FFF764FE4FF40171EF
:103EA0007868FFF7A0FE3B689B7E83F00103DBB2DE
:103EB000002B03D004217868FFF7D5FE02233B7264
:103EC0007868FFF79FFE03467B613B68DB7D3B74B0
:103ED0003B68DB68FB603B680022DA753B680022C8
:103EE0001A763B685B683A68116807F10802104669
:103EF000984754E004217868FFF760FE0346002BE2
:103F00004DD04FF484717868FFF743FE0346002BD1
:103F100045D039687868FFF746FF3B68DA7D3B6833
:103F20005B7EDBB29A423AD13B681B7E002B1AD0F3
:103F30003B68DB68FB613B685B7EFB763B681A7E17
:103F40003B68DA753B681A693B68DA603B680022B7
:103F50001A763B6800225A76FB7EFA691946386861
:103F6000FFF74DFF1BE03B689B7E83F00103DBB254
:103F7000002B03D004217868FFF775FE4FF4017120
:103F80007868FFF730FE3B680022DA753B685B7E9D
:103F9000D9B23B68DB681A463868FFF730FF4FF448
:103FA0008E717868FFF7F5FD0346002B1BD03B6848
:103FB0009B8A9AB23B689B7D9BB29A4204D2396835
:103FC0007868FFF7CEFE0EE04FF48E717868FFF749
:103FD000C9FD3B689B7D002B05D03B689B7D194646
:103FE0003868FFF725FF4FF4A2717868FFF7D1FD1D
:103FF0000346002B1CD04FF4A2717868FFF7B2FD86
:104000003B689B7E002B03D000217868FFF72BFED6
:104010003B68DB7D002B0BD03B680022DA753B68E8
:104020005B7ED9B23B68DB681A463868FFF7E7FE6B
:1040300000BF2037BD4680BD80B588B000AF786036
:1040400039604FF492717868FFF735FE0346002B14
:1040500023D04FF492717868FFF716FE02233B726B
:104060007868FFF751FE03467B617868FFF76CFEC6
:104070000346DBB23B743B68DB68FB603B680022B5
:10408000DA753B6800221A763B685B683A6811680B
:1040900007F10802104698473DE04FF488717868B0
:1040A000FFF709FE0346002B35D04FF4887178687E
:1040B000FFF7EAFD7868FFF747FE0346FB773B68AA
:1040C000DB7DFA7F9A4226D13B681B7E002B18D0FD
:1040D0003B68DB68BB6120217868FFF701FE3B6825
:1040E0001A7E3B68DA753B681A693B68DA603B68A0
:1040F00000221A76FB7FBA6919463868FFF77FFEFF
:1041000009E03B680022DA753B68DA68FB7F1946F4
:104110003868FFF774FE4FF4A2717868FFF7CBFDA3
:104120000346002B16D04FF4A2717868FFF7ACFD60
:104130003B68DB7D002B0DD03B680022DA75786888
:10414000FFF702FE0346D9B23B68DB681A463868BF
:10415000FFF755FE4FF490717868FFF7ACFD03460A
:10416000002B11D04FF490717868FFF78DFD3B68FC
:104170009B7D002B08D07868FFF7D9FD0346DBB2A2
:1041800019463868FFF754FE00BF2037BD4680BD92
:1041900080B500AF074B1B7F002B04D005490648B4
:1041A000FFF74AFF03E003490348FFF75DFE00BF46
:1041B00080BD00BFC82800200020004080B483B02C
:1041C00000AF78604FF0A04318460C37BD465DF84D
:1041D000047B704780B584B000AF78600B46FB70FD
:1041E0003B1D1846FFF7EAFFF8607A687968FB68BC
:1041F00001F5E07153F8213023F44031FB6802F5FA
:10420000E07243F822107A687968FB6801F5E07182
:1042100053F82130F97809041943FB6802F5E0727C
:1042200043F8221000BF1037BD4680BD80B582B074
:1042300000AF78607868FDF795FA034618460837AE
:10424000BD4680BD80B586B000AF03460A46FB710F
:104250001346BB710023FB7500233B61FB791846B5
:10426000FDF7A4FA38613B69032B60D8BB79012BB9
:1042700004D0022B50D0002B32D058E034493A6998
:1042800013465B0013440B441B78FB7530493A69B5
:1042900013465B0013440B4401331B78002B11D0F1
:1042A0002C482D4B1A6813469B0013445B002B4A85
:1042B0001946FCF7AFFFF860FB68002B02D1274AD4
:1042C000FB79137022493A6913465B0013440B448F
:1042D00002331978224A3B6913440A461A7026E0D1
:1042E0001C4B1846FCF7CAFF1D4A3B69134419785A
:1042F00017483A6913465B001344034402331B78A2
:10430000994213D112493A6913465B0013440B4496
:1043100002331B78FB7509E00D493A6913465B00CF
:1043200013440B4401331B78FB7500E000BFFB7D99
:10433000002B08D00B4B1B68002B04D0094B1B68CB
:10434000FA7D1046984700BF1837BD4680BD00BFB4
:104350003829002044290020EC280020642900206E
:10436000682900203429002080B582B000AF786031
:104370007B681B7802211846FFF764FF00BF0837EF
:10438000BD4680BD80B584B000AF0346FB710023FD
:10439000FB600023BB60AE4B1B78002B04D0AC4B02
:1043A00000221A70FDF78AF9FB79172B00F2B08111
:1043B00001A252F823F000BF194402002544020074
:1043C0002544020087440200E9440200354502000A
:1043D00095450200B3450200C1450200DF450200D9
:1043E00003460200214602004546020065460200DF
:1043F0006546020065460200654602006546020009
:10440000BD460200C9460200DB460200ED4602003E
:104410000547020005470200FDF750F98D4AFB7978
:10442000137076E10020FDF701F90346002B0CD054
:104430000020FDF731F9FB79022B02D14FF4E16343
:1044400001E04FF47A63BB600AE00020FDF712F947
:10445000FB79022B01D1C82301E04FF4C873BB6084
:104460007C4AFB7913707C48BB687C4AA2FB03231F
:104470005B097B4A126802FB03F300221946FCF732
:10448000C9FEF86045E10020FDF7D0F80346002B97
:104490000CD00020FDF700F9FB79032B02D14FF47B
:1044A000487301E04FF47A63BB600AE00020FDF737
:1044B000E1F8FB79032B01D1C82301E04FF4C87365
:1044C000BB60644AFB7913706348BB68634AA2FB14
:1044D00003235B09624A126802FB03F300221946B8
:1044E000FCF798FEF86014E10020FDF79FF8034602
:1044F000002B06D00020FDF7CFF84FF47A63BB60A5
:1045000005E00020FDF7B6F84FF4C873BB60514AD0
:10451000FB7913705048BB68504AA2FB03235B0928
:104520004F4A126802FB03F300221946FCF772FEA1
:10453000F860EEE00020FDF779F80346002B0BD081
:104540000020FDF7A9F8FB79052B01D1C82301E074
:104550004FF47A63BB600AE00020FDF78BF8FB792B
:10456000052B01D1C82301E04FF4C873BB60394A61
:10457000FB7913703848BB68384AA2FB03235B09F8
:10458000374A126802FB03F300221946FCF742FE89
:10459000F860BEE00020FDF7B7F82E4AFB791370F3
:1045A0002D482F4B1B6800221946FCF733FEF8609C
:1045B000AFE00020FDF75EF8264AFB791370A8E013
:1045C000234B01221A700120FDF79EF82248244B4C
:1045D0001B6800221946FCF71DFEF86099E01C4B91
:1045E00001221A700120FDF78FF81B481C4B1A6836
:1045F00013469B00134400221946FCF70BFEF8609B
:1046000087E0134B01221A700120FDF77DF8124854
:10461000134B1B6800221946FCF7FCFDF86078E09C
:104620000B4B01221A700120FDF76EF80A480C4B63
:104630001A6813469B00134400221946FCF7EAFD52
:10464000F86066E0FDF74DF8024AFB79137060E010
:10465000E9280020E8280020F42800201F85EB51DD
:10466000EC2800202D4B1846FCF708FEF860FB797B
:10467000C3F11103BB60BB68002B1BD0FB68002B90
:1046800018D1BB68012B11D92448BB68C82202FB92
:1046900003F3234AA2FB03235B09224A126802FBAD
:1046A00003F300221946FCF7B5FDF8600220FCF781
:1046B000E1FF2EE00220FCF7EFFF2AE0FCF7FEFF0F
:1046C000194AFB79137024E0FCF7F8FF0020FCF78F
:1046D000D1FF154AFB7913701BE0FCF7EFFF0120B7
:1046E000FCF7C8FF104AFB79137012E0FCF7E6FFF5
:1046F0000020FCF7BFFF0120FCF7BCFF0A4AFB7952
:10470000137006E0FCF7EDFF074AFB79137000E039
:1047100000BFFB6818461037BD4680BD1429002035
:104720001F85EB51EC280020E828002080B582B0DE
:1047300000AF7860074B1B6803F00103002B04D027
:10474000054B1B781846FFF71DFE00BF0837BD4616
:1047500080BD00BFF0280020E828002080B582B08E
:1047600000AF78600220FCF7CFFF00BF0837BD46DE
:1047700080BD000080B584B000AF0346FB7100230C
:10478000FB60084B1B6803F00103002B04D0FB798E
:104790001846FFF7F7FDF860FB6818461037BD466E
:1047A00080BD00BFF028002080B586B000AFF86063
:1047B000B9607A6000237B612B4ABB6813602B4A87
:1047C000FB6813602A4A7B681360FB6803F00203EE
:1047D000002B2BD000233B6108E001220121386926
:1047E00000F056F878613B6901333B613B69032B6C
:1047F00002D87B69002BF0D07B69002B07D1BB6806
:104800005B081A4604211B48FBF7DAFD78617B69D7
:10481000002B02D1FBF73EFE78617B69002B05D1AE
:10482000154A00211548FCF7C1FC7861FB6803F0CC
:104830000103002B01D0FCF779FF7B69002B05D128
:104840000F4A00210F48FCF7B1FC78617B69002B0F
:1048500005D10D4A01210D48FCF7A8FC78617B6960
:1048600018461837BD4680BDEC280020F0280020EF
:104870003429002010970200694302000C970200BF
:104880002D470200049702005D47020008970200CE
:1048900080B485B000AF78600B46FB701346BB70E8
:1048A0000023FB607B68032B35D8BB78012B09D133
:1048B000FB78012B04D17B68DBB20E33DBB200E066
:1048C0000023BB70FB78012B04D0022B0BD0002BF4
:1048D00013D01CE014497A6813465B0013440B4460
:1048E000BA781A7019E010497A6813465B001344CD
:1048F0000B440133BA781A700FE00B497A681346FB
:104900005B0013440B440233BA781A7005E00723A6
:10491000FB6000BF01E00723FB60FB68184614370B
:10492000BD465DF8047B70473829002080B582B011
:1049300000AF78607868FCF75DFF034603211846F6
:10494000FFF748FC002318460837BD4680BD80B5F8
:1049500082B000AF012200210020FFF799FF7860AC
:104960007B68002B04D07B68072B01D07B681CE0A0
:10497000072202210120FFF78BFF78607B68002B64
:1049800004D07B68072B01D07B680EE00422022153
:104990000020FFF77DFF78607B68002B04D07B68E8
:1049A000072B01D07B6800E0002318460837BD467E
:1049B00080BD80B582B000AF012202210020FFF748
:1049C00067FF78607B68002B04D07B68072B01D0E1
:1049D0007B681CE0072202210120FFF759FF786065
:1049E0007B68002B04D07B68072B01D07B680EE02E
:1049F0000A2200210020FFF74BFF78607B68002B24
:104A000004D07B68072B01D07B6800E000231846A8
:104A10000837BD4680BD80B582B000AF7860012008
:104A2000FFF704FC0346002B03D07B6802221A70B8
:104A30000CE00020FFF7FAFB0346002B03D07B6855
:104A40000B221A7002E07B6800221A7000BF083740
:104A5000BD4680BD80B582B000AF0020FFF766FF85
:104A600078607B68002B04D07B68062B01D07B68C4
:104A70000CE00120FFF75AFF78607B68002B04D020
:104A80007B68062B01D07B6800E0002318460837BE
:104A9000BD4680BD80B584B000AF78607B681B8860
:104AA000102B02D0112B18D02FE01A4B1B68002BB3
:104AB0000DD1FFF74CFFF860FB68002B07D0164BB9
:104AC0001B68002B03D0144B1B68F8689847114BE8
:104AD0001B6801330F4A136017E00E4B1B68013B44
:104AE0000C4A13600B4B1B68002B0DD1FFF761FFC5
:104AF000F860FB68002B07D0074B1B68002B03D026
:104B0000054B1B68F868984700BF00BF1037BD46CB
:104B100080BD00BF702900206C29002080B584B0C2
:104B200000AF786039600023FB600A4A7B6813603D
:104B30003B68002B02D03868FFF76DFF064B1B68FF
:104B4000002B02D1FFF735FFF860FB6818461037DD
:104B5000BD4680BD6C2900207029002080B483B040
:104B600000AF0346FB71094997F907305B09FA79F1
:104B700002F01F02012000FA02F2603341F8232004
:104B800000BF0C37BD465DF8047B704700E100E0D4
:104B90003EDF704700BF184680B586B000AFF1EE2B
:104BA000103A7B607B6823F09F03BB60BB68E1EE3B
:104BB000103AF1EE103AFB602620FFF7CFFFFFF727
:104BC000E7FF78617B693B613B69002B02D0386964
:104BD000FBF782FC00BF1837BD4680BD80B500AF33
:104BE00000F0A8FE01F0A6F901F0BAF9FBF7F4F91C
:104BF000034683F00103DBB2002BF3D0FFF7CCFFB9
:104C0000F0E7A0DF704700BF1846A2DF704700BF83
:104C10001846A6DF704700BF184663DF704700BF25
:104C2000184680B483B000AF786039603B689A88DA
:104C30007B689A8100BF0C37BD465DF8047B7047E6
:104C400080B483B000AF786039607B684FF6FF7244
:104C50009A8100BF0C37BD465DF8047B704780B574
:104C600084B000AF786039603B680633FB60FB6856
:104C70001A887B68DB889A4213D1FB685B89022B18
:104C80000FD17B681B69002B0BD07B681B69FA680E
:104C9000127B002A14BF01220022D2B2114678688A
:104CA000984700BF1037BD4680BD80B592B000AFB9
:104CB0007860396007F12803032200211846FAF7CB
:104CC00047FC97F82830012262F3030387F8283065
:104CD00097F82830012262F3071387F8283097F8F5
:104CE0002930012262F3030387F8293097F829302D
:104CF000012262F3071387F8293097F82A3001223E
:104D000062F3420387F82A3007F12C031C220021AA
:104D10001846FAF71DFC97F82C3043F0020387F889
:104D20002C3097F82C306FF3C30387F82C3097F8AA
:104D30002C3043F0100387F82C3000233B63002312
:104D4000BB630023FB6307F128033B6400237B6400
:104D50007B689B7ABB7402233B8207F10C0303221E
:104D600000211846FAF7F4FB3B7B012262F30303B0
:104D70003B733B7B012262F307133B737B7B012276
:104D800062F303037B737B7B012262F307137B7364
:104D9000BB7B012262F34203BB73BB7B6FF3C30394
:104DA000BB73BB7B6FF30413BB73BB7B6FF300035D
