:100000000000012011270000392700003B270000D5
:100010003D2700003F2700004127000000000000AE
:100020000000000000000000000000004327000066
:100030004527000000000000472700004927000076
:10004000211700004B2700009D1E00004B270000D9
:100050004B2700004B270000352E00001919000027
:10006000D51D00004B2700004B2700004B27000048
:100070004B2700004B2700004B2700004B270000B8
:100080004B270000DD0C00004B2700004B27000031
:10009000A10D00004B2700004B2700004B2700005C
:1000A0004B2700004B2700004B2700004B27000088
:1000B0004B2700004B27000000000000000000005C
:1000C0004B2700004B2700004B2700004B27000068
:1000D0004B2700004B2700004B27000000000000CA
:1000E0000000000000000000000000000000000010
:1000F0000000000000000000000000000000000000
:1001000000000000000000000000000000000000EF
:1001100000000000000000000000000000000000DF
:1004000010B5054C237833B9044B13B10448AFF34E
:1004100000800123237010BDE001002000000000D7
:10042000DC4100000C4B43B10C480D4910B5AFF353
:1004300000800C48036823B910BD0A48036833B92B
:100440007047094B002BF7D0BDE810401847064B0A
:10045000002BF5D0184700BF00000000DC41000071
:10046000E4010020DC01002000000000154B002BFF
:1004700008BF134B9D46A3F5803A00218B460F46DB
:100480001348144A121A00F063F80F4B002B00D0E7
:1004900098470E4B002B00D0984700200021040005
:1004A0000D000D48002802D00C48AFF3008000F08A
:1004B0002BF82000290001F0A1FF00F011F800BF87
:1004C0000000080000000120000000000000000003
:1004D000E0010020F00A0020000000000000000001
:1004E00008B5074B044613B10021AFF30080054B5C
:1004F0001868836A03B19847204600F031F800BFBE
:10050000000000000440000070B50D4E0D4CA41B0F
:10051000A4100025A54209D10B4E0C4C03F066FD3A
:10052000A41BA4100025A54205D170BD56F82530A6
:1005300098470135EEE756F8253098470135F2E740
:10054000D4010020D4010020D4010020D8010020D3
:1005500002440346934200D1704703F8011BF9E7B8
:10056000FEE700BFF0B51746C7B01C46B9B106AEEE
:100570000B685F4A4FF48071304603F095F8011E16
:100580000ADB4C9B0D46062B00F2AF80DFE803F040
:1005900012323B4653627300002047B0F0BD4C9BC3
:1005A000062B00F2A080DFE803F004888D92797EAC
:1005B00083004C9D384603F0B3F84319FF2B0446E3
:1005C00040F28A80002CE7DB2C44B4F5807FE3D82E
:1005D0000A27002506AE22467119002001F0ACFF63
:1005E0000544241A08B9013F01D0002CF3D10120A1
:1005F00047B0F0BD7018C1F5807123683A4603F02A
:1006000053F80446DEE77018C1F58071626823680C
:1006100000923A4603F048F80446D3E77018C1F553
:100620008071A26823686468009401923A4603F0DE
:100630003BF80446C6E77018C1F58071E26823688C
:10064000A668646802928DE850003A4603F02CF8E0
:100650000446B7E77018C1F580712669E26823681F
:100660000396A668646802928DE850003A4603F04B
:100670001BF80446A6E77018C1F580716269266907
:1006800023680492E2680396A668646802928DE883
:1006900050003A4603F008F8044693E74FF480719F
:1006A00006A80025CAE74FF4807106A80025D4E704
:1006B0004FF4807106A80025E0E74FF4807106A88A
:1006C00000259AE74FF4807106A800259EE74FF4B5
:1006D000807106A80025A4E706AE394670192246A7
:1006E00002F0D6FF6EE7002472E700246CE700BF3B
:1006F000084000002DE9F04FC7B01D465398519BAC
:10070000034414469846002900F02081002D00F093
:1007100000810A2302934FF0000B06AF20264446C7
:1007200002990B465B4404933133FB18039307EBA8
:100730000B031A460193002964D0534203F00303CC
:100740008B4228BF0B46062900F2DA800B4601993E
:100750000A46012B02F8016B00F0D0800A46022BFA
:100760004E7002F1020200F0C980032B8E7001F17D
:10077000030200F0C380042BCE7001F1040200F0EC
:10078000BD800A46062B0E7102F1050240F0BE80C4
:100790004E718A1D9846029999422ED00298A0EB7C
:1007A0000309A9F1040100F1FF3E8908AEEB030E35
:1007B0000131BEF1020F4FEA810C12D95B444FF0B8
:1007C000203E012907EB030B47F803E005D002297F
:1007D000CBF804E001D0CBF808E0E1456244E04406
:1007E0000BD00299167008F10103994205D908F15E
:1007F00002008142567000D99670019B029A134400
:1008000001931A46039B059702F1330A274602F12A
:10081000030B544603F10109DDF844A10DE00BF888
:10082000036C0BF8026C0BF8016C0BF1030BA34586
:1008300009F8016C09F101092FD0AF42EFD9AA459F
:1008400056D9509B13F805800BF8016C4FEA28101D
:100850005FFA80FE092808F00F00D4BF0EF1300EB9
:100860000EF1370E092894BF303037300BF803EC07
:100870000BF8020C02F0ECFE40440BF1030B407845
:1008800010F0970F08BF4FF02E08A34509F8018C10
:1008900005F1010509F10109CFD1049B039903F189
:1008A000430A019B3C460D224FF00A0B059F0A7438
:1008B00081F811B0A14683F830604FF0000854462B
:1008C000224607EB0801002001F036FE8044241A7E
:1008D00010B9BBF1010B01D0002CF1D14D454C46B4
:1008E0004FF0000BFFF41CAF284647B0BDE8F08F77
:1008F000A5EB0A00529B13F80080A5E798464AE74B
:10090000002B7FF424AF019A984647E74FF0050883
:1009100041E706AF0B68124A38464FF4807102F087
:10092000C3FE0028E0DB0A2305463E18029320465A
:1009300002F0F6FEC22828BFC22083465A4621464E
:100940003046AB4402F0A4FE0025E7E61DB906AF31
:100950003E460295EBE702918B4606AFDEE600BF0E
:100960000840000070B5074D074E2B7813B133785F
:10097000834205D0044601F09BFE012334702B70A6
:10098000002070BDFD010020FC01002000487047E0
:100990006505000000487047F506000038B50020E6
:1009A000FFF7E0FF044668B9FFF7F0FF0546FFF7E1
:1009B000F1FF054BFF22C3F810541C605C60C3F8C4
:1009C00014049A60204638BD000200200120FFF781
:1009D000C9BF00BF2DE9F041224C074600200E465A
:1009E000A56800F06FFEA2686368D4F80080134425
:1009F0000133A3EB0803012B1BD8ABB1012100236A
:100A000061F301036FF38203052161F3C50308EA73
:100A10000202154904EB82026FF3891308F1010504
:100A200061F39F232560D3600020BDE8F04100F012
:100A300051BE08F101030020236000F04BFE0122AB
:100A4000002362F301036FF3820305EA080567F3ED
:100A5000C50304EB85046FF3891366F39F23E360FA
:100A6000BDE8F08100020020104000002DE9F047B1
:100A70002A4C8146002017461E468846A56800F08D
:100A800021FEA2686368D4F800A013440133A3EBED
:100A90000A03032B1BD8ABB10121002361F301032F
:100AA0006FF38203052161F3C5030AEA02021C48C1
:100AB00004EB82026FF389130AF1010160F39F23B3
:100AC0002160D3600020BDE8F04700F003BE0AF1CA
:100AD00003030020236000F0FDFD0122002362F3E8
:100AE00001030AF1020152446FF3820305EA0A0A84
:100AF0002A4069F3C50302200D4004EB8A0A04EB87
:100B0000820260F3891304EB850468F39F23CAF81B
:100B10000C30D760E660BDE8F08700BF000200201F
:100B2000104000002DE9F0434F4E716832688A4250
:100B30008BB078D0B76807EA0105023506EB85026D
:100B40000131546814F003030ED1C4F3891303EB8D
:100B500094530B4407EA0305023506EB8502591C42
:100B6000546814F00303F0D0022B2CD0C4F3831389
:100B7000C4F39522002B73D00DF1100C604601EBED
:100B8000030E07EA010506EB850501F10108F045B2
:100B9000E96840F8041B4146F3D10093C4F3C20056
:100BA0006346D6F810440021A04748B1C6F8048037
:100BB0003068B0EB080018BF01200BB0BDE8F0832F
:100BC000D6F80480F4E701F1010827EA080001EAF9
:100BD0000703013006EB830380004FEA94598145F7
:100BE000DA68C4F3891322D988B307EA0801C7B2C7
:100BF0000331A9EB0700DFF874E006EB8101C0B216
:100C00008DE882400390D6F814740021C4F3C2002A
:100C1000B847484520D006EB850560F38F146C601B
:100C2000D6F80480C4E700200BB0BDE8F08307EAE3
:100C30000800033006EB800000218DE801020391DB
:100C40000291D6F81474C4F3C200B847E1E78646AF
:100C50005FFA89F70549D3E7033008EB9008A5E769
:100C600088460DF1100C98E7000200200C020020CD
:100C700000B585B000230390194601AA44F2010093
:100C8000ADF80430029300F003F805B05DF804FB02
:100C900008B50E490120FFF79DFEFFF797FEFFF70D
:100CA00041FF0028FBD10A4B1B68DB0700D5FFDEA4
:100CB000BFF34F8F0749084BCA6802F4E062134341
:100CC000CB60BFF34F8F00BFFDE700BF1C400000AB
:100CD000F0ED00E000ED00E00400FA052DE9F84336
:100CE000274A284B0025C2F84051C2F84451C2F8A7
:100CF0004851C2F84C51C2F80051C2F804511B6867
:100D00001BB32149D2F804450A68204FA41A1A6877
:100D100024F07F44A242A84609D8197CDE69A41AAF
:100D20001544A1B91EB133461A68A242F5D9184933
:100D3000184A0B7812789A421BD01749174A41F883
:100D400023504FF48013C2F80031BDE8F883D3F884
:100D5000149083F810803A689B69484619462AB176
:100D600090470028DED0FFF783FFDBE71846C8472F
:100D7000D8E7531CDBB2022B08BF00230B70DCE763
:100D8000001001403806002034060020180600201C
:100D900031060020300600202806002000E100E097
:100DA0002DE9F04FA34AA44913780978A348994242
:100DB00089B0D0F800B000F0E5800133DBB2022B3F
:100DC00008BF002313709E4A52F823609B4A0BEB26
:100DD000060323F07F43136001230593994B93F897
:100DE0000090994BD3F800A0964B5C785B68039316
:100DF000944B9B780293954B1B7804938F4B002761
:100E00001B680693CC465546D646B84601973B46E6
:100E10000097A44523D00CEB4C020398029F10F8D6
:100E200032100CF1010C5FFA8CFCBC4508BF4FF08E
:100E3000000C022900EBC2027BD00329E9D1BEF1EC
:100E4000000FE6D0DEF81C208EF810309646002AFF
:100E5000F8D11546A4454FF001020092DBD1019B69
:100E6000009F002B40F0A380B8F1000F02D0734B1D
:100E7000069A1A600FB1744B1D60059B002B40F061
:100E8000C281BAEB0E0318BF01230593002500238E
:100E9000019304931F466D4BDFF8B4B11B780693A2
:100EA000664BD3F80080684B1B68009376464FF082
:100EB000010A35B36A68A9682B46ED69A2EB080000
:100EC00020F07F40584577D8014419605F609F60EB
:100ED00083F810A0DF61002E00F08E803068884219
:100EE00080F08280344603E0106888426DD2144658
:100EF000E269091A002AF7D11960DA61E361002D6D
:100F0000D8D1039909EB490309F10102CC4501EB62
:100F1000C3045FFA82F900F09D8011F83300029B50
:100F20004B4508BF4FF0000901286AD00123049304
:100F3000E8E75068BEF1000F3FF46BAF70457146B3
:100F400017D0009F02E0904205D01146CA69002ADE
:100F5000F9D100975DE7884200970BD0C26900681D
:100F6000CA61002A3FF455AF116801441160AE46D2
:100F70004FE77046DEF81C20964632B11546012236
:100F80000092EBE70026059628E702F1804202F581
:100F900088324FF00108C2F808807546CDF818E095
:100FA000CDF80080CDF80480CDF81080D6E7274B2F
:100FB0009DF810201A7057E7A8EB020222F07F423A
:100FC0008A4208D2891A196080E7401A10601960B5
:100FD000DA61E36193E71F605F609F6083F810A0B0
:100FE000DF614EB130680021411A31600093DE614B
:100FF0001E46012301935CE700931E4601230193E3
:1010000057E763681A7C0492002A7FF47BAFA268DA
:101010005A60E168996007902069D86064699C61B2
:10102000069C002C00F0EC80049A5A600494002284
:1010300044E700BF300600203106002034060020BF
:10104000280600201C060020380600202406002068
:10105000FEFF7F00049B002B40F0A681019B13B193
:10106000804B009A1A60764500F0C080002E00F098
:1010700007817D4A7D49D2F804050C783668A0EBDB
:10108000080323F07F430333002C50D1784CDFF862
:10109000E8E1784F4FF48035C2F84453C2F8045366
:1010A0004FF40035C4F88051256001241460DEF847
:1010B00000502F2200BF00BF00BF00BF00BF00BF15
:1010C00000BF00BFBD422FD000BF00BF00BF00BFA8
:1010D00000BF00BF00BF00BF00BF00BF00BF00BF18
:1010E00000BF00BF00BF00BF00BF00BF00BF00BF08
:1010F00000BF00BF00BF00BF00BF00BF00BF00BFF8
:1011000000BF00BF00BF00BF00BF00BF00BF00BFE7
:1011100000BF00BF00BF00BF00BF00BF00BF00BFD7
:1011200000BF00BF00BF00BF013AC3D10C709E4298
:101130002CBF08EB060343444B4923F07F43C1F81F
:101140004035D1F80425121A1B1A22F07F4223F0F1
:101150007F4303329A424DD9D1F80435464AC1F84B
:101160004035126843492F2300BF00BF00BF00BFB6
:1011700000BF00BF00BF00BF8A422FD000BF00BF2A
:1011800000BF00BF00BF00BF00BF00BF00BF00BF67
:1011900000BF00BF00BF00BF00BF00BF00BF00BF57
:1011A00000BF00BF00BF00BF00BF00BF00BF00BF47
:1011B00000BF00BF00BF00BF00BF00BF00BF00BF37
:1011C00000BF00BF00BF00BF00BF00BF00BF00BF27
:1011D00000BF00BF00BF00BF00BF00BF013BC3D1C5
:1011E000234B4FF40032C3F8002103E0059B002B92
:1011F0007FF43CAF214A0023137009B0BDE8F08FA3
:10120000079804905AE6174B002477462546214656
:1012100020461B68DDF814E0A7B13A68B24218D83E
:10122000FC683860B61A1144FB693CB10BEB010253
:1012300022F07F42FD61BC607A603D461F467446E5
:10124000002FEAD1BE46002C3FF421AE054A1360C0
:101250001DE6BE46002C40F0A480921BCEF8002074
:1012600015E600BF380600200010014025060020CA
:1012700000E100E00024F4006400002024060020C7
:101280004B4A4C4B4C4D4D484FF480314FF4003796
:101290000124C3F88070C2F848132F23C2F8081342
:1012A000546029681D4600BF00BF00BF00BF00BFDB
:1012B00000BF00BF00BF81422FD000BF00BF00BFF2
:1012C00000BF00BF00BF00BF00BF00BF00BF00BF26
:1012D00000BF00BF00BF00BF00BF00BF00BF00BF16
:1012E00000BF00BF00BF00BF00BF00BF00BF00BF06
:1012F00000BF00BF00BF00BF00BF00BF00BF00BFF6
:1013000000BF00BF00BF00BF00BF00BF00BF00BFE5
:1013100000BF00BF00BF00BF00BF013DC3D194604C
:10132000274A166000BF00BF00BF00BF00BF00BF5C
:1013300000BF00BF81422FD000BF00BF00BF00BF71
:1013400000BF00BF00BF00BF00BF00BF00BF00BFA5
:1013500000BF00BF00BF00BF00BF00BF00BF00BF95
:1013600000BF00BF00BF00BF00BF00BF00BF00BF85
:1013700000BF00BF00BF00BF00BF00BF00BF00BF75
:1013800000BF00BF00BF00BF00BF00BF00BF00BF65
:1013900000BF00BF00BF00BF013BC3D1094B1E709F
:1013A00028E709490B6058E7084B83F800C055E669
:1013B0000010014000E100E0640000200024F4007F
:1013C0003406002025060020380600201C060020D8
:1013D0002DE9F04712F0030402D00720BDE8F087A2
:1013E000002AFAD05F4D604EDFF88891DFF888C19F
:1013F0004FF4803E4FF400374FF00108C6F880707C
:10140000C5F848E32F27C5F808E3C5F80480D9F8E4
:1014100000E0B94600BF00BF00BF00BF00BF00BF73
:1014200000BF00BFE6452FD000BF00BF00BF00BF18
:1014300000BF00BF00BF00BF00BF00BF00BF00BFB4
:1014400000BF00BF00BF00BF00BF00BF00BF00BFA4
:1014500000BF00BF00BF00BF00BF00BF00BF00BF94
:1014600000BF00BF00BF00BF00BF00BF00BF00BF84
:1014700000BF00BF00BF00BF00BF00BF00BF00BF74
:1014800000BF00BF00BF00BFB9F10109C2D1C5F85C
:10149000088000BF00BF00BF00BF00BF00BF00BF8B
:1014A00000BFE6452FD000BF00BF00BF00BF00BF98
:1014B00000BF00BF00BF00BF00BF00BF00BF00BF34
:1014C00000BF00BF00BF00BF00BF00BF00BF00BF24
:1014D00000BF00BF00BF00BF00BF00BF00BF00BF14
:1014E00000BF00BF00BF00BF00BF00BF00BF00BF04
:1014F00000BF00BF00BF00BF00BF00BF00BF00BFF4
:1015000000BF00BF00BF013FC3D1DFF870E0DFF8CC
:1015100070A0164FDFF86C90DFF86C80DFF86CC0BD
:101520008EF80040CAF800304FF4801EE023B970F6
:101530003C707C70C9F8004088F800408CF800408E
:101540000B49C6F880E186F81433C6F800E0C5F808
:10155000080586F81133D5F804350B607A6020460B
:10156000BDE8F0870010014000E100E01C0600200B
:1015700034060020640000200024F400250600202A
:101580001806002038060020300600203106002012
:10159000074B5B6823B12AB120B10368187C18B1EE
:1015A000082070470720704759745A61704700BF80
:1015B0001C0600202DE9F041244C63682BB120B1BA
:1015C000042905D80720BDE8F0810820BDE8F08196
:1015D0004369002BF9D0437C0546012B4FF00000F6
:1015E0000CBF8846804617460E4600F06BF86378BD
:1015F000A07821785A1CD2B2904208BF00229142B2
:101600001ED003EB43036068DB00C11818D04FF015
:10161000010E00F803E00E4B4D60D3F804358B60EB
:10162000CE60C1F810804F610020627000F052F867
:10163000084B4FF48012C3F800210020BDE8F08170
:10164000002000F047F80420BDE8F0811C060020CF
:101650000010014000E100E0F8B5184E736833B3A4
:1016600028B343691BB3002505740446284600F0DF
:1016700029F87378B07831785A1CD2B2904208BFFA
:101680002A46914215D003EB43037168DB00CF1863
:101690000FD00220C85428467C60727000F01AF8FF
:1016A000074B4FF48012C3F800212846F8BD0820EC
:1016B000F8BD002000F00EF80420F8BD1C06002044
:1016C00000E100E072B6024A13680133136070470C
:1016D0003C060020034A1368013B136003B962B65D
:1016E000704700BF3C060020024A034B00201070E8
:1016F000187070474106002040060020F1EE103AB5
:1017000023F09F03E1EE103ABFF35F8F034B4022BB
:10171000C3F8842120BF40BF20BF704700E100E034
:1017200008B501F079FEBDE8084000F04BB800BFF5
:10173000002810B418DB00F1604303F56143490150
:10174000C9B283F80013C3B24009800000F16040C1
:1017500000F5614003F01F0201239340C0F880317F
:1017600003605DF8044B7047C3B2044A03F00F04F2
:1017700049012244C9B21176E6E700BFFCEC00E063
:1017800010B50E4C23780BB1852010BD98B10378AD
:1017900003F001034FF08041094AC1F87835106821
:1017A00010F0010003D001232370002010BD072199
:1017B000FFF7BEFFF7E70123ECE700BF420600207A
:1017C00000E100E010B54FF08043D3F80443610717
:1017D00004D5D3F8082103F58473C2B9A20602D553
:1017E0000E4B1A686AB963060AD50D4B1A683AB1EE
:1017F00000210C4A196013680120BDE81040184709
:1018000010BD0020074A186013689847EBE70021D5
:10181000054A196013689847E0E700BF14010040CB
:10182000180100404806002044060020034B1878A9
:1018300008B18520704701221A70704750060020B9
:101840002DE9F84F164DDFF85C90824600264FF0E8
:10185000010803E0FFF73EFFA5431BD0F7B20020CD
:1018600008FA07F4FFF72EFF2C424FF0000006F1B4
:101870000106EFD0D9F8003014EA030BEAD11C437B
:1018800058468AF80070C9F80040FFF723FF584611
:10189000BDE8F88F4FF0040B5846BDE8F88F00BF45
:1018A000FFFF0F004C06002051B14AB101238340D5
:1018B00010B4C3F313042CB907205DF8044B704730
:1018C0000E207047094C2468234203D108205DF89C
:1018D000044B7047C00000F1804303F5F83300204B
:1018E000C3F81015C3F81425E7E700BF4C06002025
:1018F00001238340C3F313022AB1054A126813423D
:1019000001D108207047034A0020C2F8043570470F
:101910004C06002000F001402DE9F041684B1A68A8
:1019200088B0002A3CD1674F97F82E30002B45D164
:10193000654B1A68002A5ED1644B1C68002C6AD182
:101940007E699EB14FF000480125B6FA86F29300F9
:1019500003F58C7303F1804101F5E04128FA02F2AE
:10196000086826EA020620B9002EEED108B0BDE8CC
:10197000F081A3F58C730C6083F004020968049174
:10198000C2F38002DB088DF819208DF818308DF82D
:1019900014503B68049A05A89847002ED5D1E5E776
:1019A0000022484F1A60196897F82E30009100996C
:1019B000002B39D097F82F30002B4ED1444B1A68AA
:1019C000002AB5D000221A6097F82D0019687B8B89
:1019D000019184B2A34201994ED85FD0384B3D4A61
:1019E000002119601B680293012302991360364B92
:1019F0001A68002AA0D000221A6008A81B68039366
:101A0000022100F80C1D3B6803993A7498472F4B4C
:101A10001C68002C94D000221A601B680593059B5B
:101A20003A7408B0BDE8F081FA68786839898DF8B1
:101A300014300690ADF81C10002A2CD02648398BA3
:101A40007A600122FB607983398102603B6805A8D6
:101A50009847002387F82F3066E7FB687868398954
:101A60008DF814200690ADF81C10A3B1398B7B6063
:101A7000FA6079833981E9E73A897968164D1B1B49
:101A80009BB292B2D21A01EB42027B83C5F82C269C
:101A9000C5F83006A2E700233B74D7E7FB684BB1DB
:101AA0000D497A83012287F82F20C1F82C36C1F81E
:101AB000300693E701227B8387F82F208EE700BF53
:101AC0000471004054060020107100401471004061
:101AD00000710040047000400070004070B5214C5F
:101AE00094F82C3082B013B1082002B070BD0029E8
:101AF00032D0002832D003781B4D2160C5F8F03574
:101B000043781A4AC5F8F4356FF000410023C678CF
:101B10002374C5F80813136012680192817884F861
:101B20002E600720012684F82D30636184F82F3061
:101B300084F82C60019BFFF7FBFD94F82E30022205
:101B4000C5F804230BB1C5F80463074B012200203C
:101B5000C3F8002502B070BD0720C6E70448012382
:101B6000CAE700BF54060020007000400471004026
:101B70003440000038B5144B1A7C0AB1112038BD2E
:101B800000F10C0203EB4204247924B993F82D40B0
:101B9000013483F82D400D4603EB4203C9792A7ABC
:101BA0001971044629465A7100F0F2FA200100F139
:101BB000804303F5E043EA79297AC3F81415C3F8A2
:101BC0001025002038BD00BF54060020044B054AF4
:101BD00093F82E00044B00280CBF1046184670479F
:101BE000540600200470004000700040F0B42C4AFD
:101BF0002C4B1224C2F808431D7C022D82B01CD04D
:101C00001C7C012C1FD093F82E4058600227012520
:101C10000026C2F804731D74DE601981E4B9224BFA
:101C2000C2F82C06C2F830161C601B680193019B99
:101C30001560204602B0F0BC70471120C2F8044382
:101C400002B0F0BC7047DC688CB102231120C2F8EE
:101C5000043302B0F0BC704793F82D40C2F82C0654
:101C600030465983C2F8304602B0F0BC704793F852
:101C70002E20D86019836AB90B4A1368002BFCD058
:101C8000002313601268064B0092009AC3F82C06DA
:101C9000C3F83016024B0222C3F804230020C9E720
:101CA0000070004054060020007100402DE9F04112
:101CB00004792E4D66003719BF0005EB070E82B080
:101CC0009EF808301BB1082002B0BDE8F081002A60
:101CD00049D0EA514A68CEF8042042799E466AB15A
:101CE0009A0002F5A072076847F802E0BF584279EF
:101CF00001970133DBB29A42019FF1D88046006818
:101D00000F4640F30730C978FFF712FDD8F80010EE
:101D10007B78D1F8042503F0030322F00302134378
:101D2000C1F80435D8F80010BB78D1F8082503F0C5
:101D3000030322F003021343C1F80835D8F800105A
:101D40003B78D1F81025344405EB840522F00F02CE
:101D5000012003F00F03134328720020C1F810354F
:101D600002B0BDE8F0810720AEE700BF8406002086
:101D70000368054A01211960037903EB430302EB71
:101D8000830302221A72704784060020F0B40768A9
:101D90009DF81060D7F8004240F201158D4024EA0A
:101DA0000504C7F800420568D5F800422343C5F88A
:101DB00000324FF480348C40036846B9C3F80843BE
:101DC000036801F5A87143F82120F0BC7047C3F8FF
:101DD0000443F5E700B52B4B1A6883B022B12A4AB9
:101DE000D2F80423D20328D4284B1A6822B1264AF9
:101DF000D2F8042390032CD4254B1A6822B1224A2E
:101E0000D2F80423510330D4224B1A6822B11E4A5F
:101E1000D2F80423120302D403B05DF804FB0022BD
:101E20001A601D4A1B68019351681368019A4FF4A8
:101E3000A670984703B05DF804FB00221A60164AAA
:101E40001B68019351681368019A4FF4A07098477A
:101E5000CAE700221A60104A1B6801935168136890
:101E6000019A4FF4A2709847C6E700221A600A4A06
:101E70001B68019351681368019A4FF4A470984746
:101E8000C2E700BF40810040008000404481004024
:101E9000488100404C8100408406002070B5A54C6C
:101EA000237F8EB0002B73D1A34AD2F80413890587
:101EB00046D4A14BD3F80423520704D5D3F8082104
:101EC000002A40F0C9809C4BD3F81C21BAB1A28AE9
:101ED000A17D92B28A424FF00002C3F81C2180F02B
:101EE000A880D3F81C210692069AA18AA28AA0682B
:101EF00089B20132415C92B2A282C3F81C158E4BAA
:101F0000D3F84421D2B10022C3F84421D3F84411BC
:101F1000A27E04910499002A40F08880E37D6BB191
:101F20000023617EE268E37501238DF830108DF89F
:101F300028300B9294E80A000AA898470EB070BDAA
:101F4000D2F824110029B4D0C2F82431D2F82411D7
:101F5000A37E07914FF401710798C2F808130BB9DB
:101F600001235360744A02238DF82830D2F880345C
:101F7000C2F88034E07DE2680D9300238DF83000D4
:101F8000E375237621680B9263680AA898479AE75D
:101F9000694BD3F82421002A40F09280D3F8101125
:101FA00061B1C3F81021D3F8101103910399D3F84C
:101FB0003C15E07DC9B2884200F0A4805E4BD3F8A6
:101FC0004421B2B10022C3F84421D3F84401E17D99
:101FD0000190019869B1D3F83C35E1688DF8303053
:101FE00001230B918DF82830E27594E80A000AA8C5
:101FF0009847514BD3F82021002A9FD00022C3F8E4
:102000002021D3F82001A17D00900098002995D0CF
:10201000D3F84C15A3688DF830100B938DF8282059
:10202000A27594E80A000AA8984787E701221A6077
:1020300074E7D3F81C310593059B00293FF45FAF8B
:10204000A3688DF830100B938DF82820A27594E8C2
:102050000A000AA8984752E7E27D002A6ED00022C3
:10206000C3F80821D3F808210892089AE168627E33
:10207000D3F818358B54637EE27D0133DBB263768F
:10208000637E93427FF41FAF237E002B6CD1A37E2F
:1020900013B9294B01225A60274AE06863684FF45C
:1020A0000171C2F80813627E8DF8302000250122EC
:1020B0000B902168E5758DF828200AA8984702E75B
:1020C0000022C3F82421D3F82411029102218DF8B3
:1020D00028100299D3F88014C3F880140D91D3F816
:1020E0003C15E368E27522768DF830100B93216879
:1020F00063680AA89847104BD3F84421002A3FF49C
:1021000078AF5FE7217E11B3D3F80062E568E1752F
:1021100026F02006C3F8006226698DF830000123FE
:102120008DF82830227621680B95E66063680AA84E
:10213000984743E79006002000200040C3F808219C
:10214000D3F8081109910999D3F8183598E7E2688E
:10215000E17501238DF830008DF828300B9294E85A
:102160000A000AA8984729E7607EE5682169E375B7
:10217000012200238DF83000E160237663760B9511
:102180008DF8282094E80A000AA898479BE600BF2B
:10219000F0B44B788C780F78CA780E794D791B01A2
:1021A000240204F4E06403F030032343120307F035
:1021B0000304234302F480528C793604134306F45B
:1021C000E02602012D05334305F48015240602F1B3
:1021D000804202F5E0422B4304F080742343C2F8AE
:1021E00018351046CB790A7AC0F81425C0F8103596
:1021F000F0BC7047704700BF00B583B002AB054A22
:1022000043F8040D0421184601F082F903B05DF88B
:1022100004FB00BF8122000008B5112000F0D8FCAB
:10222000EFF3058313F0FF0F4FF0130003D1BDE868
:10223000084000F0C5BCBDE8084000F0B9BC00BFD4
:10224000037803B1704710B5022104464068FFF7D8
:10225000CDFC68B962680849B2F90230B2F90020D1
:102260001320FEF703FC054A13680133136010BD09
:10227000FEF7FEFCEEE700BF7C400000A807002050
:1022800008B503680D2B10D00E2B0DD1112000F0D6
:102290008FFC122000F08CFC132000F089FC114808
:1022A000FFF7DAF9B8B908BD08BD00224FF4C171D3
:1022B0000C48FFF77FF990B9EFF3058313F0FF0F98
:1022C00004D11220BDE8084000F07ABC1220BDE81D
:1022D000084000F06DBCBDE80840FEF7C9BCFEF741
:1022E000C7FCE9E7B407002010B584B0FFF79EFAF9
:1022F000002831D104A91A4B41F8083D194A1A485F
:1023000000230393FFF7D2FC18BB184B184AD3F8ED
:10231000103515480021DBB2DA4000910123FFF7A8
:1023200035FD1148FFF724FDFFF750FC0446114826
:10233000FFF786FA50B90F4B0F4918782246FFF77E
:10234000B3FA08B1FEF794FC04B010BDFEF790FCA0
:10235000F1E7FEF78DFCD8E7FEF78AFCCAE700BF7D
:1023600000000307F52100004C4000000080004001
:1023700000A86100D40700204081004008B5054B4B
:102380001878FFF7B5FA00B908BDBDE80840FEF7B8
:102390006FBC00BFD407002000B5144B93E80700C2
:1023A00085B001AB03C312491A700020FFF796FBFA
:1023B000C8B901A90020FFF7DDFB88B902210D484B
:1023C000FFF714FC48B902210B48FFF70FFC08B1D6
:1023D000FEF74EFC05B05DF804FBFEF749FCF2E7A2
:1023E000FEF746FCEAE7FEF743FCE2E73840000070
:1023F00041220000AC070020B007002000B583B0E8
:1024000000F0ACFF08B1FEF733FC002000F0C6FF7F
:1024100000F014FB08B1FEF72BFC002369461120E5
:102420008DF80230ADF8003000F04AFB08B1FEF73D
:102430001FFC6946122000F043FB08B1FEF718FCB0
:102440006946132000F03CFB08B1FEF711FC112097
:1024500000F0AEFB122000F0ABFB132000F0A8FB55
:102460002D4B2E4ADB68019301A903230D208DF823
:10247000053000F0BDFB08B1FEF7FAFB01A9274AC1
:102480000E2000F0B5FB08B1FEF7F2FB01210D2094
:1024900000F06EFC01210E2000F06AFC204B214A66
:1024A00003211020FEF794FF08B1FEF7E1FB1E4A5E
:1024B0001E480121FFF76CF808B1FEF7D9FB1C4A52
:1024C0000A21082000F0FEFF08B1FEF7D1FB002032
:1024D000FEF764FA08B1FEF7CBFB0020FFF750F9D6
:1024E00008B1FEF7C5FB0020FFF7FEF808B1FEF7C4
:1024F000BFFB10490320FEF76DFAFFF74DFFFFF712
:10250000F3FEFFF73BFF01F065F8FFF7F7F8FEF782
:1025100009FB0028FBD1F6E738400000F921000054
:10252000A934000060070020192200004840000084
:10253000B0060020544000002DE9F84F4300DFF8BA
:102540006CA11E180AEBC6068B46D6F82C80B8F193
:10255000010F17465FD037D3B8F1020F2FD10130EA
:1025600000EB4000756A4FEAC0094FF000081CE01C
:10257000326A641BBC420AEB09012346A2EB050444
:1025800028BF3B469C42486828BF1C462844594601
:10259000224601F07DF8336A25449D4208BF00259C
:1025A0003F1BA044A34475620BD0B36AAB4203F156
:1025B000FF34DDD8326A1344013B5C1BDAE74FF08D
:1025C00000084046BDE8F88FB26A746AA24253D947
:1025D000013A121B9742F4D803440AEBC3040130BA
:1025E000666A256AAD1B00EB4000AF420AEBC00AE9
:1025F00051D3DAF804002A46304459467E1B01F0D4
:1026000047F8DAF804000BEB0501324601F040F818
:10261000B8466662D5E7B16A756AA94226D901391A
:10262000366AA1EB050803440AEBC304B845656AA2
:1026300028BFB846761B013000EB4000B0450AEBDE
:10264000C00A1ED3DAF80400324659462844A8EBE3
:10265000060501F01DF8DAF804000BEB06012A4626
:1026600001F016F865624046BDE8F88F366A8C19AD
:10267000013CA4EB0508D6E7316A114401390A1B75
:10268000A8E7DAF80400594628444246454400F0D9
:10269000FFFF656295E7DAF80400594630443A4690
:1026A0003E4400F0F5FFB84666628AE7740A0020EF
:1026B000F8B5114C2378F3B9A362104A6362022083
:1026C000A365E362E36563650D4F0E4D0E4920611E
:1026D00010234FF4007623656061A261A264E01DBF
:1026E000E7612662E56401F013F80849204601F02D
:1026F0000FF82023A371F8BD740A00208440000065
:10270000E8070020D8070020904000009440000017
:102710000649074A074B9B1A03DD043BC858D050B3
:10272000FBDC00F013F8FDF7A1FE0000E84100001B
:1027300000000020E0010020FEE7FEE7FEE7FEE7E4
:10274000FEE7FEE7FEE7FEE7FEE7FEE7F0B4A64B96
:102750001B78062B1BD0A54AD2F8883043F47003AF
:10276000C2F88830BFF34F8FBFF36F8F4FF0102345
:10277000D3F80022002AC0F20581D3F80432002BDE
:10278000C0F200819A4B9B4A1A60F0BC70479A4B8A
:102790001B681E07DFD1994B1B6803F0F003302B39
:1027A00002D1974B974A1A60944B1B6803F0F002D2
:1027B000302A00F0D68003F0E003402B00F0D180F7
:1027C0008E4B1B6803F0F003302B00F0BB808B4B6B
:1027D0001B6803F0F002302A00F0A08003F0E00351
:1027E000402B00F09B80854B1B6803F0F003302BDF
:1027F00000F08680814B1B6803F0F003302B68D01B
:102800007E4B1B6803F0F003502B10D07B4B1B68F2
:1028100003F0F002302A03D003F0E003402B9AD1FA
:10282000794B7A4A1B6803F04F03136093E74FF02C
:102830008052774BD2F80414C3F82015D2F808144C
:10284000C3F82415D2F80C14C3F82815D2F81014C4
:10285000C3F82C15D2F81414C3F83015D2F8181494
:10286000C3F83415D2F81C14C3F84015D2F820145C
:10287000C3F84415D2F82414C3F84815D2F8281424
:10288000C3F84C15D2F82C14C3F85015D2F83014F4
:10289000C3F85415D2F83414C3F86015D2F83814BC
:1028A000C3F86415D2F83C14C3F86815D2F8401484
:1028B000C3F86C15D2F844244B49C3F870250A7844
:1028C000062A7FF448AF4C4B1B681B077FF443AFCD
:1028D0009CE7454B4F491B784F4D5048504A0527C0
:1028E0000F60012600243F21062B2E60046011603A
:1028F0007FF431AF404B1B681A077FF42CAF7FE7A2
:10290000394B484A1B780321062B11607FF423AF13
:10291000394B1B6819077FF41EAF6BE7324B1B78EE
:102920004FF080420021062BC2F80C11C2F81011A2
:10293000C2F838157FF40FAF2F4B1B6818077FF4D0
:102940000AAF50E73849284ACB68127823F08073E1
:10295000062ACB60B4D1284B1B681C077FF4FBAE62
:1029600035E7324A204B12681B783149C2F34232B4
:10297000062B0A607FF4EFAE1F4B1B681D077FF428
:10298000EAAE1DE72B4B0122C3F80425D3F800243F
:10299000002AFBD04FF0102315222649C3F800224D
:1029A000D1F80034002BFBD04FF010221521214B21
:1029B000C2F80412D3F80024002AFBD000221D49DB
:1029C000C3F80425D1F80034002BFBD0BFF34F8FA0
:1029D0000649194BCA6802F4E0621343CB60BFF3A7
:1029E0004F8F00BFFDE700BFE00F00F000ED00E0FB
:1029F000640000200090D003E40F00F0E80F00F026
:102A000074C007400DF0ADBA58020010E40E00404B
:102A100000C0004010560040885600401856004044
:102A200014560040A0050040F0ED00E04402001004
:102A30003C05004000E001400400FA0530B51D4CA3
:102A400094F8545083B015B1082003B030BD4FF056
:102A5000FF33FF220721062023636363A363E3633D
:102A600023646364A364E36423606360A360E3603E
:102A700023616361A361E361236284F85030636280
:102A8000A36284F85230E36284F8533084F8512012
:102A9000FEF74EFE084B094A1D601B680193019822
:102AA0004FF000430121284684F85410C2F8043343
:102AB00003B030BDE80900207C61004000600040A8
:102AC00070B43A4B1A1892F93040013402D0082001
:102AD00070BC70478C78DCB11A6801325AD05A68E1
:102AE000013259D09A68013258D0DA68013257D091
:102AF0001A69013256D05A69013255D09A690132A9
:102B00001BD0DA69013208BF072517D00420DFE7A0
:102B1000FE2382F830304B78012B35D001234FF063
:102B2000A0428340C2F80C3500F5E0704FF0A0439E
:102B3000032243F820200020CAE70625AA0002F15C
:102B4000804202F5C0421E18002443F8254086F852
:102B50003050D2F810450B784D7824F4981424F4B2
:102B6000F8541B042D05C2F8104505F4801503F434
:102B7000403304022B4304F4F854D2F81055234395
:102B80002B43C2F81035C6E74FF0A0428340C2F88D
:102B90000835C9E70025D1E70125CFE70225CDE7B4
:102BA0000325CBE70425C9E70525C7E7E809002089
:102BB00001234FF0A04203FA00F0C2F80805704765
:102BC00001234FF0A04203FA00F0C2F80C05704751
:102BD0004FF0A0410122D1F8043502FA00F020EABA
:102BE00003020340C1F80825C1F80C35704700BF47
:102BF000F0B55E4C251895F93030002B01DB08202C
:102C0000F0BD91F803E0BEF1000F50D0236801330E
:102C100000F0A6800826012554F8253001334CD059
:102C20006B1C54F82370013748D0AB1CB3423CD224
:102C300054F82370013741D0EB1CB34235D254F81D
:102C4000237001373AD02B1DB3422ED254F8237093
:102C5000013733D06B1DB34227D254F823700137AC
:102C60002CD0AB1DB34220D254F82370013725D0AD
:102C7000EB1DB34219D254F8237001371ED005F171
:102C80000803B34211D254F82370013716D005F16E
:102C90000903B34209D254F8237001370ED00A3524
:102CA000B54202D2E36A013358D00420F0BD236A52
:102CB00001332DD00C260925AEE72B4626185DB230
:102CC00044F8232086F83050BEF1000F26D08B78D0
:102CD000A3B94A784FF0A04600F5E073920046F899
:102CE0002320CB78F3B9083D2C44097894F8502080
:102CF00042EA811284F850201846F0BD830003F1A7
:102D0000A043D3F8002722F00202C3F80027E8E727
:102D1000082685F83060334622623546234483F81E
:102D20004800D4E7AB0003F1804303F5C0430978C2
:102D3000D3F8104524F4473424F44074C3F8104504
:102D400002020904D3F8100501F4403102F4F852EC
:102D50000A430243C3F810250020F0BD0B23ADE762
:102D6000002385F8303022601D46B0E7E8090020D6
:102D7000F0B42E4D2E1882B096F93030072B1CDDA2
:102D80002B4493F848309B09032B41D0012B14BFEF
:102D90004FF440314FF40031800000F1A040D0F8F2
:102DA000002722F44032C0F80027D0F800370B4348
:102DB000C0F8003702B0F0BC7047DAB2072AF9D881
:102DC000980000F1804000F5C04003F140029200FD
:102DD000D0F8104592B202F18042002744F001047D
:102DE00002F5C042C0F8104501970198176000290C
:102DF000E0D096F9302055F82220002ADAD00122BE
:102E00000B4902FA03F3C1F8043302B0F0BC704777
:102E10004FF0A043D3F81035C34013F0010F0CBF9F
:102E20004FF400314FF44031B6E700BFE80900200D
:102E3000006000402DE9F04F87B00023CC4A019399
:102E40001168012900F00A821E46CA4B1A68012A3D
:102E500000F0F681C84B1A68012A00F0E381C74BE5
:102E60001A68012A00F0D081C54B1A68012A00F0C7
:102E7000BD81C44B1A68012A00F0AA81C24B1A68AE
:102E8000012A00F09781C14B1A68012A00F0848161
:102E9000BF4B1A68012A00F05E8116F0FF0F1AD0AE
:102EA000BC4F01250024A30003F180432E4203F50B
:102EB000C0434FEA45050BD0D3F8100557F824203E
:102EC000D3F81015C0F30420C1F3014102B19047BB
:102ED0000134082CE7D1002E02DB07B0BDE8F08FEB
:102EE00000224FF0FF33AB4C02920393012502AE58
:102EF00094F950104F1C2DD0C9B221F0C00006AB80
:102F00004FEAD00E03EB0E0701F0070317F80C2C65
:102F100005FA03F31A421DD02218890992F93020CC
:102F200054F82220002A00F0F080032900F0F080FD
:102F30004FEA800E0EF1A04E17F814CCDEF80077A1
:102F40001CEA0303C7F3014940F0B880B9F1030F4D
:102F500000F0D7814FF0030A4FF002094FF001084B
:102F6000002794F95110481C2DD0C9B221F0C0009F
:102F700006AB4FEAD00C03EB0C0E01F007031EF872
:102F80000C2C05FA03F31A421DD02218890992F974
:102F9000302054F82220002A00F0CA80032900F0D3
:102FA000CA804FEA800C0CF1A04C1EF814BCDCF86F
:102FB00000E71BEA030FCEF3014E40F09080BEF114
:102FC000030F00F08A8194F952104A1C2CD0C9B228
:102FD00021F0C00006AB4FEAD00C03EB0C0E01F061
:102FE00007031EF80C2C05FA03F31A421CD0221812
:102FF000890992F9302054F82220002A00F08F80AD
:10300000032900F08E804FEA800C0CF1A04C1EF8D2
:1030100014ACDCF800E71AEA030FCEF3014E6AD1D4
:10302000BEF1030F00F0468194F953104B1C2CD0D5
:10303000C9B221F0C00006AB4FEAD00E03EB0E027E
:1030400001F0070312F80CCC05FA03F31CEA030F96
:103050001BD004EB000C89099CF930C054F82C906B
:10306000B9F1000F6ED003296ED04FEA800E0EF139
:10307000A04E12F814CCDEF800271CEA030FC2F3AE
:10308000014211D1032A00F0F580002F3FF425AF53
:103090004FF0A043019AD3F810359A423FF41DAF88
:1030A000029A0193039223E7022AEED1032900F04A
:1030B0004681B9F1000FE8D0C847E6E7B9F1020F41
:1030C0007FF448AF032900F043814FF0030A4FF02B
:1030D00001080027002A3FF444AF904741E7BEF1C2
:1030E000020F7FF470AF032900F02C81002A3FF417
:1030F0006AAF904767E7BEF1020F95D1032900F050
:103100002481002A90D090478EE703297FF422AFD4
:1031100016F80EC04CEA030C06F80EC008E70329A7
:1031200082D116F80CA04AEA030A06F80CA06AE756
:1031300003297FF448AF16F80CB04BEA030B06F8EE
:103140000CB02EE70329A0D116F80EC04CEA030CF0
:1031500006F80EC089E700221A601B6805934FF03D
:10316000A043059AD3F81035019346F0004694E643
:103170000061004004610040086100400C610040B3
:103180001061004014610040186100401C61004063
:103190007C610040E80900206F4AD2F8042312063F
:1031A0007FF576AE00221A601B680493049B46F0FC
:1031B00080066DE6684AD2F8042351067FF563AEB7
:1031C00000221A601B680493049B46F040065AE6EE
:1031D000614AD2F8042390067FF550AE00221A60AF
:1031E0001B680493049B46F0200647E65A4AD2F82F
:1031F0000423D4067FF53DAE00221A601B680493B9
:10320000049B46F0100634E6534AD2F8042315070F
:103210007FF52AAE00221A601B680493049B46F0D7
:10322000080621E64C4AD2F8042357077FF517AE6B
:1032300000221A601B680493049B46F004060EE605
:10324000454AD2F8042392077FF504AE00221A60A3
:103250001B680493049B46F00206FBE53E49D1F847
:10326000046316F001063FF4F0AD13601368049395
:10327000049BEAE503297FF41CAF4FF40032DEF82B
:10328000003723F44033CEF80037DEF8003713431D
:10329000CEF80037B9F1000F01D047460CE74FF0E8
:1032A000A043019AD3F8103593427FF4F9AE07B0EA
:1032B000BDE8F08F03297FF424AF4FF40037DCF82A
:1032C000003723F44033CCF80037DCF800373B43B9
:1032D000CCF800374746C84613E703297FF406AF0A
:1032E0004FF40037DCF8003723F44033CCF80037D4
:1032F000DCF800373B43CCF800374746C846D14698
:10330000F4E6032906D0CA461F464FF002094FF0E3
:103310000108DFE64FF40037DEF8003723F44033CE
:10332000CEF80037DEF800373B43CEF800374FF0D9
:10333000040A4FF003094FF002080127CAE64FF4D0
:1033400040329CE74FF44037CCE74FF44037B6E7C4
:103350004FF44037E0E700BF0060004010B50D4C6F
:1033600023780BB1852010BD0B4A6360E3601068C1
:10337000A36010F00100236107D04FF080420123C9
:10338000C2F818352370002010BD0721FEF7D0F9D0
:10339000F3E700BF400A002000E100E030B51B4D1C
:1033A000AB7883B0044673B110B1436801209847ED
:1033B0000020FEF787F9EB6800200133EB60FEF791
:1033C00089F903B030BD03F0FF00FEF77BF964B16B
:1033D0002A6942B1944208D0134601E09C4204D0CD
:1033E0001B68002BFAD122602C61EB68002BE2D124
:1033F000074A08491360136801934FF08042022086
:103400000123019CC2F804030B60D4E7400A0020AA
:10341000040100400800004010B51A4B1A6882B041
:10342000A2B100221A601B6800934FF08043012272
:10343000154C0099C3F80823A368627033B10CCB14
:103440000020A2609847A368002BF8D10F4B1A68A0
:10345000AAB100221A601B6801934FF08043022238
:10346000094C0199C3F8082323690122A27033B1E2
:103470000CCB0120226198472369002BF8D102B0C0
:1034800010BD00BF00010040400A002004010040C0
:10349000082910B5044602D00020FDF7E9FB236897
:1034A0006068BDE81040184700B583B08DE80300A0
:1034B000034A0821684600F02BF803B05DF804FBCE
:1034C0009134000012F0030301D007207047F0B4DC
:1034D000094D0A4F2B700A4D3A604C1C2B70094F56
:1034E000094D0A4E3880E400A4B22244298032609B
:1034F0001846F0BC704700BF540A00205C0A002048
:10350000640A0020600A0020620A0020580A002095
:103510002DE9F047294D2B888B4202D20920BDE8C6
:10352000F0870646002017460C46FEF7CBF8244BE2
:10353000244A2548197813780088DBB2834238BFC3
:103540000133C9B234BFDBB2002399421FD092F8D5
:1035500000801378DFF87890DBB2984286BF0133A1
:10356000DBB200235FFA88F800201370FEF7B2F890
:10357000D9F800300FFA88F24FEAC20A43F83270E5
:10358000534406B14CB900209880BDE8F087002074
:10359000FEF7A0F80420BDE8F0870C4B28881B68D4
:1035A000314608FB0030224600F072F8D9F80030AE
:1035B0009A440020AAF80440BDE8F087600A002081
:1035C000640A0020540A0020620A0020580A0020E1
:1035D0005C0A00202DE9F047174C184D22782B7813
:1035E0009A4226D0DFF85C90DFF85C80144FDFF859
:1035F0005CA02378D9F800203888D8F80060DBB2C6
:103600000FFA83FC02EBCC0103FB0060898852F8BF
:103610003C3098472378BAF80020DBB29A4203F195
:1036200001038CBFDBB20023237022782B789A42EF
:10363000DFD1BDE8F08700BF640A0020540A0020F3
:10364000600A00205C0A0020580A0020620A00205C
:10365000044B054A1B681B6A002B08BF1346D3F8AE
:10366000EC007047000000206800002082B001B923
:1036700001A942B14BB113780B601278101C18BF2E
:10368000012002B070471046FBE76FF00100F8E739
:1036900010B5431E0A44914200D110BD11F8014BF0
:1036A00003F8014FF7E700000CB430B5174B0C1EC0
:1036B0009DB01D6808DA8B232B604FF0FF301DB0E2
:1036C000BDE8304002B070474FF40273ADF81430DB
:1036D00014BF04F1FF332346049307934FF6FF739F
:1036E00002900690ADF81630209A21AB02A9284628
:1036F000019300F085F8431CBCBF8B232B60002C8A
:10370000DDD0029B00221A70D9E700BF0000002024
:10371000034611F8012B03F8012B002AF9D1704759
:10372000034613F8012B002AFBD1181A0138704701
:1037300049B1FF2A85BF8A2303600A704FF0FF302A
:1037400098BF01207047084670472DE9F0478E6802
:103750009E4282460C469146984635D88A8912F494
:10376000906F31D0256809696F1A6569022305EBEE
:10377000450595FBF3F508F101033B449D4238BF35
:103780001D46530531D5294600F082FB064650B947
:103790000C23CAF80030A38943F04003A3814FF003
:1037A000FF30BDE8F0873A462169FFF771FFA38932
:1037B00023F4906343F08003A381266165613E4456
:1037C000ED1B2660A5604646464528BF4646324664
:1037D0004946206800F0F4FAA3689B1BA3602368A5
:1037E0001E4426600020BDE8F0872A4600F0AEFBAC
:1037F00006460028E1D12169504600F0FBFAC7E7F0
:103800002DE9F04F9DB0804603938B891C060D4631
:1038100016460FD50B696BB9402100F039FB2860C3
:10382000286128B90C23C8F800304FF0FF30C5E0FC
:1038300040236B610023099320238DF82930302326
:103840008DF82A304FF0010B37463C4614F8013B07
:10385000002B3CD1B7EB060A0BD053463246294623
:103860004046FFF772FF013000F0A380099B5344EC
:1038700009933B78002B00F09C8000234FF0FF322F
:1038800004930793059206938DF853301A930522FB
:103890002178504800F044FA671C049BD8B9D90637
:1038A00044BF20228DF853201A0744BF2B228DF8E5
:1038B000532022782A2A16D0079A00210A20274668
:1038C00001343B78303B092B51D9C9B111E0252B8C
:1038D000C0D02746B9E73F4A801A0BFA00F01843D8
:1038E00004903C46D3E7039A111D12680391002A05
:1038F00001DB079204E0524243F002030792049373
:103900003B782E2B0ED17B782A2B07F1010132D187
:10391000039B1A1D1B680392002BB8BF4FF0FF33A7
:10392000023705932C4C39780322204600F0F8F931
:1039300038B14023001B03FA00F0049B03430493B7
:103940000137397825488DF8281006227E1C00F0B2
:10395000E7F9002835D0224BFBB9039B073323F04E
:10396000070308330393099B4B4409936CE700FB5F
:1039700002320121A3E70023059318460A240F46CB
:1039800001313A78303A092A03D9002BCAD0059080
:10399000C8E704FB00200123F1E703AB00932A46AC
:1039A000104B04A94046AFF30080B0F1FF3F8146C1
:1039B000D9D1AB895B063FF538AF09981DB0BDE89A
:1039C000F08F03AB00932A46064B04A9404600F053
:1039D00081F8EAE7A7410000AD410000B1410000D5
:1039E000000000004B3700002DE9F04791461F46CC
:1039F0008A680B69DDF820809342B8BF1346C9F886
:103A0000003091F8432006460C4612B10133C9F844
:103A100000302368990642BFD9F800300233C9F854
:103A20000030256815F0060507D104F1190AE3688E
:103A3000D9F800209B1A9D4229DB94F84330226874
:103A4000003318BF012392062ED404F143023946F5
:103A50003046C047013021D02368E568D9F80020FE
:103A600003F00603042B08BFAD1AA36822690CBF3C
:103A700025EAE57500259342C4BF9B1AED184FF067
:103A800000091A344D451BD10020BDE8F087012301
:103A9000524639463046C047013003D14FF0FF301F
:103AA000BDE8F0870135C2E7E1185A1C302081F8E3
:103AB0004300224494F8451082F843100233C4E7CF
:103AC0000123224639463046C0470130E6D009F18D
:103AD0000109D7E72DE9F04317460A7E85B06E2A23
:103AE000984606460C460C9B01F1430E00F0BC8044
:103AF0001AD8632A2ED00AD8002A00F0C880582A83
:103B000000F08A8004F1420584F842202AE0642A09
:103B100001D0692AF6D121681A6811F0800F23D0EC
:103B2000111D1960136827E0732A00F0B48008D8CB
:103B30006F2A2AD0702AE5D10A6842F020020A6072
:103B400003E0752A21D0782ADCD1782284F8452038
:103B50006E4964E01A6801F14205111D196013688D
:103B600084F842300123A3E011F0400F02F1040178
:103B70001960D7D0B2F90030002B03DA2D225B4256
:103B800084F8432062490A2217E02068196810F07F
:103B9000800F03D0081D18600B6806E010F0400F7E
:103BA00001F104001860F7D00B8859496F2A14BF3F
:103BB0000A220822002084F843006568A560002DD1
:103BC000C0F29C80206820F004002060002B3FD1D0
:103BD000002D40F095807546082A0BD12368DA073E
:103BE00008D5236962689A42DEBF302305F8013C9C
:103BF00005F1FF35AEEB05032361CDF800803B46B0
:103C000003AA21463046FFF7EFFE013055D14FF0B1
:103C1000FF3005B0BDE8F08381F845203C492268BB
:103C2000186812F0800F00F104051D6001D00368D0
:103C300002E05506FBD50388D00744BF42F02002BE
:103C400022601BB9226822F0200222601022B1E714
:103C50007546B3FBF2F002FB1033CB5C05F8013D77
:103C600003460028F5D1B7E708681A68496910F0DB
:103C7000800F04D0101D18601368196007E010F061
:103C8000400F02F1040018601368F6D01980002379
:103C900023617546B1E71A68111D196015686268DD
:103CA0000021284600F03CF808B1401B60606368C2
:103CB0002361002384F843309FE723692A4639466D
:103CC0003046C0470130A2D023689B0707D50025A6
:103CD00004F11909E368039A9B1A9D4205DBE06829
:103CE000039B9842B8BF184693E701234A463946DA
:103CF0003046C04701308AD00135EBE7002BA7D111
:103D00000B7884F8423004F1420565E7C9410000B0
:103D1000B8410000000000000000000000000000AA
:103D200001F0FF01102A2BDB10F0070F08D010F86C
:103D3000013B013A8B422DD010F0070F42B3F6D170
:103D4000F0B441EA012141EA014122F007047FF089
:103D500000070023F0E80256083C85EA010586EAE0
:103D6000010685FA47F5A3FA87F586FA47F6A5FA1C
:103D700087F68EB9EED1F0BC01F0FF0102F0070228
:103D800032B110F8013B013A83EA010313B1F8D1D3
:103D90000020704701387047002D06BF35460338B4
:103DA000073815F0010F07D1013015F4807F02BFED
:103DB000013015F4C03F0130F0BC0138704700BF3E
:103DC000884210B501EB020303D8421E99420CD180
:103DD00010BD9842F9D28118D21AD34200D110BD39
:103DE00013F8014D01F8014DF7E711F8014B02F806
:103DF000014FEBE738B50546002945D051F8043CA2
:103E00000C1F002BB8BFE41800F0D6F81F4A136847
:103E1000104633B9636014602846BDE8384000F0AE
:103E2000CCB8A3420CD921686218934204BF1A6827
:103E30005B68636004BF521822600460ECE71346BD
:103E40005A680AB1A242FAD919685818A0420BD18F
:103E500020680144581882421960DDD11068526808
:103E60005A6001441960D7E702D90C232B60D3E7CD
:103E7000206821188A4204BF11685268626004BF3A
:103E8000091821605C60C7E738BD00BF680A0020E0
:103E900070B5CD1C25F0030508350C2D38BF0C2559
:103EA000002D064601DBA94203D90C233360002014
:103EB00070BD00F081F8234A1468214691B9224C64
:103EC00023681BB9304600F067F820602946304669
:103ED00000F062F8431C26D10C233360304600F01A
:103EE0006CF8E4E70B685B1B1AD40B2B0FD90B6043
:103EF000CD50CC18304600F060F804F10B00231DC3
:103F000020F00700C31A1BD05A42E25070BD8C4209
:103F10000DBF63684B686360136018BF0C46E9E728
:103F20000C464968CAE7C41C24F00304A04205D02B
:103F3000211A304600F030F80130CDD02560D9E7A5
:103F400070BD00BF680A00206C0A0020F8B5074663
:103F500014460E4621B91146BDE8F840FFF798BF58
:103F600022B9FFF747FF25462846F8BD00F026F89E
:103F700084420FD921463846FFF78AFF05460028BC
:103F8000F2D031462246FFF783FB31463846FFF731
:103F900031FFE9E73546E7E738B5064C002305462B
:103FA0000846236000F014F8431C02D1236803B1D3
:103FB0002B6038BDEC0A00207047704751F8040CA4
:103FC0000028A0F10400BCBF0B58C01870470000C7
:103FD000044A05491368002B08BF0B4618441060BB
:103FE00018467047700A0020F00A0020F8B500BF9C
:103FF000F8BC08BC9E467047F8B500BFF8BC08BCCA
:104000009E467047040000205B253038645D000048
:104010004F766572666C6F770D0A00004150505FF5
:104020004552524F523A4552524F523A466174618C
:104030006C0D0A00010007000000000002000001F2
:104040000000000002000001B407002000800040D2
:10405000000400004150503A494E464F3A53414106
:1040600044432048414C2073696D706C652065782D
:10407000616D706C652E0D0A00000000256420251E
:10408000640D0A005465726D696E616C0000000079
:104090005254540053454747455200004300504F87
:1040A000534958002E0000202020202020202020CE
:1040B00028282828282020202020202020202020D8
:1040C0002020202020202088101010101010101008
:1040D000101010101010100404040404040404044C
:1040E00004101010101010104141414141410101D4
:1040F00001010101010101010101010101010101B0
:1041000001011010101010104242424242420202BD
:10411000020202020202020202020202020202027F
:10412000020210101010200000000000000000002B
:10413000000000000000000000000000000000007F
:10414000000000000000000000000000000000006F
:10415000000000000000000000000000000000005F
:10416000000000000000000000000000000000004F
:10417000000000000000000000000000000000003F
:10418000000000000000000000000000000000002F
:10419000000000000000000000000000000000001F
:1041A00000000000000000232D302B2000686C4C24
:1041B000006566674546470030313233343536375F
:1041C0003839414243444546003031323334353684
:1041D00037383961626364656600000000000000E2
:0841E0008CC2FF7F010000000A
:1041E80004000020000000000000000000000000A3
:1041F80000000000000000000000000000000000B7
:1042080000000000000000000000000000000000A6
:104218000000000000000000000000000000000096
:104228000000000000000000000000000000000086
:104238000000000000000000000000000000000076
:10424800000000000090D0034300000000000000C0
:104258000000000000000000000000000000000056
:104268000000000000000000430000000000000003
:104278000000000000000000000000000000000036
:1042880000000000000000004300000000000000E3
:104298000000000000000000000000000000000016
:1042A80000000000000000004300000000000000C3
:1042B80000000000000000000000000000000000F6
:1042C80000000000000000004300000000000000A3
:1042D80000000000000000000000000000000000D6
:1042E8000000000000000000430000000000000083
:1042F80000000000000000000000000000000000B6
:104308000000000000000000430000000000000062
:104318000000000000000000000000000000000095
:104328000000000000000000313700006D3600007A
:1043380000000000A6400000A4400000AC410000BE
:10434800AC410000AC410000AC410000AC410000B1
:10435800AC410000AC410000AC410000AC410000A1
:10436800FFFFFFFFFFFFFFFFFFFFFFFFFFFF000053
:1043780001004153434949000000000000000000CB
:104388000000000000000000000000000000000025
:1043980000004153434949000000000000000000AC
:1043A8000000000000000000000000000000000005
:1043B80000000000250400000104000000000000C7
:0400000300002711C1
:00000001FF
