:020000021000EC
:10F0000000000120154C02003D4C02003F4C020064
:10F01000414C0200434C0200454C0200000000003D
:10F02000000000000000000000000000474C02004B
:10F03000494C0200000000004B4C02004D4C020005
:10F04000410602004F4C02004F4C02004F4C0200A0
:10F050004F4C02004F4C02006121020009110200D6
:10F060004F4C0200390F02004F4C02004F4C02007F
:10F070004F4C02004F4C02004F4C02004F4C02001C
:10F080004F4C0200110102004F4C02004F4C020095
:10F09000510102004F4C0200015602004F4C020089
:10F0A0004F4C02004F4C02004F4C02004F4C0200EC
:10F0B0004F4C02004F4C0200000000000000000016
:10F0C0004F4C02004F4C02004F4C02004F4C0200CC
:10F0D0000D1902004F4C02004F4C020000000000CE
:10F0E0000000000000000000000000000000000020
:10F0F0000000000000000000000000000000000010
:10F1000000000000000000000000000000000000FF
:10F1100000000000000000000000000000000000EF
:10F4000010B5054C237833B9044B13B10448AFF35E
:10F4100000800123237010BDA821002000000000FF
:10F42000685F02000C4B43B10C480D4910B5AFF3B7
:10F4300000800C48036823B910BD0A48036833B93B
:10F440007047094B002BF7D0BDE810401847064B1A
:10F45000002BF5D0184700BF00000000685F0200D5
:10F46000AC210020A421002000000000154B002B3F
:10F4700008BF134B9D46A3F5803A00218B460F46EB
:10F480001348144A121A00F063F80F4B002B00D0F7
:10F4900098470E4B002B00D0984700200021040015
:10F4A0000D000D48002802D00C48AFF3008000F09A
:10F4B0002BF82000290003F007F800F011F800BF36
:10F4C0000000080000000120000000000000000013
:10F4D000A8210020442500200000000000000000BA
:10F4E00008B5074B044613B10021AFF30080054B6C
:10F4F0001868836A03B19847204600F031F800BFCE
:10F5000000000000305F020070B50D4E0D4CA41BD2
:10F51000A4100025A54209D10B4E0C4C06F0FCFCB2
:10F52000A41BA4100025A54205D170BD56F82530B6
:10F5300098470135EEE756F8253098470135F2E750
:10F540009C2100209C2100209C210020A021002043
:10F5500002440346934200D1704703F8011BF9E7C8
:10F56000FEE700BF80B586B000AF78600023BB81A6
:10F5700000233B617B687B6107F10C031A46002185
:10F5800044F2010000F018F800BF1837BD4680BDF6
:10F5900080B400AFBFF34F8F0549054BDB6803F420
:10F5A000E062044B1343CB60BFF34F8F00BFFDE716
:10F5B00000ED00E00400FA0580B584B000AFF8600B
:10F5C000B9607A60FFF7E4FF00BF1037BD4680BD29
:10F5D00080B483B000AF0346FB71094997F9073047
:10F5E0005B09FA7902F01F02012000FA02F241F8E9
:10F5F000232000BF0C37BD465DF8047B704700BF79
:10F6000000E100E080B483B000AF0346FB7109491C
:10F6100097F907305B09FA7902F01F02012000FA1E
:10F6200002F2203341F8232000BF0C37BD465DF8BD
:10F63000047B704700E100E080B483B000AF034674
:10F64000FB71094997F907305B09FA7902F01F024B
:10F65000012000FA02F2403341F8232000BF0C37AA
:10F66000BD465DF8047B704700E100E080B483B0E4
:10F6700000AF0346FB71094997F907305B09FA7936
:10F6800002F01F02012000FA02F2603341F8232049
:10F6900000BF0C37BD465DF8047B704700E100E019
:10F6A00080B483B000AF03463960FB7197F907302F
:10F6B000002B0BDA0D49FB7903F00F03043B3A688A
:10F6C000D2B25201D2B20B441A7609E0084997F936
:10F6D00007303A68D2B25201D2B20B4483F8002309
:10F6E00000BF0C37BD465DF8047B704700ED00E0BD
:10F6F00000E100E080B483B000AF78607B6803F085
:10F700000303002B0CBF01230023DBB218460C3788
:10F71000BD465DF8047B704780B485B000AF78606B
:10F72000254BFB607B68002B40D0244B1A68F9689E
:10F730007B6800BF00BF00BF00BF00BF00BF00BFAD
:10F7400000BF8A422FD000BF00BF00BF00BF00BF74
:10F7500000BF00BF00BF00BF00BF00BF00BF00BFB1
:10F7600000BF00BF00BF00BF00BF00BF00BF00BFA1
:10F7700000BF00BF00BF00BF00BF00BF00BF00BF91
:10F7800000BF00BF00BF00BF00BF00BF00BF00BF81
:10F7900000BF00BF00BF00BF00BF00BF00BF00BF71
:10F7A00000BF00BF00BF013BC3D17B6000BF143767
:10F7B000BD465DF8047B70470024F40098210020CA
:10F7C00080B582B000AF7860054A7B68C2F8083522
:10F7D00007211120FFF764FF00BF0837BD4680BD39
:10F7E0000010014080B500AF0D4B4FF48032C3F8DC
:10F7F00044230B4B4FF48032C3F804231120FFF74E
:10F8000035FF1120FFF7E4FE054B01221A602F207F
:10F81000FFF782FF034B01221A7000BF80BD00BFBB
:10F8200000100140E421002080B500AF1120FFF757
:10F83000E9FE0F4B4FF48032C3F848230C4B4FF4D2
:10F840008032C3F808230A4B01225A602F20FFF7A9
:10F8500063FF074B01229A60064B00221A602F209B
:10F86000FFF75AFF044B00221A7000BF80BD00BF93
:10F8700000100140D0210020E421002080B400AF1E
:10F88000034BD3F804351846BD465DF8047B70473A
:10F890000010014080B483B000AF786039607A68AE
:10F8A0003B68D31A23F07F4318460C37BD465DF8FA
:10F8B000047B704780B483B000AF7860044A7B68F3
:10F8C000C2F8403500BF0C37BD465DF8047B704779
:10F8D0000010014080B487B000AF7860294B1B68EE
:10F8E000002B03D1274A7B68136045E07B681A68C8
:10F8F000244B1B681B689A4210D8224B1B68214A74
:10F90000126811687A6812688A1A1A601D4B1A68A0
:10F910007B68DA611B4A7B6813602DE07B681B689B
:10F92000FB60184B1B687B61164B1B683B6109E051
:10F930003B691B68FA68D31AFB603B697B613B69D2
:10F94000DB693B613B69002B04D03B691A68FB68AB
:10F950009A42EDD33B69002B05D03B691A68FB68DE
:10F96000D21A3B691A607B68FA681A607B683A6948
:10F97000DA617B697A68DA6100BF1C37BD465DF8E1
:10F98000047B7047CC21002080B487B000AF786042
:10F99000234B1B687B617B693B6108E03A697B68AC
:10F9A0009A4208D03B697B613B69DB693B613B69FB
:10F9B000002BF3D100E000BF3B69002B29D07A690E
:10F9C0003B699A4211D1164B1B68DB69144A1360DC
:10F9D000134B1B68002B08D1124B01229A60124B6B
:10F9E00000221A60114B01221A703B691B68FB60F0
:10F9F0003B69DA697B69DA617B69DB693B613B6999
:10FA0000002B07D03B691A68FB681A443B691A60EF
:10FA100000E000BF1C37BD465DF8047B704700BFA7
:10FA2000CC21002000100140D0210020E521002041
:10FA300080B500AF1120FFF7FFFD00BF80BD80B58E
:10FA400000AF1420FFF7F8FD00BF80BD80B584B083
:10FA500000AF78600F4B1B68002B11D00D4B1B685B
:10FA60007A6850697A68926911469847F860FB682D
:10FA7000BB60BB68002B09D0B868FFF773FD05E0D9
:10FA80007B685B697A6892691046984700BF1037B7
:10FA9000BD4680BDE021002080B584B000AF2B4B77
:10FAA0001B68002B4ED000237B60FFF7E7FE024669
:10FAB000274B1B6819461046FFF7ECFEB860234B36
:10FAC0001B68FB601DE0FB681A68BB689A421CD883
:10FAD000FB681B68BA68D31ABB60FB681B687A684E
:10FAE00013447B60FB683B60FB68DB69FB603B6841
:10FAF0001B7C002B05D03B6800221A743868FFF786
:10FB0000A5FFFB68002BDED100E000BF114B1A7887
:10FB1000114B1B789A420CD10F4B1B780133DAB290
:10FB20000D4B1A700C4B1B78022B02D10A4B002292
:10FB30001A70094B1B781946084A7B6842F8213035
:10FB4000FFF77DFF00BF1037BD4680BDCC210020F0
:10FB5000D0210020DC210020DD210020D421002044
:10FB600080B483B000AF7860194B1A78194B1B78BA
:10FB70009A4223D0164B1B780133DAB2144B1A7019
:10FB8000134B1B78022B02D1114B00221A70104B21
:10FB90001B781A46104B53F822207B681A607B684A
:10FBA0001A680E4B1B6813440C4A13600B4B1B68FE
:10FBB00023F07F43094A1360012303E07B6800229E
:10FBC0001A60002318460C37BD465DF8047B704769
:10FBD000DC210020DD210020D4210020D0210020C4
:10FBE00080B584B000AF244B1B78FB73234B1B689C
:10FBF000BB602FE0204B5968FA7B13465B0013442F
:10FC0000DB000B447B60FB7B0133FB731A4B9B785F
:10FC1000FA7B9A4201D10023FB737B681B78022B8D
:10FC200002D0032B10D014E07B685B681846FFF706
:10FC3000ABFE0FE0114B1B683B603B6800221A745F
:10FC40003B68DB690D4A13600C4B1B68002BF1D13C
:10FC500000E000BF084B5B78FA7B9A42CAD1074BA1
:10FC60001A68BB689A4214BF01230023DBB218460E
:10FC70001037BD4680BD00BFC4210020CC2100202C
:10FC800080B489B000AFF860B9607A600023FB618E
:10FC900038E0214B1B68BB61BB691A68FB689A425C
:10FCA00006D9BB691A68FB68D21ABB691A602DE0D5
:10FCB000BB691B68FA68D31AFB60BB691B68FA69E9
:10FCC0001344FB61BB6900221A60134B1B687B6104
:10FCD000BB69DB69104A1360BB69DB68002B11D07C
:10FCE000BA68FB69134423F07F42BB695A60BB6961
:10FCF000DA68BB699A607B681A68BB69DA617B68FD
:10FD00007A691A60044B1B68002BC2D100BF2437EC
:10FD1000BD465DF8047B7047CC21002080B586B0DD
:10FD200000AF7860504B1B683B6185E07B68002B1F
:10FD300005D07B687B617B69DB697B603CE04B4B7A
:10FD40005A684A4B1B7819460B465B000B44DB0094
:10FD50001344FB60454B1B780133DAB2434B1A70F6
:10FD6000424B1A78414B9B789A4202D13F4B00227A
:10FD70001A70FB685B687B61FB681B78012B5BD1A9
:10FD80007B691B7C002B00D056E0FB689A687B697E
:10FD90005A60FB68DA687B699A60FB681A697B695C
:10FDA000DA60FB685A697B699A61314B1B78002BDA
:10FDB00002D07B6900225A607B695A682D4B1B6810
:10FDC000D31A23F07F432C4A93420ED87B695A689A
:10FDD000284B1B6819461046FFF75CFD02467B69FD
:10FDE0009B681A447B691A6017E0224B1A687B698A
:10FDF0005B6819461046FFF74DFDB8607B699A684D
:10FE0000BB689A4206D97B699A68BB68D21A7B693B
:10FE10001A6002E07B6900221A607B6900225A6046
:10FE20007B6900229A607B6901221A747B69002237
:10FE3000DA617869FFF74EFD7B68002B7FF476AFBF
:10FE40000A4B1A78094B5B789A427FF46FAF064BE6
:10FE50001A683B699A4214BF01230023DBB218469B
:10FE60001837BD4680BD00BFCC210020C421002032
:10FE7000E5210020D0210020FEFF7F0090B589B051
:10FE800000AF7860274B1B68002B44D0254B1B68C4
:10FE90001B68FB61FFF7F2FCB861234B1B687B61B9
:10FEA0007969B869FFF7F6FC034603333B611F4BE2
:10FEB0001B7883F00103DBB2002B01D0FFF792FC2B
:10FEC0003A69FB69934238BF13467A6913447B61F0
:10FED0007B6923F07F437B617869FFF7EBFCFFF7D9
:10FEE000CDFCF860B969F868FFF7D4FC0346DC1C68
:10FEF000B9697869FFF7CEFC03469C420DD9FFF73C
:10FF0000BDFC03461846FFF7D5FC2F20FFF704FC85
:10FF1000FFF78EFD01E0FFF787FC00BF2437BD46E9
:10FF200090BD00BFCC210020D0210020E421002082
:10FF300080B586B000AF00237B60184B1B683B6127
:10FF4000174B1B68FB603B461846FFF709FE03464C
:10FF5000FB72FFF745FE0346FB75FB7A002B07D0CB
:10FF60003B683A1D39691846FFF78AFE0123FB7585
:10FF70007B681846FFF7D2FE0346002B01D0012311
:10FF8000FB75FB7D002B02D0F868FFF777FF054B70
:10FF900000221A7000BF1837BD4680BDD021002056
:10FFA000CC210020E521002080B483B000AF0346BF
:10FFB000FB71044AFB79537000BF0C37BD465DF8F6
:10FFC000047B7047C421002080B485B000AF786006
:10FFD000134B5B780133FB73114B9B78FA7B9A428E
:10FFE00001D10023FB730E4B1B78FA7B9A4201D19F
:10FFF00000230EE07B68FA7B1A70094B5A68084BA5
:020000022000DC
:100000005B7819460B465B000B44DB001344BB6076
:10001000BB6818461437BD465DF8047B704700BFC7
:10002000C421002080B588B000AFF860B9607A6064
:100030003B600023FB610023BB7507F116031846E4
:1000400000F0E8F907F117031846FFF7BDFFB861A4
:10005000BB69002B02D10423FB6117E0BB690122BD
:100060001A70BB69FA685A60FFF708FC0246BB6960
:100070009A60BB69BA68DA60BB697A681A61BB6961
:100080003A685A61FB7D1846FFF78EFFBB7D184624
:1000900000F0CBF9FB69002B01D1FFF7D0FCFB6925
:1000A00018462037BD4680BD80B586B000AF786069
:1000B0000B46FB7000237B610023BB7307F10E032B
:1000C000184600F0A7F907F10F031846FFF77CFF69
:1000D00038613B69002B02D104237B6109E03B6955
:1000E000FA781A703B697A685A60FB7B1846FFF70A
:1000F0005BFFBB7B184600F098F97B69002B01D1B0
:10010000FFF79DFC7B6918461837BD4680BD00008F
:1001100080B500AF0D4B0022C3F840210B4B0022ED
:10012000C3F84421094B0022C3F84821074B0022A1
:10013000C3F84C21054B0022C3F80021034B0022D9
:10014000C3F80421FFF7A8FC00BF80BD00100140E8
:1001500080B500AFFFF7ECFE00BF80BD80B584B076
:1001600000AFF8607A603B600B46FB727868FFF77F
:10017000C1FA034683F00103DBB2002B01D0072351
:1001800031E07B68002B01D107232CE0FFF74CFB0B
:10019000174A3B681360174B00221A70154B002258
:1001A0005A70144AFB7A9370124A7B685360124B60
:1001B00000221A60114B00221A70114B00221A7093
:1001C0001420FFF753FA07211420FFF769FA1420CF
:1001D000FFF7FEF9F868FFF7F3FAFFF74FFB024667
:1001E000084B1A60002318461037BD4680BD00BF7B
:1001F000E0210020C4210020CC210020DC210020AF
:10020000DD210020D021002080B487B000AFF8604D
:100210000B467A60FB72154B5B68002B01D10823FB
:100220001DE07B68002B01D1072318E0FB68002B41
:1002300001D1072313E0FB681B681B7C002B01D056
:1002400008230CE0FB681B687B617B6900221A7441
:100250007B69FA7A5A747B697A685A610023184676
:100260001C37BD465DF8047B704700BFC4210020E9
:1002700080B586B000AFF860B9607A60FB687B61DA
:10028000144B5B68002B01D108231EE0FB68002B98
:1002900001D1082319E0BB68042B01D8072314E01F
:1002A0007B695B69002B01D108230EE07B695B7CD5
:1002B000012B01D1BB6800E000233B617B683A69F8
:1002C000B9687869FFF7AEFE034618461837BD4691
:1002D00080BD00BFC421002080B584B000AF78602D
:1002E0007B68FB600D4B5B68002B01D1082310E09D
:1002F0007B68002B03D0FB685B69002B01D10823CE
:1003000007E0FB6800221A740221F868FFF7CCFEB0
:10031000034618461037BD4680BD00BFC4210020EB
:1003200080B483B000AFEFF310833B603B687B6029
:1003300072B67B6818460C37BD465DF8047B704783
:1003400080B400AF62B600BFBD465DF8047B704765
:1003500080B584B000AF7860FFF7E2FFF860164B1D
:100360009B68002B1BD1144B01229A60134BD3F8CE
:100370008020134B1340104A1360104B104AC3F8EF
:1003800080200E4BD3F884300B4A53600B4B4FF058
:10039000FF32C3F884207B6800221A7002E07B6879
:1003A00001221A70FB68002B01D1FFF7C9FF00235F
:1003B00018461037BD4680BD3825002000E100E01A
:1003C000FC06FFBC80B584B000AF0346FB710F4B49
:1003D0009B68002B15D0FB79002B12D1FFF7A0FFF3
:1003E000F8600B4A094B1B681360094A074B5B68AE
:1003F0005360064B00229A60FB68002B01D1FFF787
:100400009FFF002318461037BD4680BD38250020C9
:1004100000E100E080B582B000AF78607868FFF757
:1004200097FF00BF0837BD4680BD80B582B000AFE2
:100430000346FB71FB791846FFF7C4FF00BF08377E
:10044000BD4680BD80B483B000AF78607B68002B70
:1004500001D1032304E0054B5A6E7B681A60002328
:1004600018460C37BD465DF8047B7047E821002034
:1004700080B483B000AF78604FF080427B68C2F8F0
:10048000083300BF0C37BD465DF8047B704780B46D
:1004900085B000AF0346FB80FB8803F18043002258
:1004A0001A60FB8803F180431B68FB60FB6800BF98
:1004B0001437BD465DF8047B704780B483B000AF4D
:1004C0000346FB80FB8803F180431B68002B14BFAD
:1004D00001230023DBB218460C37BD465DF8047BD0
:1004E000704780B483B000AF0346FB714FF0804289
:1004F000FB7903F00303C2F8183500BF0C37BD4683
:100500005DF8047B7047000080B483B000AF034601
:10051000FB710C4A97F907305B0952F82320FB79ED
:1005200003F01F0322FA03F303F00103002B14BFAF
:1005300001230023DBB218460C37BD465DF8047B6F
:10054000704700BF00E100E080B500AF0020FFF77A
:10055000DBFF034683F00103DBB2002B03D007214E
:10056000002001F03DFA00BF80BD000080B582B0E0
:1005700000AF00237B60144B1B78002B02D0852337
:100580007B601BE0104B00229A600F4B00225A60E8
:100590000D4B00221A610C4B0022DA60FFF7D4FFEA
:1005A00004F0B8FF034683F00103DBB2002B02D056
:1005B0000120FFF796FF044B01221A707B68184652
:1005C0000837BD4680BD00BF5022002080B485B0F2
:1005D00000AF78607B681B68FB60FB68002B03D072
:1005E000FB681A687B681A60FB6818461437BD46BA
:1005F0005DF8047B7047000080B584B000AF03460F
:10060000FB71FB79002B02D10B4BFB6001E00B4B24
:10061000FB60F868FFF7DAFFB860BB68002B05D015
:10062000BB685B68FA7910469847F2E700BF00BFE5
:100630001037BD4680BD00BF582200206022002038
:1006400080B500AF4FF48070FFF737FF0346002BF3
:100650000CD04FF48070FFF71AFF0120FFF708FF5E
:100660000D4B01225A700020FFF7C6FF4FF4827035
:10067000FFF723FF0346002B0CD04FF48270FFF7E7
:1006800006FF0220FFF7F4FE034B01229A700120BF
:10069000FFF7B2FF00BF80BD5022002080B582B0BE
:1006A00000AF78607B68002B02D10020FFF7A4FF29
:1006B00000BF0837BD4680BD80B582B000AF0023C3
:1006C000FB71FB1D1846FFF7A5FE0C4B1B7883F052
:1006D0000103DBB2002B01D0FFF748FF074BDB68BB
:1006E0000133064AD360054B01229A70FB79184604
:1006F000FFF79BFE00BF0837BD4680BD502200209B
:1007000080B483B000AF0346FB71064AFB79012138
:1007100001FA03F3C2F8043500BF0C37BD465DF89B
:10072000047B704700F0014080B483B000AF034603
:10073000FB71064AFB79012101FA03F3C2F808357F
:1007400000BF0C37BD465DF8047B704700F00140E8
:1007500080B485B000AF0346B9607A60FB73094985
:10076000FB7BA233BA6841F83320064AFB7BA233F5
:10077000DB0013447A685A6000BF1437BD465DF849
:10078000047B704700F0014080B483B000AF0346A3
:10079000FB71FB79012202FA03F318460C37BD46C0
:1007A0005DF8047B7047000080B582B000AF03465F
:1007B000FB71FB791846FFF7E7FF0246054B134034
:1007C000002B14BF01230023DBB218460837BD46B7
:1007D00080BD00BFFF3F0F0080B483B000AF7860E2
:1007E0007A68064B1340002B0CBF01230023DBB2B9
:1007F00018460C37BD465DF8047B704700C0F0FF1B
:1008000080B582B000AF0346FB71FB791846FFF755
:10081000BBFF03461846FFF7DFFF034618460837BD
:10082000BD4680BD80B582B000AF0346FB71FB7949
:100830001846FFF7A9FF0246054B1B681340002B23
:1008400014BF01230023DBB218460837BD4680BD24
:100850006822002080B582B000AF0346FB71FB79AF
:100860001846FFF791FF0246044B1B681343034AE7
:10087000136000BF0837BD4680BD00BF682200205E
:1008800080B483B000AF094B1B78002B05D1074B18
:1008900001221A7000237B6001E085237B607B6866
:1008A00018460C37BD465DF8047B70476422002073
:1008B00080B586B000AF786000237B610023FB60C9
:1008C00004237B61224BFB600023FB7435E0002393
:1008D000FB7207F10B031846FFF79CFDFB7C1846E3
:1008E000FFF752FF0246FB681340002B12D0FB7C3F
:1008F0001846FFF797FF034683F00103DBB2002B96
:1009000008D0FB7C1846FFF7A5FF7B68FA7C1A70BD
:1009100000237B61FB7A1846FFF787FD7B69002B7C
:100920000FD0FB7C1846FFF72FFF0346DB43FA6826
:100930001340FB60FB7C0133FB74FB68002BC6D1CA
:1009400000E000BF7B6918461837BD4680BD00BF78
:10095000FF3F0F0080B586B000AF0346B9607A60F4
:10096000FB73BB68002B01D10E2327E07B68002BB3
:1009700001D10E2322E000237B61FB7B1846FFF7A9
:1009800013FF034683F00103DBB2002B02D00723E1
:100990007B6112E0FB7B1846FFF744FF034683F0C0
:1009A0000103DBB2002B02D008237B6105E0FB7B57
:1009B0007A68B9681846FFF7CBFE7B691846183786
:1009C000BD4680BD80B584B000AF0346FB710023F7
:1009D000FB60FB791846FFF713FF034683F0010322
:1009E000DBB2002B02D00723FB6017E0FB7918462F
:1009F000FFF7DAFE0346002B0CD0FB791846FFF711
:100A000011FF034683F00103DBB2002B02D0082361
:100A1000FB6003E0FB791846FFF772FEFB6818469F
:100A20001037BD4680BD80B584B000AF0346FB7172
:100A30000023FB60FB791846FFF7E2FE034683F0D4
:100A40000103DBB2002B02D00723FB6019E0FB7926
:100A50001846FFF7A9FE0346002B0CD0FB79184679
:100A6000FFF7E0FE034683F00103DBB2002B02D068
:100A70000823FB6005E0FB791846FFF755FE0023CD
:100A8000FB60FB6818461037BD4680BD80B483B05C
:100A900000AF78600B46FB70FB787A681344012244
:100AA0001A6000BF0C37BD465DF8047B704780B408
:100AB00085B000AF78600B467B807B887A681344F2
:100AC00000221A607B887A6813441B68FB60FB680D
:100AD00000BF1437BD465DF8047B704780B483B017
:100AE00000AF78600B467B807B887A6813441B6874
:100AF000002B14BF01230023DBB218460C37BD4680
:100B00005DF8047B704780B483B000AF78603960D3
:100B10007B68D3F800223B681A437B68C3F8002245
:100B200000BF0C37BD465DF8047B704780B483B0CE
:100B300000AF786039607B68D3F800223B68DB4304
:100B40001A407B68C3F8002200BF0C37BD465DF831
:100B5000047B704780B483B000AF786039607B68F5
:100B60003A68C3F8042300BF0C37BD465DF8047B28
:100B7000704780B483B000AF786039607B683A68B2
:100B8000C3F8082300BF0C37BD465DF8047B7047EF
:100B900080B483B000AF786039607B68D3F80423F9
:100BA0003B681340002B14BF01230023DBB218461F
:100BB0000C37BD465DF8047B704780B483B000AF4E
:100BC00078600B46FB707B68D3F8043523F0030292
:100BD000FB7803F003031A437B68C3F8042500BFC6
:100BE0000C37BD465DF8047B704780B483B000AF1E
:100BF00078600B46FB707B68D3F8083523F003025E
:100C0000FB7803F003031A437B68C3F8082500BF91
:100C10000C37BD465DF8047B704780B483B000AFED
:100C200078600B46FB707B68D3F8103523F00F0219
:100C3000FB7803F00F031A437B68C3F8102500BF4D
:100C40000C37BD465DF8047B704780B485B000AFBB
:100C5000F8600B467A60FB72FA7AFB6802F5A872BC
:100C6000796843F8221000BF1437BD465DF8047B55
:100C7000704780B483B000AF78607B689BB250331C
:100C80009BB29B009BB218460C37BD465DF8047BB7
:100C9000704780B483B000AF78604FF480327B68D7
:100CA00002FA03F318460C37BD465DF8047B704723
:100CB00080B485B000AF78607B681B0BFB7397F93D
:100CC0000F3018461437BD465DF8047B70470000AE
:100CD00090B589B000AFF860B9607A60FB681B79A5
:100CE0001A4613465B0013449B002F4A1344BB6112
:100CF000BB691B7A002B03D008237B617B694EE024
:100D00007B68002B03D107237B617B6947E0BB69CC
:100D10007A681A60BB685A68BB695A600023FB771F
:100D20000DE0FB681C68FB7F1846FFF7A2FF034637
:100D300019462046FFF7BBFEFB7F0133FB77FB68BC
:100D40005B79FA7F9A42ECD3FB681B681846FFF781
:100D5000AFFF03461A46BB68DB781946104600F021
:100D60003FFEFB681A68BB685B7819461046FFF7C0
:100D700024FFFB681A68BB689B7819461046FFF78A
:100D800034FFFB681A68BB681B7819461046FFF7EA
:100D900044FFBB6901221A7200237B617B691846FC
:100DA0002437BD4690BD00BF6C22002080B582B0C4
:100DB00000AF78607B681B6800211846FFF766FE6D
:100DC0007B681B791946064A0B465B000B449B0067
:100DD0001344083302221A7000BF0837BD4680BD95
:100DE0006C22002080B582B000AF78607B681B6801
:100DF00010211846FFF74AFE7B681B791946064A00
:100E00000B465B000B449B001344083301221A700D
:100E100000BF0837BD4680BD6C22002080B586B07B
:100E200000AFF8607A601A460B46FB721346BB723D
:100E3000FB7A1846FFF72DFF7861BB7A002B06D0AE
:100E4000FB681B6879691846FFF784FE05E0FB68BC
:100E50001B6879691846FFF78CFEFB681B68F97AF6
:100E60007A681846FFF7F1FE00BF1837BD4680BD0F
:100E700080B584B000AFF8607A601A460B46FB720A
:100E800013463B81FB681868FB7A4FF480729A40E6
:100E9000FB7A012101FA03F313431946FFF746FEDB
:100EA000FB681B683A8911461846FFF72CFE3B7E0B
:100EB000F97A7A68F868FFF7B1FF00BF1037BD46CE
:100EC00080BD80B586B000AFF860B9601346FB7195
:100ED0000023FB7528E0FB7D1846FFF7CAFE03469A
:100EE000BB82FB7D1846FFF7D4FE3861BB8A1946EA
:100EF000F868FFF7F3FD0346002B12D03969F86854
:100F0000FFF746FE0346002B0BD0BB8A1946F86854
:100F1000FFF7CDFDBB681B68BA685168BA8A1046F6
:100F20009847FB7D0133FB75FA7DFB799A42D2D35A
:100F300000BF1837BD4680BD80B500AF042203490D
:100F40000348FFF7BEFF00BF80BD00BF6C2200203A
:100F50000090004080B483B000AF0346FB71FB7982
:100F600003F1804303F5E04301221A6000BF0C3710
:100F7000BD465DF8047B704780B483B000AF034684
:100F8000FB71FB7903F1804303F5E04318460C370E
:100F9000BD465DF8047B704780B483B000AF034664
:100FA000FB80FB8803F1804303F5E0431B68002BC3
:100FB00014BF01230023DBB218460C37BD465DF891
:100FC000047B704780B485B000AF0346FB80FB888C
:100FD00003F1804303F5E04300221A60FB8803F12C
:100FE000804303F5E0431B68FB60FB6800BF1437D8
:100FF000BD465DF8047B704780B483B000AF034604
:10100000FB710B46BB7113467B710A49FB797A79F8
:1010100051331B010B4404331A600649FB79BA793A
:1010200051331B010B441A6000BF0C37BD465DF8FD
:10103000047B70470070004080B483B000AF7860DC
:10104000044A7B68C2F8043300BF0C37BD465DF824
:10105000047B70470070004080B483B000AF7860BC
:10106000044A7B68C2F8083300BF0C37BD465DF800
:10107000047B70470070004080B400AF044B012235
:10108000C3F8002500BFBD465DF8047B704700BF74
:101090000070004080B483B000AF78603960074AC8
:1010A0007B68C2F82C36054A3B68C2F8303600BF70
:1010B0000C37BD465DF8047B704700BF00700040F0
:1010C00080B483B000AF0346FB71054AFB79C2F8D8
:1010D000F03500BF0C37BD465DF8047B704700BF9C
:1010E0000070004080B483B000AF0346FB71054A36
:1010F000FB79C2F8F43500BF0C37BD465DF8047BC0
:10110000704700BF0070004080B58CB000AF4FF456
:101110008270FFF741FF0346002B45D04FF48270E9
:10112000FFF750FF874B93F82E3083F00103DBB2BB
:10113000002B04D1834B93F82F30002B34D00023A5
:101140003B76804B5B68FB617E4B1B899BB23B848B
:101150007C4BDB68002B03D17A4B00221A7419E018
:10116000784B1A8B774B5A83764BDB68754A536002
:10117000744B1A8B734B1A81724B0022DA60714BDD
:1011800093F82E3083F00103DBB2002B02D0002055
:10119000FFF7E0FE6B4B1B6807F1180210469847FB
:1011A000684B002283F82F20664B93F82E30002BDB
:1011B00062D04FF48070FFF7EFFE0346002B5BD048
:1011C0004FF48070FFF7FEFE5E4B5A8B5D4B93F839
:1011D0002D309BB29A421CD95A4B5A8B594B93F8DB
:1011E0002D309BB2D31A9AB2564B5A83554B5A683C
:1011F000544B1B899BB21946524B5B8BCB1A5B003D
:101200001A44504B93F82D3019461046FFF742FF11
:101210002BE04C4B5A8B4B4B93F82D309BB29A42A0
:1012200014D1484BDB68002B10D0464B012283F8C9
:101230002F20444B00225A83424BDA68414B93F8EB
:101240002D3019461046FFF725FF0EE03D4B5A8B17
:101250003C4B93F82D309BB29A4206D1394B012278
:1012600083F82F20374B00225A834FF48270FFF708
:10127000A9FE0420FFF76EFE4FF48870FFF78CFE86
:101280000346002B0ED04FF48870FFF79BFE2D4BCA
:1012900000221A7402233B732A4B1B6807F10C02CD
:1012A000104698474FF48A70FFF776FE0346002BEE
:1012B00007D04FF48A70FFF785FE224B00221A7484
:1012C0003CE0204B5B69FB6235E0FB6AB3FA83F3D9
:1012D000BB624FF00042BB6A22FA03F3DB43FA6AB7
:1012E0001340FB62BB6A9BB246339BB29B00FB84FC
:1012F000FB8C1846FFF750FE0346002B1BD0FB8CDF
:101300001846FFF75FFE01233B70FB8CA3F58C733F
:10131000DB08DBB23B71FB8CA3F58C7303F0040399
:10132000002B0CBF01230023DBB27B71054B1B6834
:101330003A4610469847FB6A002BC6D100BF3037AB
:10134000BD4680BD7822002080B584B000AF7860B3
:1013500039602D4B93F82C30002B03D00823FB6011
:10136000FB684DE03B68002B03D10723FB60FB6863
:1013700046E07B68002B01D1244B7B60224A3B680E
:1013800013607B681B781846FFF79AFE7B685B78D2
:101390001846FFF7A7FE7B68DA781B4B83F82E20F0
:1013A000194B012283F82C20174B00221A74164B7C
:1013B000002283F82D20144B00225A61124B002288
:1013C00083F82F206FF00040FFF746FE4FF4827045
:1013D000FFF7F8FD7B689B781946072000F000FBBB
:1013E0000220FFF729FE084B93F82E30002B02D085
:1013F0000120FFF721FEFFF73FFE0023FB60FB68A3
:1014000018461037BD4680BD78220020345F0200A8
:1014100080B584B000AF03463960FB711F4B1B7C65
:10142000DBB2002B03D01123FB60FB6831E0FB79BA
:101430001A4A0C335B0013441B79002B07D1174B5E
:1014400093F82D300133DAB2144B83F82D20FB7959
:101450003A68D179114A0C335B0013440A461A7179
:10146000FB793A68117A0D4A0C335B0013440A4643
:101470005A71FB793968184600F02EF93B68D97922
:101480003B681A7AFB791846FFF7B6FD0023FB602C
:10149000FB6818461037BD4680BD00BF782200208B
:1014A00080B500AF064B93F82E30002B01D00023FF
:1014B00000E004231846FFF75FFD0346184680BD91
:1014C0007822002080B584B000AF78600B467B8026
:1014D0001220FFF7C1FD3B4B1B7CDBB2022B06D178
:1014E0001220FFF7A9FD1123FB60FB6866E0354B76
:1014F0001B7CDBB2012B33D1324BDB68002B06D0D7
:101500000220FFF799FD1123FB60FB6856E02D4A8E
:101510007B68D3602B4A7B8813832A4B93F82E3049
:1015200083F00103DBB2002B13D000BF4FF48070B7
:10153000FFF732FD034683F00103DBB2002BF5D148
:101540004FF48070FFF73EFD7B8819467868FFF7FF
:10155000A1FD0220FFF770FD0023FB60FB682DE07A
:101560000220FFF769FD174B01221A74154A7B68A8
:101570005360144A7B881381124B0022DA60114BAE
:1015800093F82E30002B0AD00E4A7B8853830D4BE4
:1015900093F82D3019467868FFF77CFD0BE07B88C7
:1015A00019467868FFF776FD4FF48070FFF70AFD63
:1015B0000020FFF7CFFC0023FB60FB6818461037C4
:1015C000BD4680BD7822002080B582B000AF0E4BB2
:1015D0001B7CDBB2002B03D011237B607B680FE008
:1015E000094B02221A744FF48870FFF7EBFC1020AD
:1015F000FFF722FD0C20FFF7ADFC00237B607B682A
:1016000018460837BD4680BD7822002080B400AF60
:10161000064B1B7CDBB2002B14BF01230023DBB283
:101620001846BD465DF8047B704700BF7822002055
:1016300080B582B000AFFFF7E9FF0346002B24D04E
:101640004FF48A70FFF7BEFC0820FFF783FC114BB4
:101650001B7CDBB2022B03D10E4B00221A740EE06E
:1016600042F210737B6002E07B68013B7B60094BB8
:101670001B7CDBB2002B02D07B68002BF4D1054B26
:1016800000225A60034B0022DA6000BF0837BD46D3
:1016900080BD00BF7822002080B483B000AF034635
:1016A000FB710B46BB7113467B710A49FB797A7952
:1016B00051331B010B4404331A600649FB79BA7994
:1016C00051331B010B441A6000BF0C37BD465DF857
:1016D000047B70470070004080B582B000AF0346C5
:1016E0003960FB711D48FB793A68127802F00301FA
:1016F0003A685278120102F0300211433A68927847
:10170000120202F4E06211433A68D278120302F442
:10171000805211433A681279120402F4E022114314
:101720003A685279120502F4801211433A689279AC
:10173000120602F080720A431B01034403F5A363FF
:101740001A603B68D9793B681A7AFB791846FFF72B
:10175000A3FF00BF0837BD4680BD00BF007000403A
:1017600080B483B000AF786039607B683A68C3F8B2
:10177000082300BF0C37BD465DF8047B704780B47A
:1017800083B000AF786039607B68D3F804233B688E
:10179000134018460C37BD465DF8047B704780B493
:1017A00083B000AF78600B467B807B887A681344F7
:1017B0001B6818460C37BD465DF8047B704780B443
:1017C00085B000AF78600B467B807B887A681344D5
:1017D00000221A607B887A6813441B68FB60FB68F0
:1017E00000BF1437BD465DF8047B704780B483B0FA
:1017F00000AF786039607B683A68C3F8482300BF5F
:101800000C37BD465DF8047B7047000080B588B09A
:1018100000AFF860B9607A604FF48033BB614FF479
:10182000A073FB820023FB612CE0B969F868FFF725
:10183000A6FF0346002B1CD0FB8A1946F868FFF769
:10184000AEFF0346002B14D0B969F868FFF7CEFF4E
:10185000B969F868FFF784FFFB8A1946F868FFF753
:10186000AEFF294ABB6852F82330FA69D2B210465B
:101870009847BB695B00BB61FB8A0433FB82FB6951
:101880000133FB61FA697B689A42CED34FF48073CF
:10189000FB820121F868FFF772FF0346002B12D08C
:1018A000FB8A1946F868FFF77AFF0346002B0AD037
:1018B000FB8A1946F868FFF782FF134ABB6852F8A3
:1018C0002330042098474FF48273FB820221F8688A
:1018D000FFF755FF0346002B12D0FB8A1946F86824
:1018E000FFF75DFF0346002B0AD0FB8A1946F86814
:1018F000FFF765FF044ABB6852F82330052098477C
:1019000000BF2037BD4680BDA822002080B500AFB3
:10191000042200210248FFF779FF00BF80BD00BF0D
:101920000040024080B483B000AF0346FB71094918
:1019300097F907305B09FA7902F01F02012000FADB
:1019400002F241F8232000BF0C37BD465DF8047B4E
:10195000704700BF00E100E080B483B000AF0346F1
:10196000FB71094997F907305B09FA7902F01F0208
:10197000012000FA02F2603341F8232000BF0C3747
:10198000BD465DF8047B704700E100E080B483B0A1
:1019900000AF03463960FB7197F90730002B0BDA73
:1019A0000D49FB7903F00F03043B3A68D2B25201B0
:1019B000D2B20B441A7609E0084997F907303A6821
:1019C000D2B25201D2B20B4483F8002300BF0C37CD
:1019D000BD465DF8047B704700ED00E000E100E0EB
:1019E00080B582B000AF03460A46FB711346BB7157
:1019F000BA7997F9073011461846FFF7C7FF97F9EC
:101A000007301846FFF7A8FF97F907301846FFF789
:101A100089FF00BF0837BD4680BD80B582B000AFEA
:101A20000346FB80FB88184600F024F803461B6839
:101A3000012B0CBF01230023DBB218460837BD463B
:101A400080BD80B584B000AF0346FB80FB8818469C
:101A500000F010F803461A4600231360FB8818466E
:101A600000F008F803461B68FB60FB6800BF1037F6
:101A7000BD4680BD80B483B000AF0346FB80FB88C9
:101A800003F1804303F5C04318460C37BD465DF8AB
:101A9000047B704780B483B000AF7860044A7B68F1
:101AA000C2F8043300BF0C37BD465DF8047B7047B5
:101AB0000060004080B483B000AF7860054BD3F87D
:101AC00004237B68134018460C37BD465DF8047B41
:101AD000704700BF0060004080B483B000AF786002
:101AE000074A7B6803F5A27352F823301B0A03F000
:101AF0001F0318460C37BD465DF8047B704700BFD6
:101B00000060004080B483B000AF7860074A7B6813
:101B100003F5A27352F823301B0C03F00303DBB26E
:101B200018460C37BD465DF8047B704700600040E6
:101B300080B485B000AFF860B96011461A460B4614
:101B4000FB711346BB711849174AFB6803F5A27372
:101B500052F8233023F4981323F4F853FA6802F56B
:101B6000A27241F8223010480F4AFB6803F5A273B5
:101B700052F82320BB681B0203F4F851FB791B04C5
:101B800003F440331943BB791B0503F480130B4363
:101B90001A43FB6803F5A27340F8232000BF1437F3
:101BA000BD465DF8047B70470060004080B483B0A0
:101BB00000AF78604FF0A04318460C37BD465DF883
:101BC000047B704780B584B000AF7860084611464A
:101BD0001A460346FB700B46BB7013467B703B1DD9
:101BE0001846FFF7E3FFF8607A68F978BB785B0086
:101BF00019437B789B0019433B7E1B0219433B7FB3
:101C00001B041943FB6802F5E07243F8221000BF81
:101C10001037BD4680BD80B584B002AF7860002328
:101C20000193002300930023012201217868FFF72C
:101C3000C9FF00BF0837BD4680BD80B584B000AF86
:101C400078600B46FB703B1D1846FFF7AFFFF8604E
:101C50007A687968FB6801F5E07153F8213023F464
:101C60004031FB6802F5E07243F822107A68796827
:101C7000FB6801F5E07153F82130F9780904194344
:101C8000FB6802F5E07243F8221000BF1037BD4632
:101C900080BD80B584B000AF78603B1D1846FFF76B
:101CA00085FFF8607B68012202FA03F31946F868A1
:101CB00000F03DF800BF1037BD4680BD80B584B050
:101CC00000AF78603B1D1846FFF770FFF8607B6837
:101CD000012202FA03F31946F86800F037F800BF52
:101CE0001037BD4680BD80B584B000AF78603B1D25
:101CF0001846FFF75BFFF8607A68FB6802F5E07250
:101D000053F822301B0C03F00303DBB218461037E4
:101D1000BD4680BD80B483B000AF78607B68D3F8E7
:101D2000103518460C37BD465DF8047B704780B40B
:101D300083B000AF786039607B683A68C3F80825E3
:101D400000BF0C37BD465DF8047B704780B483B09C
:101D500000AF786039607B683A68C3F80C2500BF33
:101D60000C37BD465DF8047B704780B586B000AF88
:101D7000F860B9607A604FF0A0433B61FB687B611B
:101D800012E07B699B0007F11802134453F8083CEA
:101D90001846FFF7BFFF02467B681A607B68043372
:101DA0007B607B6901337B61FA68BB681A447B699D
:101DB0009A42E6D800BF1837BD4680BD80B485B0D2
:101DC00000AF786039603B68FB607B68DB08BB6014
:101DD0007B6803F007037B6001227B6802FA03F350
:101DE000F968BA680A441278134018461437BD4699
:101DF0005DF8047B704780B485B000AF78603960CF
:101E00003B68FB607B68DB08BB607B6803F0070313
:101E10007B60FA68BB681344F968BA680A441278B0
:101E200051B201207A6800FA02F252B20A4352B269
:101E3000D2B21A7000BF1437BD465DF8047B7047FC
:101E400080B483B000AF7860084A7B6813443033B5
:101E500093F90030B3F1FF3F14BF01230023DBB23D
:101E600018460C37BD465DF8047B7047AC22002055
:101E700080B485B000AFF860B9607A60FB70BB6871
:101E800059B2104AFB68134430330A461A700D49A0
:101E9000BB687A6841F82320FB7883F00103DBB24A
:101EA000002B08D0BB68083BFA6851B2054A1344BE
:101EB0000A4683F8502000BF1437BD465DF8047B06
:101EC000704700BFAC22002080B483B000AF7860C0
:101ED000054A7B6813443033FE221A7000BF0C376A
:101EE000BD465DF8047B7047AC22002080B483B00F
:101EF00000AF7860054A7B6813443033FF221A70C4
:101F000000BF0C37BD465DF8047B7047AC22002053
:101F100080B483B000AF7860054A7B6813443033E7
:101F200093F9003018460C37BD465DF8047B7047C6
:101F3000AC22002080B483B000AF7860044A7B6894
:101F400052F8233018460C37BD465DF8047B7047C5
:101F5000AC22002080B588B000AFF860B9601346AD
:101F6000FB71FF23FB77FB79002B01D0002300E0FE
:101F700008237B61FB79002B01D0082300E00C23B0
:101F80003B617B69BB6112E00E4ABB6952F82330AA
:101F9000B3F1FF3F08D1FB79BA68B969F868FFF778
:101FA00067FFBB69FB7706E0BB690133BB61BA69B8
:101FB0003B699A42E8D397F91F3018462037BD464F
:101FC00080BD00BFAC22002080B483B000AF0346C8
:101FD000FB71FB790A4A4FF0FF3142F82310FB797D
:101FE000072B06D9FB79083B054A1344FF2283F8E7
:101FF000502000BF0C37BD465DF8047B704700BF22
:10200000AC22002080B582B000AF1D4B93F8543055
:10201000002B03D008233B603B682CE00023FB71BE
:1020200006E0FB791846FFF761FFFB790133FB718E
:10203000FB791F2BF5D90023FB7106E0FB791846CD
:10204000FFF7C2FFFB790133FB71FB790B2BF5D94D
:1020500007210620FFF7C4FC4FF4BE70FFF7F1FC28
:102060004FF00040FFF716FD054B012283F8542086
:1020700000233B603B6818460837BD4680BD00BF63
:10208000AC22002080B400AF064B93F85430002BF4
:1020900014BF01230023DBB21846BD465DF8047B64
:1020A000704700BFAC22002080B584B000AF7860DC
:1020B00039600023FB607868FFF7C2FE0346002BFF
:1020C00002D00823FB6030E03B689B78002B18D0DF
:1020D000012200217868FFF73DFF0346FB7297F964
:1020E0000B30B3F1FF3F09D097F90B003B681A782A
:1020F0003B685B787968FFF71BFD05E00423FB6014
:1021000002E07868FFF7E0FEFB68002B0DD13B682A
:102110005B78012B03D17868FFF7BBFD02E078689C
:10212000FFF7CCFD7868FFF776FDFB68184610379F
:10213000BD4680BD80B582B000AF78607868FFF79B
:10214000A8FD00BF0837BD4680BD80B582B000AF96
:1021500078607868FFF7B2FD00BF0837BD4680BDE4
:1021600080B594B000AF0023FB640023FB604FF404
:102170008073A7F8463001233B640023BB6421E051
:10218000B7F846301846FFF748FC0346002B0ED040
:10219000386CFFF78FFC0346002B08D0B7F84630A9
:1021A0001846FFF74EFCFA6C3B6C1343FB643B6C28
:1021B0005B003B64B7F846300433A7F84630BB6C8D
:1021C0000133BB64BB6C072BDAD94FF4BE70FFF749
:1021D00024FC0346002B0ED04FF4BE70FFF731FCF9
:1021E000FB6C43F00043FB6407F10C031A4601212A
:1021F0000020FFF7BAFDFB6CDBB2002B29D00123D6
:102200003B640023BB6421E03A6CFB6C1340002B61
:1022100016D0B86CFFF760FC7863B86CFFF772FCFF
:10222000034687F83330B86CFFF784FEF862FB6A28
:10223000002B05D097F83320FB6A1146786B98473E
:102240003B6C5B003B64BB6C0133BB64BB6C072B1A
:10225000DAD9FB6C002B80F2F180002387F83B3049
:102260000023BB600023FB630BE0FB6B9B0007F1CB
:10227000500213444FF0FF3243F84C2CFB6B0133F8
:10228000FB63FB6B002BF0D0002387F83B3000236F
:10229000BB6474E06B4ABB6C1344503393F9003059
:1022A00087F82B3097F82B3023F0C0037B62654A08
:1022B000BB6C1344503393F90030B3F1FF3F5BD054
:1022C0003B1D1946786AFFF779FD0346002B53D072
:1022D00097F82B309B0987F82330786AFFF718FEB0
:1022E00003461846FFF726FEF861FB69002B03D171
:1022F00097F82330032B3FD197F82330032B05D1D8
:1023000007F108031946786AFFF775FD786AFFF749
:10231000EAFC0346FB7607F10C031946786AFFF7DF
:102320004DFD78617B69002B02D0FB7E022B05D02E
:102330007B69002B20D1FB7E032B1DD197F8233026
:10234000032B10D1FB7E022B01D1032300E00223DB
:10235000FB74FB7C1946786AFFF76FFC97F83B30FB
:10236000013387F83B30FB69002B05D097F8232019
:10237000FB691146786A9847BB6C0133BB64BB6C40
:10238000032B87D997F83B30002B52D0012387F8D5
:102390003A303B461A4601210020FFF7E6FC0023B5
:1023A000FB6316E0FB6B9B0007F15002134453F8EC
:1023B000502CFB6B9B0007F150010B4453F8443C3D
:1023C0009A4203D0002387F83A3005E0FB6B0133D3
:1023D000FB63FB6B002BE5D097F83A30002B03D062
:1023E000002387F83B3024E00023FB631EE0FB6BF7
:1023F0009B0007F15002134453F8502CFB6B9B00D9
:1024000007F150010B4443F8442CFB6B9B0007F190
:102410005002134453F8482CFB6B9B0007F150010A
:102420000B4443F84C2CFB6B0133FB63FB6B002B21
:10243000DDD097F83B30002B7FF426AF00BF50373C
:10244000BD4680BDAC22002080B483B000AF0346FF
:10245000FB71094997F907305B09FA7902F01F020D
:10246000012000FA02F2603341F8232000BF0C374C
:10247000BD465DF8047B704700E100E03EDF704739
:1024800000BF184680B586B000AFF1EE103A7B6011
:102490007B6823F09F03BB60BB68E1EE103AF1EE6E
:1024A000103AFB602620FFF7CFFFFFF7E7FF7861C8
:1024B0007B693B613B69002B02D03869FDF752F81C
:1024C00000BF1837BD4680BD80B500AF00F01AFDD3
:1024D00001F000F801F014F8FFF7D4FFF8E7A0DFEF
:1024E000704700BF1846A2DF704700BF1846A6DF3E
:1024F000704700BF184663DF704700BF184680B4BE
:1025000083B000AF786039603B689A887B689A81B5
:1025100000BF0C37BD465DF8047B704780B483B0C4
:1025200000AF786039607B684FF6FF729A8100BF18
:102530000C37BD465DF8047B704780B584B000AFB2
:10254000786039603B680633FB60FB681A887B68FB
:10255000DB889A4213D1FB685B89022B0FD17B6821
:102560001B69002B0BD07B681B69FA68127B002A61
:1025700014BF01220022D2B211467868984700BFEA
:102580001037BD4680BD80B592B000AF786039602D
:1025900007F12803032200211846FCF7D9FF97F81A
:1025A0002830012262F3030387F8283097F8283097
:1025B000012262F3071387F8283097F829300122A7
:1025C00062F3030387F8293097F82930012262F378
:1025D000071387F8293097F82A30012262F3420363
:1025E00087F82A3007F12C031C2200211846FCF73B
:1025F000AFFF97F82C3043F0020387F82C3097F8A0
:102600002C306FF3C30387F82C3097F82C3043F04D
:10261000100387F82C3000233B630023BB630023A7
:10262000FB6307F128033B6400237B647B689B7A90
:10263000BB7402233B8207F10C03032200211846DE
:10264000FCF786FF3B7B012262F303033B733B7B7A
:10265000012262F307133B737B7B012262F30303C6
:102660007B737B7B012262F307137B73BB7B0122AD
:1026700062F34203BB73BB7B6FF3C303BB73BB7BD0
:102680006FF30413BB73BB7B6FF30003BB7307F1E2
:102690001403142200211846FCF75AFF07F1100317
:1026A0007B6107F10C03BB613B685B689B885B0047
:1026B0009BB2BB830023FB833B685B689B885B000A
:1026C0009BB23B843B685B681B687B627B681888B5
:1026D0007B68023307F1140207F12C01FFF703FFB7
:1026E000034618464837BD4680BD80B582B000AF6E
:1026F000786039607B68002B1AD03B68002B17D0BC
:102700003B681B88112B09D0502B0CD0102B00D00C
:102710000FE039687868FFF7F2FE0AE039687868F8
:10272000FFF7FCFE05E039687868FFF706FF00E078
:1027300000BF0837BD4680BD90B589B000AF786056
:102740003960244B07F108040FCB84E80F007B6845
:10275000002B01D10E2338E03B68002B01D10E2362
:1027600033E07B684FF6FF729A813B681A687B689A
:102770001A617B6803F10A0207F108031146184643
:10278000FFF7B9FEF861FB69002B01D0FB691CE083
:102790007B689B7ABB7601233B837A6807F1180339
:1027A00019460120FFF79BFEF861FB69002B01D061
:1027B000FB690AE039687868FFF7E5FEF861FB69B4
:1027C000002B01D0FB6900E0002318462437BD46EA
:1027D00090BD00BF385F020080B588B000AF786060
:1027E00039603B689B885B009BB2FB8107F110035B
:1027F000102200211846FCF7ABFE7B685B883B8209
:102800003B681B68FB6107F10E03BB610123BB74CE
:102810007B689B8907F1100211461846FFF767FE97
:10282000034618462037BD4680BD76DF704700BF9F
:1028300018467ADF704700BF18467CDF704700BF3C
:1028400018467FDF704700BF1846A8DF704700BFFB
:102850001846A9DF704700BF1846ADDF704700BFBC
:10286000184667DF704700BF184632DF704700BF69
:102870001846000080B586B000AF3B78012262F3B5
:1028800003033B703B78012262F307133B70194846
:1028900003F039FB03469AB23B4616491846FFF748
:1028A000CCFF78617B693B613B69002B02D03869C2
:1028B000FCF758FE3B1D082200211846FCF748FE95
:1028C0001023BB803C23FB8000233B814FF4C87363
:1028D0007B813B1D1846FFF7ACFF78617B69FB608D
:1028E000FB68002B02D0F868FCF73CFE00BF1837ED
:1028F000BD4680BD485F020080B582B000AF786001
:102900000B46FB70FB78002B02D000F0A7FD01E026
:1029100000F0C0FD00BF0837BD4680BD80B588B05F
:1029200000AF0023FB6007F10C037B6002233B81B7
:1029300007F11003082200211846FCF709FE0B4B93
:102940003B613B1D7B6107F1100319460848FFF707
:10295000F3FEF861FB69BB61BB69002B02D0B8696B
:10296000FCF700FE00BF2037BD4680BDF9280200FD
:102970000423002080B584B000AF78607B681B78AA
:10298000002B0ED1094B1B883B211846FFF74DFF4A
:10299000F860FB68BB60BB68002B02D0B868FCF72E
:1029A000E1FD00BF1037BD4680BD00BF882100207B
:1029B00080B582B000AF78607868FCF7D3FD00BFC7
:1029C0000837BD4680BD000080B58AB000AF3B1D12
:1029D0001C2200211846FCF7BBFD00237B604FF44E
:1029E0002033BB604FF47023FB6003233B74002350
:1029F0007B8200233B750A4BBB610A4BFB613B1D8D
:102A0000184601F081FF78627B6A3B623B6A002BCB
:102A100002D0386AFCF7A6FD00BF2837BD4680BD4E
:102A200075290200B129020080B582B000AFFFF71E
:102A30001CFF78607B683B603B68002B02D03868E5
:102A4000FCF790FD00BF0837BD4680BD80B582B061
:102A500000AF0346FB71FB79002B02D0032B03D0A0
:102A600003E0FFF7E1FF00E000BF00BF0837BD460D
:102A700080BD000090B593B000AF78607B681B8884
:102A8000023B542B00F2528101A252F823F000BF06
:102A9000832C02002D2D02002D2D02002D2D020071
:102AA0002D2D02002D2D02002D2D02002D2D0200B6
:102AB0002D2D02002D2D02002D2D02002D2D0200A6
:102AC0002D2D02002D2D0200E52B0200EF2B020020
:102AD0002D2D0200FD2B02002D2D02002D2D0200B8
:102AE0002D2D02002D2D02002D2D02002D2D020076
:102AF0002D2D02002D2D02002D2D02002D2D020066
:102B00002D2D02002D2D02002D2D02002D2D020055
:102B10002D2D02002D2D02002D2D02002D2D020045
:102B20002D2D02002D2D02002D2D02002D2D020035
:102B30002D2D02002D2D02002D2D02002D2D020025
:102B40002D2D02002D2D02002D2D02002D2D020015
:102B50002D2D02002D2D02002D2D02002D2D020005
:102B60002D2D02002D2D02002D2D02002D2D0200F5
:102B70002D2D0200432C02002D2D02002D2D0200D0
:102B80002D2D02002D2D02002D2D02002D2D0200D5
:102B90002D2D02002D2D02002D2D02002D2D0200C5
:102BA0002D2D02002D2D02002D2D02002D2D0200B5
:102BB0002D2D02002D2D02002D2D02002D2D0200A5
:102BC0002D2D02002D2D02002D2D0200A32C020020
:102BD000212C02002D2D02002D2D02000D2D0200B2
:102BE000632C02007B689A885A4B1A80ADE0594BDF
:102BF0004FF6FF721A8000F04DFCA6E0554B188886
:102C0000002300228521FFF71CFE78647B6C3B6467
:102C10003B6C002B00F08C80386CFCF7A3FC87E049
:102C20004C4B1888002300220021FFF712FE786425
:102C30007B6CFB63FB6B002B7CD0F86BFCF792FC8E
:102C400078E07B689B8813211846FFF7EEFD7864D7
:102C50007B6CBB63BB6B002B6ED0B86BFCF782FC4C
:102C60006AE07B689B8813211846FFF7DEFD7864D5
:102C70007B6C7B637B6B002B60D0786BFCF772FC0A
:102C80005CE07B689B8800211846FFF7EAFD7864CA
:102C90007B6C3B633B6B002B52D0386BFCF762FCC8
:102CA0004EE07B6807F118040633186859689A6883
:102CB000DB680FC43B7E002B44D097F82030042BF8
:102CC00007D097F82030062B03D097F82030052B3B
:102CD00038D13B7E022B02D102233B7201E001235B
:102CE0003B724FF4C173BB817B689B8807F108027C
:102CF00011461846FFF7A9FD78647B6CFB62FB6AFE
:102D0000002B1FD0F86AFCF72DFC1BE07B689B882A
:102D100017211846FFF7A1FD78647B6CBB62BB6A84
:102D2000002B11D0B86AFCF71DFC0DE000BF0CE0D1
:102D300000BF0AE000BF08E000BF06E000BF04E0FB
:102D400000BF02E000BF00E000BF00BF4C37BD463F
:102D500090BD00BF8821002080B582B000AF7860B0
:102D6000786801F007FF7868FFF784FE7968054806
:102D7000FFF7BBFC786801F023FD00BF0837BD46B4
:102D800080BD00BF0423002080B58EB000AF224B71
:102D90001B68FB6107F11C00002350221F4902F051
:102DA000C5FB78637B6B3B633B6B002B02D0386BBE
:102DB000FCF7D8FB3B461A460121002002F03CFC00
:102DC000F8623B7D6FF300033B75FB6ABB62BB6A35
:102DD000002B02D0B86AFCF7C5FB17233B823B46A9
:102DE000184602F053FCF862FB6A7B627B6A002B98
:102DF00002D0786AFCF7B6FB094802F0EBFBF862F8
:102E0000FB6A3B623B6A002B02D0386AFCF7AAFBE4
:102E100000BF3837BD4680BD505F02001823002038
:102E2000592D020080B586B000AF78607B68BB602A
:102E30000223BB8107F1080319460848FFF7CCFCC1
:102E400078617B693B613B69002B02D03869FCF7F4
:102E500089FB00BF1837BD4680BD00BF042300209A
:102E600080B5ACB002AF0123BB80244B9B7ABB7111
:102E700007F164033C2200211846FCF769FB02239A
:102E800087F86430002387F86630062387F86730B8
:102E900007F128033C2200211846FCF759FB0123C7
:102EA0003B873B1DFB6307F10803202200211846E6
:102EB000FCF74EFB0123FB724023BB613C23FB610B
:102EC00007F1080207F1280107F1640000230093CD
:102ED0000B4B01F08FFAC7F8A400D7F8A430C7F85D
:102EE000A030D7F8A030002B03D0D7F8A000FCF713
:102EF00039FB00BFA837BD4680BD00BF04230020BA
:102F00004D2A020080B584B000AF0023154A052188
:102F10000020FDF723F9F860FB68BB60BB68002B5D
:102F200002D0B868FCF71EFBFFF72EFFFFF7A2FCEC
:102F3000FFF7F4FC0C4800F0A7F9FFF791FFFFF74B
:102F400043FD032001F056FB78607B683B603B68E3
:102F5000002B02D03868FCF705FB00BF1037BD46D8
:102F600080BD00BF682300208C21002080B483B086
:102F700000AF78600B467B807B887A6813441846E4
:102F80000C37BD465DF8047B704780B483B000AF5A
:102F900078607B68D3F81035DBB218460C37BD4635
:102FA0005DF8047B704780B483B000AF78607B68C5
:102FB0009BB250339BB29B009BB218460C37BD4668
:102FC0005DF8047B704780B485B000AF78600B4635
:102FD000FB70FB78FB607B684FF47A5202FB03F2D4
:102FE000FB6822FA03F318461437BD465DF8047BEC
:102FF000704790B583B000AF786039607B681C681B
:103000003868FFF7D0FF034619462046FFF7AEFFAA
:10301000034618460C37BD4690BD80B582B000AF60
:10302000786039607B681B681846FFF7AEFF03467F
:1030300019463868FFF7C7FF034618460837BD46EC
:1030400080BD000080B485B000AF7860254BFB6088
:103050007B68002B40D0244B1A68F9687B6800BF5E
:1030600000BF00BF00BF00BF00BF00BF00BF8A425B
:103070002FD000BF00BF00BF00BF00BF00BF00BF18
:1030800000BF00BF00BF00BF00BF00BF00BF00BF48
:1030900000BF00BF00BF00BF00BF00BF00BF00BF38
:1030A00000BF00BF00BF00BF00BF00BF00BF00BF28
:1030B00000BF00BF00BF00BF00BF00BF00BF00BF18
:1030C00000BF00BF00BF00BF00BF00BF00BF00BF08
:1030D00000BF013BC3D17B6000BF1437BD465DF824
:1030E000047B70470024F4009821002080B582B052
:1030F00000AF03463960FB80FB88B3F5A07F02D1A7
:103100001920FFF717F800BF0837BD4680BD000043
:1031100080B584B000AF02210E48FEF7D3F9F86005
:10312000FB68BB60BB68002B02D0B868FCF71AFADA
:1031300002210948FEF7C6F9F860FB687B607B68EE
:10314000002B02D07868FCF70DFA00BF1037BD469F
:1031500080BD00BFE0230020E42300200000000029
:1031600090B587B000AF78607B681B78002B66D184
:103170007B685B68002B62D01920FEF7E6FF3C4BB2
:103180001B6801333A4A13600023FB7537E07B6804
:103190005A68FB7D5B001344B3F9003007EE903AA8
:1031A000F8EEE77A17EE900A02F0ECFB2EA3D3E9D3
:1031B000002302F03BFC03460C46184621464FF024
:1031C00000022C4B02F05CFD03460C4618462146DB
:1031D00002F03EFE03463B61FB7DD7ED047A9FED96
:1031E000267A67EE877AFDEEE77AC7ED007A3A88AD
:1031F00011B2224A22F81310FB7D0133FB75FB7DCF
:10320000012BC4D91E4B01221A70194B1B68642B69
:1032100005D1FEF70DFA1B4B01221A701CE07B68EA
:103220005B6802211846FEF74DF9F860FB68BB6049
:10323000BB68002B10D0B868FCF794F90CE07B68F1
:103240001B78022B09D10520FFF7FCFEFFF760FF7A
:10325000074B00221A6000E000BF00BF1C37BD46CC
:1032600090BD00BFAFF30080666666666666EA3FA3
:10327000942100200000704000007A44F0230020D8
:10328000E9230020E823002080B59AB002AF7860DF
:103290007B681B686A4A13607B685B68694A1360D5
:1032A000FDF7EEFAF865FB6DBB65BB6D002B02D038
:1032B000B86DFCF757F9644A07F1240392E803005C
:1032C00083E80300032387F8263007F124035F4ACD
:1032D00019465F48FDF7FCFCF865FB6D7B657B6D6F
:1032E000002B02D0786DFCF73DF9FEF7CBFE0346CC
:1032F00083F00103DBB2002B02D0FEF783FEF865FA
:1033000007F1200300210A461A800A469A7007F145
:10331000200319461920FEF7C7FEF865FB6D3B65D3
:103320003B6D002B02D0386DFCF71CF9444B1B6839
:10333000013B19464648FFF770FEF8640123FA6C1A
:1033400000214348FDF76AFD3D4B1B681946404884
:10335000FFF763FEB864002300930223BA6C0121D7
:103360003B48FDF785FD01213948FFF742FE7864AF
:10337000FEF796F838643748FDF79AFAF865FB6D62
:10338000FB63FB6B002B02D0F86BFCF7EBF8314BC7
:103390001B783A6C796C1846FDF7DCFAF865FB6D22
:1033A000BB63BB6B002B02D0B86BFCF7DBF807F1FB
:1033B000140300221A605A601A720223BB7501239B
:1033C000FB7502233B760623FB7607F1080307F122
:1033D000140207CA03C31A700823FB731E49002096
:1033E000FDF7B2FFF865FB6D7B637B6B002B02D0B2
:1033F000786BFCF7B7F807F1140319460020FEF7C5
:1034000007F8F865FB6D3B633B6B002B02D0386B14
:10341000FCF7A8F807F1080319460120FDF7F8FFAB
:10342000F865FB6DFB62FB6A002B02D0F86AFCF7C3
:1034300099F8FFF76DFE00BF6037BD4680BD00BF45
:10344000EC230020F42300205C5F0200ED3002003A
:10345000545F0200EA2300206131020080B582B08F
:1034600000AF0A48FDF7A2FC094B1B781846FDF790
:10347000A9FA78607B683B603B68002B02D0386813
:10348000FCF770F800BF0837BD4680BD545F0200EE
:10349000EA23002080B582B000AF0C48FDF7A2FC03
:1034A0000B4B1B781846FDF7BEFA78607B683B60D3
:1034B0003B68002B02D03868FCF754F81920FEF75F
:1034C00044FE00BF0837BD4680BD00BF545F020008
:1034D000EA23002080B500AF064B1B78002B06D0F6
:1034E000054B1B6805489847024B00221A7000BF25
:1034F00080BD00BFE9230020F4230020F02300203A
:1035000080B500AF074B1B78002B08D000BFFEF73B
:103510005BF80346002BFAD1024B00221A7000BF61
:1035200080BD00BFE82300206DDF704700BF184654
:1035300072DF704700BF184679DF704700BF18463A
:103540007DDF704700BF184665DF704700BF184633
:1035500080B483B000AF03463960FB80FB88DAB2E9
:103560003B681A703B680133FA88120A92B2D2B2F1
:103570001A70022318460C37BD465DF8047B70476D
:1035800080B588B000AFF860B9601346FB80BB68B7
:103590001B8803F10902FB889A4201D90C2352E0EF
:1035A00007F114031846FFF7BFFFF861FB69002B12
:1035B00001D0FB6947E0BB681B881A46FB681344CF
:1035C00008221A70BB681B8801339AB2BB681A8044
:1035D000BB681B881A46FB6813441B221A70BB6821
:1035E0001B8801339AB2BB681A80BB681B881A46D5
:1035F000FB68981807F1140301330622194602F0FC
:1036000077FCBB681B8806339AB2BB681A803B7D87
:1036100023F00103DBB2002B07D1BB681B881A46DD
:10362000FB68134400221A7006E0BB681B881A4628
:10363000FB68134401221A70BB681B8801339AB2DD
:10364000BB681A80002318462037BD4680BD80B570
:1036500088B000AFF860B9607A607B80FB681B7847
:10366000012B05D1FB685B78002B01D1072377E0A4
:103670007B681B889A1C7B889A420DD8FB681B7854
:10368000012B0BD17B681B881A46FB685B781344BF
:103690009A1C7B889A4201D90C2361E07B681B88C5
:1036A0007A88D31A9BB2023BBB83BB8BFB827B68BD
:1036B0001B880233BA68134407F1160211461846F4
:1036C000FFF73EFFB861BB69002B01D0BB6947E043
:1036D000FB681B78022B06D1FB8ABA8B9A4202D375
:1036E0000923FB7712E00823FB77FB681B78012B8B
:1036F0000AD1FB685B789BB2BA8B9A4204D3FB6811
:103700005B789BB2FB8201E0BB8BFB82FB8AFE2BCA
:1037100001D90C2324E07B681B881A46BB6813443C
:10372000FA8AD2B20132D2B21A707B681B88013396
:103730009AB27B681A807B681B881A46BB68134460
:10374000FA7F1A707B681B8801339AB27B681A80F3
:103750007B681A88FB8A13449AB27B681A8000231C
:1037600018462037BD4680BD80B586B000AFF860F2
:10377000B9601346FB80BB681B881A1DFB889A4200
:1037800001D90C2338E007F112031846FFF7D4FEE5
:1037900078617B69002B01D07B692DE0BB681B88B9
:1037A0001A46FB68134403221A70BB681B88013356
:1037B0009AB2BB681A80BB681B881A46FB68134420
:1037C00019221A70BB681B8801339AB2BB681A8031
:1037D0007A8ABB681B881946FB680B441946104659
:1037E000FFF7B6FE03461946BB681A888BB213442E
:1037F0009AB2BB681A80002318461837BD4680BDB0
:1038000080B485B000AFB9607A601A460346FB7396
:103810001346BB817B681B88DA1CBB899A4201D99D
:103820000C2327E07B681B881A46BB6813440222DE
:103830001A707B681B8801339AB27B681A807B6898
:103840001B881A46BB68134401221A707B681B88C8
:1038500001339AB27B681A807B681B881A46BB6862
:103860001344FA7B1A707B681B8801339AB27B6819
:103870001A80002318461437BD465DF8047B704754
:1038800080B485B000AFB9607A601A460346FB7316
:103890001346BB817B681B88DA1CBB899A4201D91D
:1038A0000C2327E07B681B881A46BB68134402225E
:1038B0001A707B681B8801339AB27B681A807B6818
:1038C0001B881A46BB6813440A221A707B681B883F
:1038D00001339AB27B681A807B681B881A46BB68E2
:1038E0001344FA7B1A707B681B8801339AB27B6899
:1038F0001A80002318461437BD465DF8047B7047D4
:1039000080B58AB000AFF8607B600B46FB7213464F
:10391000BB72002387F823303B6B1B883B8400235A
:103920007B6268E0FB685A687B6A9B001A4407F177
:1039300010031068186007F1170107F11003002247
:103940001846FFF701FEF861FB69002B01D0FB6907
:103950006EE0FB7DBA7A9A424AD197F82330002B69
:1039600001D0002300E00223FB763B6B1B881A4644
:10397000FB7D1A44FB7E1A44BB8E9A4201DD0C2368
:1039800056E097F8233083F00103DBB2002B15D00B
:103990003B6B1B8801339AB23B6B1A803B6B1B88D5
:1039A0001A467B681344FA7A1A703B6B1B88013302
:1039B0009AB23B6B1A80012387F823303B6B1B883C
:1039C0001A467B681A4407F1170107F110031846DD
:1039D000FFF7BAFDF861FB69002B01D0FB6927E016
:1039E0003B6B1A88FB7D9BB213449AB23B6B1A80E7
:1039F0007B6A01337B62FB681B881A467B6A9A42AA
:103A000090DC97F82330002B11D03B6B1A883B8C4D
:103A1000D31A9BB2013B3B833B8BFF2B01D90C2379
:103A200006E03B8C7A6813443A8BD2B21A700023BA
:103A300018462837BD4680BD80B588B002AFF86013
:103A40007B600B46FB721346BB72F97ABB8C019309
:103A50003B6A00937B680222F868FFF751FF7861A8
:103A60007B69002B01D07B6910E0B97ABB8C019394
:103A70003B6A00937B681022F868FFF741FF78618A
:103A80007B69002B01D07B6900E0002318461837C2
:103A9000BD4680BD80B483B000AF78607B681B8872
:103AA000052B0AD97B681B88B3F5486F07D97B685B
:103AB0001B884FF6FF72934201D0072325E07B68F5
:103AC0005B88052B0AD97B685B88B3F5486F07D9FB
:103AD0007B685B884FF6FF72934201D0072314E0A6
:103AE0007B681B884FF6FF7293420DD07B685B8822
:103AF0004FF6FF72934207D07B681A887B685B8819
:103B00009A4201D9072300E0002318460C37BD462E
:103B10005DF8047B704780B586B000AFF860B9608F
:103B20007A607B807B681B889A1D7B889A4201D9CA
:103B30000C234BE0F868FFF7ADFF78617B69002B41
:103B400001D07B6942E07B681B881A46BB6813443E
:103B500005221A707B681B8801339AB27B681A8031
:103B60007B681B881A46BB68134412221A707B6854
:103B70001B8801339AB27B681A80FB681A887B68BD
:103B80001B881946BB680B4419461046FFF7E0FC3A
:103B9000034619467B681A888BB213449AB27B6835
:103BA0001A80FB685A887B681B881946BB680B44DF
:103BB00019461046FFF7CCFC034619467B681A8865
:103BC0008BB213449AB27B681A80002318461837C8
:103BD000BD4680BD80B586B000AFF860B9607A6040
:103BE0007B80FB689B8802337B617B681B881A465D
:103BF0007B6913449A1C7B889A4201D90C2354E0B8
:103C00007B69FE2B01D90C234FE07B681B881A4689
:103C1000BB6813447A69D2B20132D2B21A707B689F
:103C20001B8801339AB27B681A807B681B881A460E
:103C3000BB681344FF221A707B681B8801339AB259
:103C40007B681A80FB681A887B681B881946BB68EA
:103C50000B4419461046FFF77BFC034619467B6868
:103C60001A888BB213449AB27B681A80FB689B88CF
:103C7000002B19D0FB689B68002B01D1072314E0AF
:103C80007B681B881A46BB689818FB689968FB68B4
:103C90009B881A4602F02CF97B681A88FB689B887F
:103CA00013449AB27B681A80002318461837BD4621
:103CB00080BD80B588B000AFF860B9607A607B8065
:103CC000FB689B6A002B01D107236DE00023FB7783
:103CD00063E0FB68996AFA7F13465B0013449B001C
:103CE0000B44BB61BB699B8802337B617B69FE2B04
:103CF00001D90C2358E07B681B881A46BB68134423
:103D00007A69D2B20132D2B21A707B681B88013351
:103D10009AB27B681A807B681B881A46BB6813447A
:103D200016221A707B681B8801339AB27B681A804E
:103D3000BB691A887B681B881946BB680B44194607
:103D40001046FFF705FC034619467B681A888BB2BC
:103D500013449AB27B681A80BB699B88002B19D0E8
:103D6000BB699B68002B01D107231DE07B681B8882
:103D70001A46BB689818BB699968BB699B881A4644
:103D800002F0B6F87B681A88BB699B8813449AB224
:103D90007B681A80FB7F0133FB77FB6893F82C303C
:103DA000FA7F9A4295D3002318462037BD4680BD3E
:103DB00080B588B002AFF860B9607A6000237B619B
:103DC0007B681B887B827B6800221A80FB6893F8E3
:103DD0002D30002B0BD07B8A1A467968B868FFF724
:103DE000CFFB78617B69002B01D07B69BAE0FB686F
:103DF0009B78002B0BD07B8A1A467968B868FFF74E
:103E0000B3FC78617B69002B01D07B69AAE0FB6879
:103E1000DB78002B0DD0FB68DB7858B27B8A7A68A0
:103E2000B968FFF7EDFC78617B69002B01D07B69F5
:103E300098E0FB685B68002B0ED0FB685B6893F929
:103E400000007B8A7A68B968FFF71AFD78617B69A0
:103E5000002B01D07B6985E0FB681B89002B11D00A
:103E6000FB6803F108007B8A01937B680093BB68C1
:103E700006220221FFF7E0FD78617B69002B01D06B
:103E80007B696FE0FB681B8A002B11D0FB6803F194
:103E900010007B8A01937B680093BB680722032193
:103EA000FFF7CAFD78617B69002B01D07B6959E07F
:103EB000FB681B8B002B11D0FB6803F118007B8A79
:103EC00001937B680093BB6815221421FFF7B4FDB2
:103ED00078617B69002B01D07B6943E0FB681B6A3A
:103EE000002B0CD0FB68186A7B8A7A68B968FFF7E8
:103EF00012FE78617B69002B01D07B6932E0FB68A0
:103F00005B6A002B0CD0FB68586A7B8A7A68B968B8
:103F1000FFF760FE78617B69002B01D07B6921E0AF
:103F2000FB6893F82C30002B0BD07B8A7A68B96839
:103F3000F868FFF7BEFE78617B69002B01D07B69D2
:103F400010E0FB681B78002B0BD07B8A7A68B9687D
:103F5000F868FFF77CFB78617B69002B01D07B69F7
:103F600000E07B6918461837BD4680BD80B483B039
:103F700000AF78607B68DB7803F00403002B01D18D
:103F8000072300E0002318460C37BD465DF8047B8C
:103F9000704780B483B000AF78607B68DB78002B1B
:103FA00001D0072300E0002318460C37BD465DF81A
:103FB000047B704780B596B000AF786039601F23EE
:103FC000A7F84A301F23A7F848307B68002B1AD087
:103FD0007868FFF7CBFFF864FB6C002B01D0FB6C1B
:103FE00044E007F14A0207F1280319467868FFF711
:103FF000DFFEF864FB6C002B01D0FB6C36E007F1B0
:1040000028037B6504E000237B650023A7F84A3082
:104010003B68002B1AD03868FFF7BBFFF864FB6CD5
:10402000002B01D0FB6C21E007F1480207F10803E7
:1040300019463868FFF7BCFEF864FB6C002B01D012
:10404000FB6C13E007F108033B6504E000233B65CC
:104050000023A7F84830B7F84A30D9B2B7F848304B
:10406000DBB23A6D786DFFF763FA034618465837AE
:10407000BD4680BD73DF704700BF184680B400AFF7
:10408000034B1B781846BD465DF8047B704700BFA4
:10409000CA24002080B485B000AF78600023FB60A4
:1040A0000AE07A68FB6813441B78002B01D00123D7
:1040B00006E0FB680133FB60FB68052BF1D90023A8
:1040C00018461437BD465DF8047B704780B483B052
:1040D00000AF0346FB71FB795A1C084B83FB0213AC
:1040E0005910D317C91A0B469B000B44D11ACBB2F7
:1040F00018460C37BD465DF8047B704767666666F8
:1041000080B483B000AF78607B68DB7B012B03D188
:104110007B689A88034B1A8000BF0C37BD465DF858
:10412000047B7047BC24002080B584B000AF786069
:104130000D4B00221A707B689A880C4B1B889A42A0
:104140000ED1012000F056FAF860FB68002B07D072
:10415000074B1B68002B03D0054B1B68F86898477A
:1041600000BF1037BD4680BDC8240020BC240020FD
:10417000C424002080B584B000AF78607B681B7ACF
:10418000002B15D10C4B1B781846FFF79FFF0346F9
:10419000184600F02FFAF860FB68002B09D0074B97
:1041A0001B68002B05D0054B1B68F868984700E09A
:1041B00000BF1037BD4680BDFB230020C424002073
:1041C00080B582B000AF3B1D1846FCF73BF97B6819
:1041D000002B14BF01230023DBB218460837BD466D
:1041E00080BD000080B584B000AF0346FB711C4861
:1041F000FFF750FF0346FB73FB79013B032B29D8E4
:1042000001A252F823F000BF194202002B42020023
:104210003D42020049420200124B5B78002B04D061
:10422000FB7B002B01D0012315E00E4B9B78002B6C
:1042300004D0FB7B002B01D002230CE0094BDB7880
:10424000002B01D0032306E0064B1B79002B01D085
:10425000042300E0002318461037BD4680BD00BF90
:104260001D240020FC23002080B483B000AF7860C0
:104270000A4B01221A707B68094A5A607B68012246
:104280001A707B6800229A817B6800225A81002381
:1042900018460C37BD465DF8047B7047FA230020B2
:1042A0001C24002080B483B000AF78600C4B022245
:1042B0001A707B680B4A5A607B6801221A700A4B9D
:1042C000DB689AB27B689A81074B9B689AB27B68DD
:1042D0005A81002318460C37BD465DF8047B7047B1
:1042E000FA2300201C240020FC23002080B584B089
:1042F00000AF78601A4B1B699AB27B685A81184BE1
:104300005B699AB27B689A81154B1B78002B1FD092
:10431000144B1B7883F00103DBB2002B18D0FFF79E
:10432000ADFE0346002B13D07B6802221A720E4B9F
:104330000422DA7000210C48FFF73CFEF860FB68AD
:10434000002B01D0FB6807E0084B05221A7002E041
:10435000064B03221A70002318461037BD4680BD55
:10436000FC230020C824002024240020FA2300205D
:1043700080B584B000AF78601A4B9B699AB27B68B5
:104380005A81184BDB699AB27B689A81154B1B786E
:10439000002B1FD0144B1B7883F00103DBB2002BE2
:1043A00018D0FFF76BFE0346002B13D07B68022268
:1043B0001A720E4B0422DA7000210C48FFF7FAFD46
:1043C000F860FB68002B01D0FB6807E0084B062271
:1043D0001A7002E0064B04221A70002318461037A8
:1043E000BD4680BDFC230020C824002024240020DA
:1043F000FA230020B0B588B000AFF860B9607A60E9
:104400003B60FB68002B02D07B68002B01D10E23A0
:10441000D2E06B4B01221A706A4B00221A706A4A72
:104420007B6814461D460FCD0FC495E80F0084E845
:104430000F00664A3B681360654A3B6B1360654B2F
:104440004FF6FF721A80072200216348FBF780F8BD
:104450003C2200216148FBF77BF8FB681A785F4B30
:104460001A70FB689A785D4B9A70FB68DA785B4B40
:10447000DA70FB685A78594B5A70584BFA68103307
:10448000103292E8030083E80300544BFA680833C3
:10449000083292E8030083E80300504BFA681833AF
:1044A000183292E8030083E80300FB685B6A002B84
:1044B00029D04A4B4A4A5A62494B4A4A9A60474B6A
:1044C0005B6AFA68526A12881A80444B5B6AFA681F
:1044D000526A92889A800023FB610DE0FB685B6A58
:1044E0009A68FB69134419783E4AFB6913440A46EB
:1044F0001A70FB690133FB61384B5B6A9B881A4673
:10450000FB699A42EAD8FB689B6A002B33D0364B92
:10451000364A9A60314B344A9A62304B9B6A334A2E
:104520009A602E4B9B6AFA68926A92889A802B4B0B
:104530009B6AFA68926A12881A800023BB610DE0B8
:10454000FB689B6A9A68BB6913441978274ABB6960
:1045500013440A461A70BB690133BB611F4B9B6A47
:104560009B881A46BB699A42EAD8FB6893F82C20CC
:104570001A4B83F82C20FB681B6A002B0ED0174BBC
:104580001B4A1A62154B1B6AFA68126A52885A80D3
:10459000124B1B6AFA68126A12881A80FB685B6801
:1045A000002B03D0FB685B680C4A5360B9680B486A
:1045B000FFF700FD78617B6918462037BD46B0BD26
:1045C000F8230020FB230020FC230020C02400202F
:1045D000C4240020BC2400201C240020242400200B
:1045E000602400206C2400208C24002098240020CB
:1045F000B824002080B588B000AF0346FB71654B3E
:104600001B7883F00103DBB2002B01D00823BCE050
:10461000614AFB791370FFF7D3FD0346002B04D0EA
:104620005E4B01221A700023AFE0072200215C4894
:10463000FAF78EFF5B4B5B78002B03D0564B1B7851
:10464000012B0FD0574B9B78002B03D0524B1B787C
:10465000012B07D0534B9B78002B12D04E4B1B786D
:10466000022B0ED1504B1B68002B07D04F4B012261
:104670001A704D4B1B680820984702E04B4B0022F4
:104680001A70FB791846FFF7ADFD03461A46424BF8
:104690001A70454B1B68002B1DD03F4B1B78032B1A
:1046A00003D03D4B1B78042B15D13E4B1B78002BC0
:1046B00011D03F4B1B7883F00103DBB2002B0AD0F3
:1046C0003C4B00221A703C4B01221A70364B1B687F
:1046D0000720984702E0384B00221A7007F10C03BC
:1046E000102200211846FAF733FF00233B73002302
:1046F0003B75294B1B78042B2CD801A252F823F0D0
:104700004D470200154702002347020031470200CF
:104710003F47020007F10C031846FFF7A5FDF861BB
:1047200019E007F10C031846FFF7BCFDF86112E031
:1047300007F10C031846FFF7D9FDF8610BE007F10C
:104740000C031846FFF714FEF86104E01B4B00222F
:104750001A7000E000BF104B1B78002B0AD007F145
:104760000C031846FFF786FCF861FB69002B01D0AB
:10477000FB690AE00C4B1B68002B05D00A4B1B6839
:104780000E4A127810469847002318462037BD4637
:1047900080BD00BFF8230020FB230020F923002068
:1047A0001C240020FC230020C024002023240020FF
:1047B000C8240020CA240020C9240020FA23002095
:1047C00080B582B000AF78607B681B88112B08D061
:1047D0001B2B0AD0102B00D00BE07868FFF790FC61
:1047E00007E07868FFF7A0FC03E07868FFF7C2FCF9
:1047F00000BF00BF0837BD4680BD75DF704700BFF2
:10480000184676DF704700BF18467ADF704700BF52
:1048100018467BDF704700BF1846000080B483B0A5
:1048200000AF78607B685A88094B1B889A4207D38F
:104830007B685A88064B5B889A4201D8012300E0C6
:10484000002318460C37BD465DF8047B704700BF57
:10485000E824002080B586B000AF7860264B1B8826
:104860004FF6FF72934243D0244B1B780133DAB2E8
:10487000224B1A70224B1A7B204B1B789A4212D380
:104880001D4B1B881F491846FFF7B7FF78617B69EE
:10489000002B2DD01A4B9B69002B29D0184B9B69FC
:1048A0007869984724E0154B00221A70144B1B7C42
:1048B000002B11D0104B1B883B211846FFF7A1FF9E
:1048C00038613B69002B07D00D4B9B69002B03D04F
:1048D0000B4B9B6938699847094B5B69002B07D0E4
:1048E00000233B73064B5B6907F10C0210469847A7
:1048F00000BF1837BD4680BDF2240020F024002000
:10490000CC240020E8240020B0B584B000AF78604B
:104910001C4A7B6814461D460FCD0FC495E807005E
:1049200084E80700184B00221A707B681B68002B74
:104930000ED07B681A68154B1068516803C3134882
:10494000FFF763FFF860FB68002B0AD0FB6815E0F7
:104950000E48FFF75EFFF860FB68002B01D0FB6894
:104960000CE00B4B4FF6FF721A800A4B00221A70B4
:10497000094A00210948FBF747FC0346184610374F
:10498000BD46B0BDCC2400201C250020E82400201A
:10499000F2240020F024002055480200645F020049
:1049A00080B584B000AF2448FFF738FF034683F09A
:1049B0000103DBB2002B2DD0204B1B78002B0BD03A
:1049C0001F4B5B69002B30D000233B711C4B5B6994
:1049D0003A1D1046984728E01A4B1B78002B03D14C
:1049E000174B5B68FB6002E0154B9B68FB60164B46
:1049F0000022F9681846FBF73BFCB860BB68002B47
:104A000013D00F4B9B69002B0FD00D4B9B69B868DF
:104A100098470AE00A4B5B69002B06D001233B70E4
:104A2000074B5B693A4610469847044B00221A70C0
:104A300000BF1037BD4680BDF42400201C25002097
:104A4000CC240020F0240020FC24002080B582B07B
:104A500000AF78607B689A880A4B1A800A4A7B68A4
:104A6000103393E8030082E80300084B00221A7019
:104A7000074BDB89002B01D1FFF792FF00BF0837FE
:104A8000BD4680BDF2240020F4240020F024002044
:104A9000CC24002080B584B000AF78600D4B4FF679
:104AA000FF721A800C4B00221A700C4B1846FBF751
:104AB00013FCF860FB68002B07D0094B9B69002BA7
:104AC00003D0074B9B69F868984700BF1037BD4675
:104AD00080BD00BFF2240020F0240020FC24002030
:104AE000CC24002080B584B000AF78607B680633AA
:104AF000FB60FB681A88134BDB899A421ED1FB6866
:104B00005B89022B1AD1FB680C33184600F06DF854
:104B10000346002B02D0FFF743FF0FE00A4B184675
:104B2000FBF7DAFBB860BB68002B07D0054B9B692D
:104B3000002B03D0034B9B69B868984700BF103720
:104B4000BD4680BDCC240020FC24002080B582B06E
:104B500000AF7860064A7B68083393E8030082E878
:104B60000300FFF71DFF00BF0837BD4680BD00BF33
:104B7000F424002080B582B000AF78607B681B8889
:104B8000112B0DD0112B02DC102B05D014E0122BB1
:104B90000ED0502B08D00FE07868FFF757FF0BE0DE
:104BA0007868FFF777FF07E07868FFF79BFF03E07F
:104BB0007868FFF7CBFF00BF00BF0837BD4680BD58
:104BC00080B483B000AF78607B681B781AB27B68D2
:104BD00001331B781B021BB213431BB29BB2184656
:104BE0000C37BD465DF8047B704780B584B000AFDC
:104BF00078607868FFF7E4FF0346FB81FB8903F0E8
:104C00000103002B14BF01230023DBB21846103729
:104C1000BD4680BD0649074A074B9B1A03DD043B8E
:104C2000C858D050FBDC00F035F8FAF71FFC000044
:104C3000745F020028210020A8210020FEE7FEE783
:104C4000FEE7FEE7FEE7FEE7FEE7FEE7FEE7FEE73C
:104C500080B400AFBFF34F8F0549054BDB6803F409
:104C6000E062044B1343CB60BFF34F8F00BFFDE7FF
:104C700000ED00E00400FA0580B400AF034B044AE5
:104C80001A6000BFBD465DF8047B70479821002084
:104C90000090D00380B500AF00F038F90346002B38
:104CA00002D08B4B8B4A1A6000F052F90346002B5E
:104CB00006D0894A894B1B685B0B03F0070313601E
:104CC00000F078F90346002B05D0854A844BDB6859
:104CD00023F08073D36000F08FF90346002B0ED0D1
:104CE0004FF080430022C3F80C214FF08043002294
:104CF000C3F810214FF080430022C3F8382500F09C
:104D0000ADF90346002B02D0764B03221A6000F067
:104D1000C7F90346002B0BD0734B05221A60734B67
:104D200001221A60724B00221A60724B3F221A60F5
:104D300000F0D8F90346002B76D06F4A4FF080532D
:104D4000D3F80434C2F820356B4A4FF08053D3F8BF
:104D50000834C2F82435684A4FF08053D3F80C3435
:104D6000C2F82835644A4FF08053D3F81034C2F8A3
:104D70002C35614A4FF08053D3F81434C2F83035E3
:104D80005D4A4FF08053D3F81834C2F834355A4A8C
:104D90004FF08053D3F81C34C2F84035564A4FF0D8
:104DA0008053D3F82034C2F84435534A4FF080532F
