:100000000000012009190000311900003319000017
:1000100035190000371900003919000000000000F0
:100020000000000000000000000000003B1900007C
:100030003D190000000000003F19000041190000B8
:100040003912000043190000011300004319000099
:100050004319000043190000431900004319000030
:100060004319000043190000431900004319000020
:100070004319000043190000431900004319000010
:1000800043190000A90500004319000043190000AE
:100090006D060000431900004319000043190000D9
:1000A00043190000431900004319000043190000E0
:1000B0004319000043190000000000000000000088
:1000C00043190000431900004319000043190000C0
:1000D000431900004319000043190000000000000C
:1000E0000000000000000000000000000000000010
:1000F0000000000000000000000000000000000000
:1001000000000000000000000000000000000000EF
:1001100000000000000000000000000000000000DF
:1004000010B5054C237833B9044B13B10448AFF34E
:1004100000800123237010BD700000200000000048
:100420005C1C00000C4B43B10C480D4910B5AFF3F8
:1004300000800C48036823B910BD0A48036833B92B
:100440007047094B002BF7D0BDE810401847064B0A
:10045000002BF5D0184700BF000000005C1C000016
:10046000740000206C00002000000000154B002BE1
:1004700008BF134B9D46A3F5803A00218B460F46DB
:100480001348144A121A00F063F80F4B002B00D0E7
:1004900098470E4B002B00D0984700200021040005
:1004A0000D000D48002802D00C48AFF3008000F08A
:1004B0002BF82000290001F0CBF800F011F800BF64
:1004C0000000080000000120000000000000000003
:1004D0007000002018020020000000000000000052
:1004E00008B5074B044613B10021AFF30080054B5C
:1004F0001868836A03B19847204600F031F800BFBE
:10050000000000004C1C000070B50D4E0D4CA41BEB
:10051000A4100025A54209D10B4E0C4C01F08AFB1A
:10052000A41BA4100025A54205D170BD56F82530A6
:1005300098470135EEE756F8253098470135F2E740
:100540006400002064000020640000206800002097
:1005500002440346934200D1704703F8011BF9E7B8
:10056000FEE700BF00B585B000230390194601AA3D
:1005700044F20100ADF80430029300F003F805B036
:100580005DF804FBBFF34F8F0549064BCA6802F4C0
:10059000E0621343CB60BFF34F8F00BFFDE700BFA6
:1005A00000ED00E00400FA052DE9F843274A284B46
:1005B0000025C2F84051C2F84451C2F84851C2F86F
:1005C0004C51C2F80051C2F804511B681BB32149B9
:1005D000D2F804450A68204FA41A1A6824F07F4410
:1005E000A242A84609D8197CDE69A41A1544A1B90B
:1005F0001EB133461A68A242F5D91849184A0B7839
:1006000012789A421BD01749174A41F823504FF4E9
:100610008013C2F80031BDE8F883D3F8149083F852
:1006200010803A689B69484619462AB190470028CD
:10063000DED0FFF797FFDBE71846C847D8E7531C23
:10064000DBB2022B08BF00230B70DCE70010014077
:10065000AC000020A80000208C000020A500002095
:10066000A40000209C00002000E100E02DE9F04FF4
:10067000A34AA44913780978A348994289B0D0F8CD
:1006800000B000F0E5800133DBB2022B08BF00238D
:1006900013709E4A52F823609B4A0BEB060323F02B
:1006A0007F43136001230593994B93F80090994B76
:1006B000D3F800A0964B5C785B680393944B9B78CF
:1006C0000293954B1B7804938F4B00271B6806936E
:1006D000CC465546D646B84601973B460097A445BA
:1006E00023D00CEB4C020398029F10F832100CF14F
:1006F000010C5FFA8CFCBC4508BF4FF0000C0229CE
:1007000000EBC2027BD00329E9D1BEF1000FE6D095
:10071000DEF81C208EF810309646002AF8D11546D7
:10072000A4454FF001020092DBD1019B009F002BFA
:1007300040F0A380B8F1000F02D0734B069A1A6004
:100740000FB1744B1D60059B002B40F0C281BAEBCA
:100750000E0318BF01230593002500230193049382
:100760001F466D4BDFF8B4B11B780693664BD3F888
:100770000080684B1B68009376464FF0010A35B342
:100780006A68A9682B46ED69A2EB080020F07F405B
:10079000584577D8014419605F609F6083F810A0C6
:1007A000DF61002E00F08E803068884280F0828009
:1007B000344603E0106888426DD21446E269091A93
:1007C000002AF7D11960DA61E361002DD8D10399CD
:1007D00009EB490309F10102CC4501EBC3045FFABF
:1007E00082F900F09D8011F83300029B4B4508BF51
:1007F0004FF0000901286AD001230493E8E750680C
:10080000BEF1000F3FF46BAF7045714617D0009FEB
:1008100002E0904205D01146CA69002AF9D100973A
:100820005DE7884200970BD0C2690068CA61002A60
:100830003FF455AF116801441160AE464FE7704672
:10084000DEF81C20964632B1154601220092EBE7F5
:100850000026059628E702F1804202F588324FF023
:100860000108C2F808807546CDF818E0CDF8008080
:10087000CDF80480CDF81080D6E7274B9DF81020E6
:100880001A7057E7A8EB020222F07F428A4208D290
:10089000891A196080E7401A10601960DA61E36113
:1008A00093E71F605F609F6083F810A0DF614EB127
:1008B00030680021411A31600093DE611E46012339
:1008C00001935CE700931E460123019357E7636899
:1008D0001A7C0492002A7FF47BAFA2685A60E16818
:1008E000996007902069D86064699C61069C002C1F
:1008F00000F0EC80049A5A600494002244E700BFA0
:10090000A4000020A5000020A80000209C000020DA
:1009100090000020AC00002098000020FEFF7F0027
:10092000049B002B40F0A681019B13B1804B009AE1
:100930001A60764500F0C080002E00F007817D4AE5
:100940007D49D2F804050C783668A0EB080323F043
:100950007F430333002C50D1784CDFF8E8E1784F27
:100960004FF48035C2F84453C2F804534FF40035B5
:10097000C4F88051256001241460DEF800502F2255
:1009800000BF00BF00BF00BF00BF00BF00BF00BF6F
:10099000BD422FD000BF00BF00BF00BF00BF00BFDF
:1009A00000BF00BF00BF00BF00BF00BF00BF00BF4F
:1009B00000BF00BF00BF00BF00BF00BF00BF00BF3F
:1009C00000BF00BF00BF00BF00BF00BF00BF00BF2F
:1009D00000BF00BF00BF00BF00BF00BF00BF00BF1F
:1009E00000BF00BF00BF00BF00BF00BF00BF00BF0F
:1009F00000BF00BF013AC3D10C709E422CBF08EB70
:100A0000060343444B4923F07F43C1F84035D1F8F6
:100A10000425121A1B1A22F07F4223F07F4303326F
:100A20009A424DD9D1F80435464AC1F8403512688A
:100A300043492F2300BF00BF00BF00BF00BF00BF5E
:100A400000BF00BF8A422FD000BF00BF00BF00BF61
:100A500000BF00BF00BF00BF00BF00BF00BF00BF9E
:100A600000BF00BF00BF00BF00BF00BF00BF00BF8E
:100A700000BF00BF00BF00BF00BF00BF00BF00BF7E
:100A800000BF00BF00BF00BF00BF00BF00BF00BF6E
:100A900000BF00BF00BF00BF00BF00BF00BF00BF5E
:100AA00000BF00BF00BF00BF013BC3D1234B4FF4C9
:100AB0000032C3F8002103E0059B002B7FF43CAF1C
:100AC000214A0023137009B0BDE8F08F0798049005
:100AD0005AE6174B002477462546214620461B68D8
:100AE000DDF814E0A7B13A68B24218D8FC68386063
:100AF000B61A1144FB693CB10BEB010222F07F42B4
:100B0000FD61BC607A603D461F467446002FEAD105
:100B1000BE46002C3FF421AE054A13601DE6BE46DA
:100B2000002C40F0A480921BCEF8002015E600BFF8
:100B3000AC000020001001409900002000E100E01E
:100B40000024F40060000020980000204B4A4C4B29
:100B50004C4D4D484FF480314FF400370124C3F819
:100B60008070C2F848132F23C2F808135460296814
:100B70001D4600BF00BF00BF00BF00BF00BF00BFD9
:100B800000BF81422FD000BF00BF00BF00BF00BF29
:100B900000BF00BF00BF00BF00BF00BF00BF00BF5D
:100BA00000BF00BF00BF00BF00BF00BF00BF00BF4D
:100BB00000BF00BF00BF00BF00BF00BF00BF00BF3D
:100BC00000BF00BF00BF00BF00BF00BF00BF00BF2D
:100BD00000BF00BF00BF00BF00BF00BF00BF00BF1D
:100BE00000BF00BF00BF013DC3D19460274A16601B
:100BF00000BF00BF00BF00BF00BF00BF00BF00BFFD
:100C000081422FD000BF00BF00BF00BF00BF00BFA8
:100C100000BF00BF00BF00BF00BF00BF00BF00BFDC
:100C200000BF00BF00BF00BF00BF00BF00BF00BFCC
:100C300000BF00BF00BF00BF00BF00BF00BF00BFBC
:100C400000BF00BF00BF00BF00BF00BF00BF00BFAC
:100C500000BF00BF00BF00BF00BF00BF00BF00BF9C
:100C600000BF00BF013BC3D1094B1E7028E70949F3
:100C70000B6058E7084B83F800C055E600100140B0
:100C800000E100E0600000200024F400A800002043
:100C900099000020AC000020900000202DE9F047D2
:100CA00012F0030402D00720BDE8F087002AFAD032
:100CB0005F4D604EDFF88891DFF888C14FF4803EC9
:100CC0004FF400374FF00108C6F88070C5F848E3CC
:100CD0002F27C5F808E3C5F80480D9F800E0B94625
:100CE00000BF00BF00BF00BF00BF00BF00BF00BF0C
:100CF000E6452FD000BF00BF00BF00BF00BF00BF50
:100D000000BF00BF00BF00BF00BF00BF00BF00BFEB
:100D100000BF00BF00BF00BF00BF00BF00BF00BFDB
:100D200000BF00BF00BF00BF00BF00BF00BF00BFCB
:100D300000BF00BF00BF00BF00BF00BF00BF00BFBB
:100D400000BF00BF00BF00BF00BF00BF00BF00BFAB
:100D500000BF00BFB9F10109C2D1C5F8088000BFCA
:100D600000BF00BF00BF00BF00BF00BF00BFE6451F
:100D70002FD000BF00BF00BF00BF00BF00BF00BF3B
:100D800000BF00BF00BF00BF00BF00BF00BF00BF6B
:100D900000BF00BF00BF00BF00BF00BF00BF00BF5B
:100DA00000BF00BF00BF00BF00BF00BF00BF00BF4B
:100DB00000BF00BF00BF00BF00BF00BF00BF00BF3B
:100DC00000BF00BF00BF00BF00BF00BF00BF00BF2B
:100DD00000BF013FC3D1DFF870E0DFF870A0164F0D
:100DE000DFF86C90DFF86C80DFF86CC08EF80040A4
:100DF000CAF800304FF4801EE023B9703C707C705C
:100E0000C9F8004088F800408CF800400B49C6F84B
:100E100080E186F81433C6F800E0C5F8080586F8C6
:100E20001133D5F804350B607A602046BDE8F087B1
:100E30000010014000E100E090000020A800002028
:100E4000600000200024F400990000208C000020A5
:100E5000AC000020A4000020A5000020074B5B6828
:100E600023B12AB120B10368187C18B1082070475B
:100E70000720704759745A61704700BF90000020E6
:100E80002DE9F041244C63682BB120B1042905D829
:100E90000720BDE8F0810820BDE8F0814369002B00
:100EA000F9D0437C0546012B4FF000000CBF88466B
:100EB000804617460E4600F035F86378A078217812
:100EC0005A1CD2B2904208BF002291421ED003EBBE
:100ED00043036068DB00C11818D04FF0010E00F822
:100EE00003E00E4B4D60D3F804358B60CE60C1F843
:100EF00010804F610020627000F01CF8084B4FF426
:100F00008012C3F800210020BDE8F081002000F02D
:100F100011F80420BDE8F08190000020001001408D
:100F200000E100E072B6024A1368013313607047B3
:100F3000B0000020034A1368013B136003B962B696
:100F4000704700BFB000002010B5037D01220446A9
:100F500002711BBB836903B19847E378A2789A4278
:100F600046D0002B34D12378002B52D0236AE2687C
:100F7000C3F80C250023A178637023790531012B78
:100F800021611FD10222E369227118682246FFF70E
:100F900077FFB8B1BDE81040FFF7E4BA037893B922
:100FA000036AC268C3F80825A178E378CB1A01FB6D
:100FB00003F1091200230531216163702375237940
:100FC000012BDFD010BD036AC268C3F80C25EBE724
:100FD0002278CAB1226AE168C2F80815A17811FB2B
:100FE00003F1091201230531216163702375E6E7DE
:100FF00023789BB1236AE268C3F80825A17801230E
:10100000053121616370DAE7226AE168C2F80C15E4
:10101000E4E7236AE268C3F80825ABE7236AE268DD
:10102000C3F80C25EAE700BF70B582610B788C68C5
:1010300003708B6883608B68C3604B6803624B7876
:1010400083700546C868E861124A0021FFF706FF71
:10105000C8B974B103464FF0A046032103F5E0720E
:1010600014F0010F18BF46F82210640803F10103C1
:10107000F4D12B7843B92B6AEA68C3F8082500221B
:1010800001236A702B7170BD2B6AEA68C3F80C25C6
:10109000F5E700BF490F000038B50378C1600222B0
:1010A0000446027143BB036AC3F80815A368A56927
:1010B0000B4300220121A3606270227521710DB1E2
:1010C0002046A847E378A2789A4233D0C3B1227869
:1010D000002A40D0226AE168C2F80815A17811FB05
:1010E00003F109120123053121616370237523790E
:1010F000012B13D0002038BD036AC3F80C15D5E7C7
:1011000023781BB3236AE268C3F80C250023A17877
:10111000637023790531012B2161EBD10222E36950
:10112000227118682246FFF7ABFE0028E2D0FFF7D5
:1011300019FADFE723789BB1236AE268C3F8082530
:10114000A1780123053121616370D0E7236AE26849
:10115000C3F80825DAE7226AE168C2F80C15BDE792
:10116000236AE268C3F80C25EAE700BF83788B4264
:1011700026BFC17000200720704700BF10B50D4C7E
:1011800023780BB1852010BD0B4A6360E3601068C3
:10119000A36010F00100236107D04FF080420123CB
:1011A000C2F818352370002010BD072100F080F828
:1011B000F3E700BFB400002000E100E030B51B4DB4
:1011C000AB7883B0044673B110B1436801209847EF
:1011D0000020FFF7A7FEEB6800200133EB60FFF76C
:1011E000A9FE03B030BD03F0FF00FFF79BFE64B122
:1011F0002A6942B1944208D0134601E09C4204D0CF
:101200001B68002BFAD122602C61EB68002BE2D125
:10121000074A08491360136801934FF08042022087
:101220000123019CC2F804030B60D4E7B400002042
:10123000040100400800004010B51A4B1A6882B043
:10124000A2B100221A601B6800934FF08043012274
:10125000154C0099C3F80823A368627033B10CCB16
:101260000020A2609847A368002BF8D10F4B1A68A2
:10127000AAB100221A601B6801934FF0804302223A
:10128000094C0199C3F8082323690122A27033B1E4
:101290000CCB0120226198472369002BF8D102B0C2
:1012A00010BD00BF00010040B40000200401004058
:1012B000002810B418DB00F1604303F561434901D5
:1012C000C9B283F80013C3B24009800000F1604046
:1012D00000F5614003F01F0201239340C0F8803104
:1012E00003605DF8044B7047C3B2044A03F00F0477
:1012F00049012244C9B21176E6E700BFFCEC00E0E8
:1013000070B5A54C237F8EB0002B73D1A34AD2F8C1
:101310000413890546D4A14BD3F80423520704D5FE
:10132000D3F80821002A40F0C9809C4BD3F81C2137
:10133000BAB1A28AA17D92B28A424FF00002C3F8EC
:101340001C2180F0A880D3F81C210692069AA18A5D
:10135000A28AA06889B20132415C92B2A282C3F82B
:101360001C158E4BD3F84421D2B10022C3F844217E
:10137000D3F84411A27E04910499002A40F0888099
:10138000E37D6BB10023617EE268E37501238DF894
:1013900030108DF828300B9294E80A000AA898477C
:1013A0000EB070BDD2F824110029B4D0C2F8243197
:1013B000D2F82411A37E07914FF401710798C2F867
:1013C00008130BB901235360744A02238DF82830A7
:1013D000D2F88034C2F88034E07DE2680D930023B7
:1013E0008DF83000E375237621680B9263680AA8B4
:1013F00098479AE7694BD3F82421002A40F092805D
:10140000D3F8101161B1C3F81021D3F81011039172
:101410000399D3F83C15E07DC9B2884200F0A4805E
:101420005E4BD3F84421B2B10022C3F84421D3F873
:101430004401E17D0190019869B1D3F83C35E16840
:101440008DF8303001230B918DF82830E27594E847
:101450000A000AA89847514BD3F82021002A9FD0B0
:101460000022C3F82021D3F82001A17D009000982C
:10147000002995D0D3F84C15A3688DF830100B9344
:101480008DF82820A27594E80A000AA8984787E7F3
:1014900001221A6074E7D3F81C310593059B0029DB
:1014A0003FF45FAFA3688DF830100B938DF82820C0
:1014B000A27594E80A000AA8984752E7E27D002A3C
:1014C0006ED00022C3F80821D3F808210892089AA8
:1014D000E168627ED3F818358B54637EE27D013378
:1014E000DBB26376637E93427FF41FAF237E002BD3
:1014F0006CD1A37E13B9294B01225A60274AE068B8
:1015000063684FF40171C2F80813627E8DF83020D1
:10151000002501220B902168E5758DF828200AA886
:10152000984702E70022C3F82421D3F8241102913E
:1015300002218DF828100299D3F88014C3F8801482
:101540000D91D3F83C15E368E27522768DF83010E2
:101550000B93216863680AA89847104BD3F844217D
:10156000002A3FF478AF5FE7217E11B3D3F8006221
:10157000E568E17526F02006C3F8006226698DF85B
:10158000300001238DF82830227621680B95E66023
:1015900063680AA8984743E7C8000020002000407D
:1015A000C3F80821D3F8081109910999D3F818351F
:1015B00098E7E268E17501238DF830008DF8283056
:1015C0000B9294E80A000AA8984729E7607EE5682C
:1015D0002169E375012200238DF83000E160237654
:1015E00063760B958DF8282094E80A000AA898479E
:1015F0009BE600BF10B58368B3F5003F024619D0E3
:10160000B3F5802F00D010BD0F4C238801339BB25F
:10161000B3F5C87F2380F6D9D3789178C91AC9B2B7
:10162000FFF7A4FD002323800028ECD0BDE8104084
:10163000FEF798BF054C238801339BB2B3F5FA7FC0
:101640002380E9D810BD00BF4A01002048010020D6
:101650002DE9F04184B0FFF791FD002840F016819C
:101660000020FFF7ABFD002318469A4A0421FFF73C
:1016700015FB002840F019810023DC264FF40035CB
:10168000954C8DF8003069464FF0A043934A94483A
:101690008DF80160029503940193FFF7C5FC0028C3
:1016A00040F0F78014218E48FFF760FD002840F0DD
:1016B000F9800023C8264FF480258A4C8DF800302D
:1016C000864A89488DF801604FF0A043694602952B
:1016D00003940193FFF7A8FC002840F011819621A4
:1016E0008148FFF743FD002840F0F1800023642685
:1016F0004FF400257D4C8DF8003069464FF0A04333
:10170000764A7B488DF80160029503940193FFF7B8
:101710008BFC002840F0D88014217548FFF726FD87
:10172000002840F0CE806E488168FFF7B5FC0028A5
:1017300040F0C4806C488168FFF7AEFC002840F0A0
:10174000BA806B4CA1682046FFF7A6FC002840F049
:10175000AF80DFF8A881664F664E674D86E0D8F807
:1017600000202B4600BF00BF00BF00BF00BF00BF6E
:1017700000BF00BFB2422FD000BF00BF00BF00BFFC
:1017800000BF00BF00BF00BF00BF00BF00BF00BF61
:1017900000BF00BF00BF00BF00BF00BF00BF00BF51
:1017A00000BF00BF00BF00BF00BF00BF00BF00BF41
:1017B00000BF00BF00BF00BF00BF00BF00BF00BF31
:1017C00000BF00BF00BF00BF00BF00BF00BF00BF21
:1017D00000BF00BF00BF00BF013BC3D1A178E378C9
:1017E000C91AC9B23846FFF7C1FC00284BD1D8F856
:1017F00000202B4600BF00BF00BF00BF00BF00BFDE
:1018000000BF00BFB2422FD000BF00BF00BF00BF6B
:1018100000BF00BF00BF00BF00BF00BF00BF00BFD0
:1018200000BF00BF00BF00BF00BF00BF00BF00BFC0
:1018300000BF00BF00BF00BF00BF00BF00BF00BFB0
:1018400000BF00BF00BF00BF00BF00BF00BF00BFA0
:1018500000BF00BF00BF00BF00BF00BF00BF00BF90
:1018600000BF00BF00BF00BF013BC3D1A178E37838
:10187000C91AC9B23846FFF779FC00283FF46FAFA8
:10188000FEF770FE6BE7FEF76DFEB0E7FEF76AFE4F
:10189000E6E6FEF767FE14211148FFF767FC002813
:1018A0003FF407AFFEF75EFE03E7FEF75BFEE3E6FD
:1018B000FEF758FE4DE7FEF755FE42E7FEF752FEF3
:1018C00038E7FEF74FFE2EE7FEF74CFE24E7FEF763
:1018D00049FE0BE7E8000020501C0000F515000051
:1018E0004C010020541C000070010020581C000016
:1018F000940100200024F40020A1070060000020D3
:10190000FEF730FEEBE600BF0649074A074B9B1A7D
:1019100003DD043BC858D050FBDC00F013F8FEF7A1
:10192000A5FD0000681C00000000002070000020E1
:10193000FEE7FEE7FEE7FEE7FEE7FEE7FEE7FEE77F
:10194000FEE7FEE7F0B4A64B1B78062B1BD0A54A9A
:10195000D2F8883043F47003C2F88830BFF34F8F59
:10196000BFF36F8F4FF01023D3F80022002AC0F28C
:101970000581D3F80432002BC0F200819A4B9B4AB8
:101980001A60F0BC70479A4B1B681E07DFD1994B59
:101990001B6803F0F003302B02D1974B974A1A6073
:1019A000944B1B6803F0F002302A00F0D68003F05D
:1019B000E003402B00F0D1808E4B1B6803F0F00356
:1019C000302B00F0BB808B4B1B6803F0F002302AF9
:1019D00000F0A08003F0E003402B00F09B80854BDB
:1019E0001B6803F0F003302B00F08680814B1B68EE
:1019F00003F0F003302B68D07E4B1B6803F0F0033C
:101A0000502B10D07B4B1B6803F0F002302A03D020
:101A100003F0E003402B9AD1794B7A4A1B6803F01C
:101A20004F03136093E74FF08052774BD2F80414C2
:101A3000C3F82015D2F80814C3F82415D2F80C14F2
:101A4000C3F82815D2F81014C3F82C15D2F81414C2
:101A5000C3F83015D2F81814C3F83415D2F81C1492
:101A6000C3F84015D2F82014C3F84415D2F8241452
:101A7000C3F84815D2F82814C3F84C15D2F82C1422
:101A8000C3F85015D2F83014C3F85415D2F83414F2
:101A9000C3F86015D2F83814C3F86415D2F83C14B2
:101AA000C3F86815D2F84014C3F86C15D2F8442472
:101AB0004B49C3F870250A78062A7FF448AF4C4B8F
:101AC0001B681B077FF443AF9CE7454B4F491B78CE
:101AD0004F4D5048504A05270F60012600243F21F2
:101AE000062B2E60046011607FF431AF404B1B6801
:101AF0001A077FF42CAF7FE7394B484A1B78032144
:101B0000062B11607FF423AF394B1B6819077FF454
:101B10001EAF6BE7324B1B784FF080420021062B43
:101B2000C2F80C11C2F81011C2F838157FF40FAFCB
:101B30002F4B1B6818077FF40AAF50E73849284A33
:101B4000CB68127823F08073062ACB60B4D1284B7F
:101B50001B681C077FF4FBAE35E7324A204B126846
:101B60001B783149C2F34232062B0A607FF4EFAE94
:101B70001F4B1B681D077FF4EAAE1DE72B4B0122AC
:101B8000C3F80425D3F80024002AFBD04FF010231B
:101B900015222649C3F80022D1F80034002BFBD0CF
:101BA0004FF010221521214BC2F80412D3F8002463
:101BB000002AFBD000221D49C3F80425D1F80034C7
:101BC000002BFBD0BFF34F8F0649194BCA6802F4B4
:101BD000E0621343CB60BFF34F8F00BFFDE700BF50
:101BE000E00F00F000ED00E0600000200090D00366
:101BF000E40F00F0E80F00F074C007400DF0ADBA3C
:101C000058020010E40E004000C000401056004092
:101C1000885600401856004014560040A005004069
:101C2000F0ED00E0440200103C05004000E00140FF
:101C30000400FA05F8B500BFF8BC08BC9E46704722
:101C4000F8B500BFF8BC08BC9E46704700000020F5
:101C5000B8010020D8010020F80100200000000099
:081C60000CE8FF7F0100000009
:101C6800000000000000000000000000000000006C
:101C7800000000000000000000000000000000005C
:101C8800000000000000000000000000000000004C
:101C9800000000000000000000000000000000003C
:101CA800000000000000000000000000000000002C
:101CB800000000000000000000000000000000001C
:101CC8000090D0032504000001040000000000007B
:0400000300001909D7
:00000001FF
